:020000040800F2
:1000000000000220D5FE0008ED010008FD010008F7
:100010000D0200081D0200082D020008000000006B
:100020000000000000000000000000003D02000889
:100030004D020008000000005D020008D901000820
:100040006D0200087D0200088D0200089D02000874
:10005000AD020008BD020008CD020008DD02000864
:10006000ED020008FD0200080D03000821530008FE
:1000700031530008415300085153000861530008F0
:1000800071530008815300088D030008B94B000824
:10009000314C0008954C0008594D0008DD0300085C
:1000A000ED030008FD0300080D0400081D0400080E
:1000B0002D0400083D0400084D0400085B4D0008B5
:1000C0006D4D0008814D0008954D00089D04000805
:1000D000554F0008ED5C0008E55C0008DD5C000899
:1000E000ED040008FD0400080D0500081D050008CA
:1000F0002D0500083D0500084D0500085D050008B8
:100100006D0500087D0500088D0500089D050008A7
:10011000D55C0008CD5C0008CD050008DD050008B1
:10012000A1530008B1530008C1530008D15300087F
:10013000E15300083D0600084D0600085D06000872
:100140006D0600087D0600088D060008E90100081C
:10015000F15300080154000811540008C55C000860
:10016000DD060008ED060008FD0600080D07000882
:100170001D0700082D0700083D0700084D0700086F
:080180005D0700086D0700088F
:1001880001303F28C8BF0020704770B50F4C0FC81A
:10019800266804EB0615083585E80F0094F808343E
:1001A80004EB86023046C2F80C34013384F8083474
:1001B800FFF7E6FFD4F80C35834205D14FF0FF3046
:1001C800BDE8704000F0DCBD206070BD0008002074
:1001D800024B1A6801321A60704700BFE819002004
:1001E80000F004BE024B002205201A6004F0E3BDB3
:1001F80000000020024B012205201A6004F0DBBD3C
:1002080000000020024B022205201A6004F0D3BD32
:1002180000000020024B032205201A6004F0CBBD29
:1002280000000020024B042205201A6004F0C3BD20
:1002380000000020024B0520186004F0BCBD00BF80
:1002480000000020024B062205201A6004F0B3BD0E
:1002580000000020024B072205201A6004F0ABBD05
:1002680000000020024B092205201A6004F0A3BDFB
:1002780000000020024B0A2205201A6004F09BBDF2
:1002880000000020024B0B2205201A6004F093BDE9
:1002980000000020024B0C2205201A6004F08BBDE0
:1002A80000000020024B0D2205201A6004F083BDD7
:1002B80000000020024B0E2205201A6004F07BBDCE
:1002C80000000020024B0F2205201A6004F073BDC5
:1002D80000000020024B102205201A6004F06BBDBC
:1002E80000000020024B112205201A6004F063BDB3
:1002F80000000020024B122205201A6004F05BBDAA
:1003080000000020024B132205201A6004F053BDA0
:1003180000000020024B142205201A6004F04BBD97
:1003280000000020024B152205201A6004F043BD8E
:1003380000000020024B162205201A6004F03BBD85
:1003480000000020024B172205201A6004F033BD7C
:1003580000000020024B182205201A6004F02BBD73
:1003680000000020024B192205201A6004F023BD6A
:1003780000000020024B1A2205201A6004F01BBD61
:1003880000000020024B1B2205201A6004F013BD58
:1003980000000020024B1C2205201A6004F00BBD4F
:1003A80000000020024B1D2205201A6004F003BD46
:1003B80000000020024B1E2205201A6004F0FBBC3E
:1003C80000000020024B1F2205201A6004F0F3BC35
:1003D80000000020024B202205201A6004F0EBBC2C
:1003E80000000020024B212205201A6004F0E3BC23
:1003F80000000020024B222205201A6004F0DBBC1A
:1004080000000020024B232205201A6004F0D3BC10
:1004180000000020024B242205201A6004F0CBBC07
:1004280000000020024B252205201A6004F0C3BCFE
:1004380000000020024B262205201A6004F0BBBCF5
:1004480000000020024B272205201A6004F0B3BCEC
:1004580000000020024B282205201A6004F0ABBCE3
:1004680000000020024B292205201A6004F0A3BCDA
:1004780000000020024B2A2205201A6004F09BBCD1
:1004880000000020024B2B2205201A6004F093BCC8
:1004980000000020024B2C2205201A6004F08BBCBF
:1004A80000000020024B2D2205201A6004F083BCB6
:1004B80000000020024B2E2205201A6004F07BBCAD
:1004C80000000020024B2F2205201A6004F073BCA4
:1004D80000000020024B302205201A6004F06BBC9B
:1004E80000000020024B312205201A6004F063BC92
:1004F80000000020024B322205201A6004F05BBC89
:1005080000000020024B332205201A6004F053BC7F
:1005180000000020024B342205201A6004F04BBC76
:1005280000000020024B352205201A6004F043BC6D
:1005380000000020024B362205201A6004F03BBC64
:1005480000000020024B372205201A6004F033BC5B
:1005580000000020024B382205201A6004F02BBC52
:1005680000000020024B392205201A6004F023BC49
:1005780000000020024B3A2205201A6004F01BBC40
:1005880000000020024B3B2205201A6004F013BC37
:1005980000000020024B3C2205201A6004F00BBC2E
:1005A80000000020024B3D2205201A6004F003BC25
:1005B80000000020024B3E2205201A6004F0FBBB1D
:1005C80000000020024B3F2205201A6004F0F3BB14
:1005D80000000020024B402205201A6004F0EBBB0B
:1005E80000000020024B412205201A6004F0E3BB02
:1005F80000000020024B422205201A6004F0DBBBF9
:1006080000000020024B432205201A6004F0D3BBEF
:1006180000000020024B442205201A6004F0CBBBE6
:1006280000000020024B452205201A6004F0C3BBDD
:1006380000000020024B462205201A6004F0BBBBD4
:1006480000000020024B472205201A6004F0B3BBCB
:1006580000000020024B482205201A6004F0ABBBC2
:1006680000000020024B492205201A6004F0A3BBB9
:1006780000000020024B4A2205201A6004F09BBBB0
:1006880000000020024B4B2205201A6004F093BBA7
:1006980000000020024B4D2205201A6004F08BBB9D
:1006A80000000020024B4E2205201A6004F083BB94
:1006B80000000020024B4F2205201A6004F07BBB8B
:1006C80000000020024B502205201A6004F073BB82
:1006D80000000020024B512205201A6004F06BBB79
:1006E80000000020024B522205201A6004F063BB70
:1006F80000000020024B532205201A6004F05BBB67
:1007080000000020024B542205201A6004F053BB5D
:1007180000000020024B552205201A6004F04BBB54
:1007280000000020024B562205201A6004F043BB4B
:1007380000000020024B572205201A6004F03BBB42
:1007480000000020024B582205201A6004F033BB39
:1007580000000020024B592205201A6004F02BBB30
:1007680000000020024B5A2205201A6004F023BB27
:10077800000000200C4A0D4B10B51C68536801217D
:1007880011FA03F020421446094A01D1106003E02F
:1007980003F110008140116001330F2B636002DD0B
:1007A800014B0C225A6010BD00000020140C0240BE
:1007B800180C0240064B01221B6812FA00F119427C
:1007C800044B01D119607047103082401A6070479D
:1007D800140C0240180C024037B52C4804F0F4FB06
:1007E80003F0CAFE2A4B1B680021986806F0A8F996
:1007F8004FF48072134640244FF4E13102200094F4
:1008080005F01AFA4FF4807213464FF4E1310320D1
:10081800009405F011FA062003F093FE062003F079
:1008280035FE1C4B1C481A6842F080721A601B4B3C
:100838001A68002142F001021A600A4607F02EFFEA
:10084800174B00221860174C236817490968C91A02
:100858000029FADD15491648551C06F0ADFA0620A0
:100868000021134A03F062FE114A1249032005F0E1
:100878003DFA0F49104806F047F9FFF77BFF226859
:100888000E4BD31823602A46DDE700BF20FF00087F
:100898007C020020FCED00E088030108001000E065
:1008A800041A0020E4190020041000E08D03010858
:1008B800081A00209D030108A403010840787D015F
:1008C800064B074A1B6811685B1A002B04DD054BB1
:1008D8000E20CB1813606DE7704700BF041000E0CE
:1008E800E419002000BD0105114B124A1B6811686C
:1008F8005B1A002B1ADD104BCB1813600F4B93F8C3
:1009080010250132D2B2402A83F810250BD1D3F832
:1009180014250132C3F81425002283F81025023269
:1009280083F818257047012283F81825704700BFFF
:10093800041000E08C1A0020E80D280000080020B0
:100948000B4B19680B4B1A68891A002910B50EDD74
:1009580002F54C2202F58A521A6004F0CDFA30B141
:10096800054806490322BDE8104004F0CDBA10BD81
:10097800041000E0C819002008000020CC1900204D
:100988001B4B13B519681B4B1A68891A00292DDDF2
:10099800194C1A4802F1807202F5B2421A60D4F872
:1009A8001C35174A00931421164B06F0ADF9D4F8FC
:1009B800200505F0F5FB144ACDE900011421134880
:1009C80006F0A2F91421D4F81435114A114806F09A
:1009D8009BF906200021094A03F0A8FD0D4A0620CC
:1009E800022102B0BDE8104003F0A0BD02B010BD66
:1009F800041000E0881A002000080020EC190020EC
:100A0800AB030108B303010834FF0008901A002063
:100A180048FF0008CF190020044BD3F814253C2ABE
:100A280002D90122C3F82425704700BF000800201E
:100A38007047044AD2F82435C2F81C3503B9EBE7ED
:100A4800704700BF00080020044B4FF07E52C3F8E7
:100A580028254FF08042C3F82C2570470008002055
:100A680010B5084CD4F81C3513B9D4F8280501E0A2
:100A7800D4F82C054FF07C5105F0E6FBC4F82005AE
:100A880010BD00BF000800200C4910B5002001F17E
:100A9800600203F027FC78B1012809D1084804F066
:100AA800D3F900F063F90548BDE8104003F0A1B997
:100AB800BDE8104000F04AB910BD00BF300D00205D
:100AC800900D002010B502E00830FFF75EFB03F040
:100AD800BFFF074CC4F8A0050028F5D101E0FFF7D7
:100AE80054FB03F09FFFC4F8A4050028F7D110BDFC
:100AF8000008002010B514E004EB830204F5B5618A
:100B0800D2F80C2484F8062604F1080202EB03123A
:100B1800012003F081FCD4F80C05FFF731FBC4F881
:100B28000C05034CD4F80C3522689A42E4D110BD68
:100B38000008002030B5194C94F81855012D85B0DF
:100B480015D14FF00053009394F81035019568467D
:100B5800ADF8083004F078F96846FFF716FB4FF057
:100B68000553009302230193ADF808500AE0022DC3
:100B780011D14FF00053009304230193B4F81435B6
:100B8800ADF80830684604F05FF96846FFF7FDFAEB
:100B9800002384F8183505B030BD00BF00080020D8
:100BA80008B5FFF719FEFFF78BFEFFF79DFEFFF76D
:100BB8006BFFFFF787FFFFF73CFFFFF745FFFFF7E6
:100BC8004FFFFFF7B7FFFFF795FFFFF7B9FEFFF7F6
:100BD800D7FEE8E7DC040108000000200008002038
:100BE80000080020A02A002000207047002070473D
:100BF800012070470020704738B50B4D2C680B2C2E
:100C08000DDC04F03BFD50B1084B43F8340003EB16
:100C1800C40300225A602B6801332B6001E04FF0B7
:100C2800FF34204638BD00BF080E0020BC1A002043
:100C380010B538B9054B5C6834B91868BDE8104080
:100C480004F0ECBE4FF0FF3010BD00BFBC1A00200E
:100C5800074B5A680AB9074A5A6058686B464118E0
:100C6800994296BF024B4FF0FF305960704700BF62
:100C7800080E0020A02A00200138012810B51346CC
:100C880007D80548446824B90068BDE8104004F056
:100C980053BF184610BD00BFBC1A00200449054ABE
:100CA8000868054B8018186009688A185A607047E8
:100CB800041000E040118B05100E00200C4B0D496C
:100CC8001B6808680C4A1B1A002B04DD0B4BC31861
:100CD8000B60002313601368042B06DC0848064ADF
:100CE80000EB03100133136070470020704700BF0A
:100CF800041000E0100E00200C00002040118B05AD
:100D080068FF00080C4B0D4A1B6851685B1A002BE2
:100D18000FDD0B4BCB1853600A4B5A680132032A7C
:100D28005A6001DD00225A605868074B03EB001037
:100D380070470020704700BF041000E0100E00202C
:100D480040118B050C000020B8FF0008002809DCC2
:100D5800C0F10100092805DC034B53F820200132BB
:100D680043F82020704700BF201B0020002804DC27
:100D780003D1024BDA6A0132DA627047201B002085
:100D88007047074A0749136810B551F82340591CA2
:100D98000C29116001DD002111600360446010BD61
:100DA800180E0020201B00207047FEE7FEE7FEE734
:100DB800FEE770477047704700F01EB910B5094C40
:100DC800A37A4BB1084B1A6822F006021A6000F0A9
:100DD80013F8204601F0EEFC4FF48020BDE81040E7
:100DE80000F048BC541B002010ED00E0014801F061
:100DF80055BF00BF541B0020344B1A6842F0010253
:100E08001A6000229A60196821F0847121F48031F7
:100E180019602F495960196882B021F4802119603E
:100E2800DA60019200921A6842F480321A60274B05
:100E38001A6802F400320092019A01320192009A73
:100E48001AB9019AB2F5A06FF1D11B6813F40033F7
:100E580018BF01230093009B012B30D11B4B1A6C48
:100E680042F080521A641B4A116841F480411160B3
:100E78009A689A609A6842F400429A609A6842F4C2
:100E8800A0529A60144A5A601A6842F080721A6036
:100E98000E4B1A6812F0007FFAD0104A40F2056132
:100EA80011609A6822F003029A609A6842F002027E
:100EB8009A60064B9B6803F00C03082BF9D1084B8A
:100EC8004FF000629A6002B0704700BF00380240DD
:100ED800103000240070004008544007003C0240D5
:100EE80000ED00E01E4A1F4B916801F00C01042937
:100EF80003D0082903D01C4A25E01C4A23E0516886
:100F0800506811F4800F00F03F000AD0526847F68D
:100F1800C07102EA0101154A8909B2FBF0F24A439D
:100F280009E0516847F6C07201EA02020E499209C7
:100F3800B1FBF0F042430A49496801F44031C90B5A
:100F48000231B2FBF1F21A60054A1968926802F0A0
:100F5800F00203EB1212127931FA02F21A607047AA
:100F680000380240140000200024F40040787D017D
:100F7800194B1A684FF47A73B2FBF3F230B5174B7A
:100F880022F07F42013A5A60154AF02182F8231074
:100F98000024072285B09C6008201A60EF3900F011
:100FA800BBF94FF4704302930125032302A90D48AE
:100FB8008DF80D308DF80C508DF80E408DF80F40DF
:100FC80000F0EAFB084B094800932946084A094BF8
:100FD80002F006FA05B030BD1400002010E000E071
:100FE80000ED00E0000C024028000020541B002007
:100FF8005C000020DC000020704770477047704795
:1010080070477047704770477047000012230B8085
:10101800004870474400002004230B8000487047B4
:10102800560000200A4608B50248034902F0B2FCFF
:10103800014808BDC2030108D02900200A4608B5A6
:101048000248034902F0A6FC014808BDD003010884
:10105800D029002008B50A4608B9044800E0044829
:10106800044902F097FC034808BD00BFDB030108F0
:10107800E8030108D02900200A4608B502480349B8
:1010880002F088FC014808BDF5030108D0290020BA
:1010980008B50A4608B9044800E00448044902F0C3
:1010A80079FC034808BD00BF0804010829040108A9
:1010B800D02900200A4B1968002241F0010018606D
:1010C8009A60196821F0847C06492CF480301860F5
:1010D8005960186820F480211960DA60704700BFF1
:1010E8000038024010300024024B00221A70187099
:1010F800704700BF02380240034B1A6822F0F8011B
:1011080041EAC0021A60704700380240014B18607B
:10111800704700BF00004742064B002201281A70A2
:101128001A7004D0042801D105201870704718706F
:10113800704700BF70380240014B1860704700BF0D
:10114800800E474241EA000040EA821C009A5B0890
:10115800591E4CEA0260024B40EA01425A6070474D
:1011680000380240014B1860704700BF60004742DA
:101178008001034B40EA0171C3F88410704700BF37
:1011880000380240014B1860704700BF68004742B2
:10119800014B1860704700BF4C004742044B9A68E7
:1011A80022F0EC6C40EA0C0040EA01029A607047B9
:1011B80000380240044B9A6822F0784C40EA0C0050
:1011C80040EA01029A60704700380240034B9A686F
:1011D80022F0030140EA01029A6070470038024099
:1011E800024B986800F00C00704700BF00380240BE
:1011F800034B9A6822F0F00140EA01029A607047B6
:1012080000380240034B9A6822F4E05140EA010298
:101218009A60704700380240034B9A6822F4604194
:1012280041EAC0029A60704700380240204A936839
:1012380003F00C03042B10B41DD0082B1ED01D4B3B
:1012480003601B491C4A8C68C4F3031C12F80C4049
:10125800E34043608C68C4F3822C12F80C4033FAE4
:1012680004F484608968C1F3423C12F80C20D3402E
:10127800C36010BC7047114B0360E2E754685168C3
:1012880014F4800F546814BF0C4B0A4BC4F3881233
:1012980001F03F01064CB3FBF1FC0CFB02F1626864
:1012A800C2F301435C1C6200B1FBF2F30360C8E7C0
:1012B800003802400024F4008400002040787D01BA
:1012C80000F44073B3F5407F0AD1094B996820F0C8
:1012D800704221F4F81122F4407C4CEA01029A6031
:1012E800034B00051A6F010D41EA020018677047A9
:1012F80000380240014B1860704700BF3C0E47425F
:10130800014B1860704700BF400E4742014B186000
:10131800704700BF5C01474229B9054B1A6B22EAA6
:10132800000119637047024B1A6B1043186370472A
:101338000038024029B9054B5A6B22EA000159636B
:101348007047024B5A6B104358637047003802408D
:1013580029B9054B9A6B22EA000199637047024B41
:101368009A6B1043986370470038024029B9054BBF
:101378001A6C22EA000119647047024B1A6C104378
:10138800186470470038024029B9054B5A6C22EAA4
:10139800000159647047024B5A6C104358647047F7
:1013A8000038024029B9054B1A6922EA000119617F
:1013B8007047024B1A6910431861704700380240A1
:1013C80029B9054B5A6922EA000159617047024B55
:1013D8005A691043586170470038024029B9054BD3
:1013E8009A6922EA000199617047024B9A69104391
:1013F800986170470038024029B9054B1A6A22EAF9
:10140800000119627047024B1A6A1043186270474C
:101418000038024029B9054B5A6A22EA000159628C
:101428007047024B5A6A10435862704700380240AE
:1014380029B9054B1A6D22EA000119657047024B5C
:101448001A6D1043186570470038024029B9054BDA
:101458005A6D22EA000159657047024B5A6D1043D4
:10146800586570470038024029B9054B9A6D22EA41
:10147800000199657047024B9A6D10439865704753
:101488000038024029B9054B1A6E22EA0001196694
:101498007047024B1A6E10431866704700380240B6
:1014A80029B9054B5A6E22EA000159667047024B6A
:1014B8005A6E1043586670470038024031B9064BDF
:1014C80093F800C02CEA000119707047024B1A7893
:1014D80010431870704700BF0D3802404309012BB4
:1014E8000BD0022B094B0CBF1B6F5B6F00F01F0169
:1014F80033FA01F000F001007047044B1B6800F05C
:101508001F0133FA01F000F0010070470038024073
:1015180000B583B00023019300E048B93120FFF7FC
:10152800DDFF019B5A1C01920199B1F5A06FF4D11E
:101538003120FFF7D3FF003818BF012003B000BDEA
:10154800024B586F40F080725A677047003802406B
:101558000349CB6818420CBF00200120704700BF28
:1015680000380240014B1870704700BF0E38024027
:10157800044B054A0020186058609860D8605A618A
:10158800704700BF003C0140FFFF7F00837970B4C3
:1015980043B3204B01681E6802794579CC4304EABD
:1015A80006061E605E6802F1804C0CF59E323440DF
:1015B8005C60146844EA0101116002689868D143CC
:1015C80001EA00009860D868102D01EA0001D9608E
:1015D80016D005F1804505F59E35286840EA0203D6
:1015E8002B600BE00279016802F1804000F59E3C17
:1015F800DCF8003023EA0102CCF8002070BC704708
:10160800996841EA02009860D96841EA0200D86006
:10161800F4E700BF003C014000230C220360037183
:1016280042718371704700BF024B196940EA010299
:101638001A617047003C014003494B6918420CBFCE
:1016480000200120704700BF003C0140014B586159
:10165800704700BF003C014005490A684B690340D8
:1016680004D010420CBF0020012070471846704774
:10167800003C0140014B5861704700BF003C0140ED
:101688003C4B984210B524D03B4988422BD03B4A6A
:10169800904232D03A4B984239D03A49884240D0A9
:1016A800394A904247D0394B98424ED038498842FF
:1016B80055D0384A904200D010BD01214FF48070B7
:1016C800FFF770FE4FF480700021BDE81040FFF76F
:1016D80069BE01200146FFF765FE01200021BDE833
:1016E8001040FFF75FBE02200121FFF75BFE0220DA
:1016F8000021BDE81040FFF755BE04200121FFF787
:1017080051FE04200021BDE81040FFF74BBE082021
:101718000121FFF747FE08200021BDE81040FFF730
:1017280041BE10200121FFF73DFE10200021BDE839
:101738001040FFF737BE20200121FFF733FE20209D
:101748000021BDE81040FFF72DBE40200121FFF722
:1017580029FE40200021BDE81040FFF723BE80206D
:101768000121FFF71FFE80200021BDE81040FFF790
:1017780019BE00BF000002400004024000080240F9
:10178800000C024000100240001402400018024001
:10179800001C02400020024000232DE9F0070A68DF
:1017A8001C4601264FF0030C0BE0013416FA04F531
:1017B80005EA02070233AF4235D001340233102C58
:1017C8005AD016FA04F505EA0207AF42EDD1D0F86F
:1017D800009091F804800CFA03F5ED4305EA090A34
:1017E800C0F800A0D0F8009008FA03FA08F1FF3812
:1017F8005FFA88F84AEA0909B8F1010FC0F80090C1
:101808003DD9C76891F807803D40C560C76808FAA8
:1018180003F53D430134C56016FA04F505EA0207ED
:101828000233AF42C9D1D0F8009091F804800CFA85
:1018380003F5ED4305EA090AC0F800A0D0F80090C6
:1018480008FA03FA08F1FF385FFA88F84AEA090942
:10185800B8F1010FC0F8009031D9C76891F8078036
:1018680005EA0707C760C76808FA03F501343D436E
:101878000233102CC560A4D1BDE8F0077047D0F83A
:1018880008A091F8059091F8068005EA0A0AC0F8C0
:1018980008A0D0F808A009FA03F949EA0A09C0F82B
:1018A8000890D0F8049029EA07074760476808FAC3
:1018B80004F81FFA88F848EA07074760A1E7D0F854
:1018C80008A091F8059091F8068005EA0A0AC0F880
:1018D80008A0D0F808A009FA03F949EA0A09C0F8EB
:1018E8000890D0F8049029EA07074760476808FA83
:1018F80004F81FFA88F848EA07074760ADE700BF11
:1019080000234FF6FF720260037143718371C37144
:10191800704700BF82B04FF480320192019B41EAC8
:1019280003020192019BC361C161019AC261C1694D
:101938000191C369019302B0704700BF036919425E
:101948000CBF002001207047006980B2704700BFBB
:10195800436919420CBF002001207047406980B2DA
:10196800704700BF01837047418370470AB94183BC
:1019780070470183704700BF41617047426981EA3F
:1019880002034361704700BFCB08083301F0070129
:1019980030B4890050F823500F248C4025EA040401
:1019A80040F8234050F8234012FA01F141EA0404B8
:1019B80040F8234030BC704710B5074C2068FF281A
:1019C80007D00649064A8B68126806499847FF23DC
:1019D8002360002010BD00BF9400002040010020BB
:1019E8001C0E0020C821002043230B8000487047AC
:1019F8009800002038B51F4C63685A1C052B62609C
:101A080001D0002038BD94F808C00023BCF1010FB4
:101A18006360F6D0E568174AB5F5006F04BFE36068
:101A28001D462369AB4221D028BFC5EB0301D0F87E
:101A3800EC35B3F8393038BFC5F500618B425161D8
:101A48000DD2EA18C91AADB2E26061610A4A812171
:101A580052190125257201F071F8002038BD4A1984
:101A680000236361ADB2E2608BB2EFE70020107231
:101A7800C7E700BF1C0E0020D021002038B513494D
:101A88000B7A012B01D0002038BD4C69D4B1D0F8B5
:101A9800EC25B2F839309C420DD8CA681319CB60CE
:101AA80000234B6192B2A3B2094C8121A21801F024
:101AB80045F8002038BDCA68E41A9D18CD6092B276
:101AC8004C61F1E70C72002038BD00BF1C0E0020ED
:101AD800D021002001EB810C38B500EBCC01044685
:101AE800084D0948B1F88813026928469047D4F888
:101AF800EC35204601212A46B3F8403000F0F4FFC7
:101B0800002038BD882100204001002070B50B78E6
:101B180013F060050C46064608D14B780A2B1CD0FA
:101B28000B2B2DD0062B31D0284670BD202D03D08D
:101B380001F00EFD022070BDCD88002D34D013F0C9
:101B4800800F10D14A781E4B1E491A601E4B2A4638
:101B58001D6001F091FC002070BD1C49012201F0BC
:101B680071FC284670BD1A481649836860782A4671
:101B7800984730461349E28801F064FC002070BDA4
:101B88008B78CBB9104A1846936170BD4B88180AF8
:101B9800212803D1CA883A2A28BF3A2230460D495B
:101BA80001F050FC002070BD487809492A468B682E
:101BB80029469847284670BD01F0CAFC284670BDE2
:101BC80094000020C82100201C0E0020340E0020A4
:101BD80040010020AA00002010B58121044600F031
:101BE8006DFF0121204600F069FF8221204600F0A8
:101BF80065FF024843689847002010BD4001002057
:101C0800D0F8EC2538B5044681210223B2F83920F2
:101C180000F034FFD4F8EC550121B5F84020022338
:101C2800204600F02BFF822108220323204600F0E3
:101C380025FF094B0949022200251A715D710868C0
:101C48008047D4F8EC35064AB3F8403020460121E5
:101C580000F04AFF284638BD44000020400100201B
:101C68008821002030B5054683B000230320019366
:101C780001F021FF2B681B4C1A690192019A002A76
:101C880014DB032001F017FF2B68196901910198F3
:101C9800013C00280ADB032001F00DFF2B681A69BC
:101CA800013C0192EAD1002003B030BD01990D4AF0
:101CB80041F001000190019919611869019001989A
:101CC80010F0010F0AD0196901910198013A10F03A
:101CD800010F03D01969013A0191F0D1032001F0F5
:101CE800EAFEE0E7400D030030B4C47804BB00EB23
:101CF800820003339B10D0F8D04019D051F8042B40
:101D080001205D1E834205F00105226010D02DB12F
:101D180051F8042B02208342226009D00A4602307F
:101D280052F8045B25604D68111D83422560F5D18A
:101D3800002030BC704700BF0332921070B4D0F856
:101D4800D0501CD02C680B46501E43F8044B01247D
:101D5800A24200F0010010D028B128680224A24253
:101D680043F8040B09D02E681846023440F8046B77
:101D78002E685E60031DA242F5D101EB8201084680
:101D880070BC70472DE9F00F00230127402201297C
:101D9800C3708770828000F0A680002900F08C80D4
:101DA800477890F80080C3604FF400620261002F0A
:101DB80000F0B0804FF4606A4FF488694FF4806B8C
:101DC8009C4602460CF5106442F8184F01247B1E0D
:101DD8000CF53061BC42D16303EA04010CF51263CF
:101DE8001CD251B10246022442F81C3F0CF5326164
:101DF800BC42D1630CF5146310D2111D5360023438
:101E0800083203F1200503F50076BC4203F5087398
:101E1800CE634D60D36305F12003EED3C0F814B050
:101E2800C0F8CC90B8F1000F40D00CF5A0614FEA93
:101E38004815A5F1200402466D180CF5A463AB42C1
:101E480042F8901FC4F340140FD034B1024642F850
:101E5800943F0CF5A863AB4207D003F1200453600C
:101E6800403394600832AB42F7D10CF580514FEA09
:101E78000838A8F58054024688440CF500534345B9
:101E880042F8D01FC4F3003410D034B1024642F8EF
:101E9800D43F03F58053434508D003F5805453607D
:101EA80003F50053946008324345F6D1C0F80CA1FD
:101EB8000020BDE8F00F70474FF4A069194BA0F857
:101EC80006904FF00C080627DFF864A0DFF864904E
:101ED800DFF864B0144AC17280F8008047709C46ED
:101EE800C36002616DE74FF0080804274FF0A04374
:101EF800C1724FF4A074022180F800804770C4803A
:101F08000172DFF838A0DFF83890DFF838B0074AF8
:101F18009C46E5E74FF4606A4FF488694FF4806B9C
:101F2800BC467BE70000044000080440000800505D
:101F3800000E04404004044000040440000E005019
:101F4800400400500004005038B5037A0025012BE6
:101F5800044637D050F80C3FD96841F04002DA60A7
:101F6800FFF780FE94F808C0617ABCF1030F14BF34
:101F78004FF480324FF4403242F4301309B142F446
:101F88007013E16814208B6301F09FFDE36894F8F7
:101F980008C0DA68BCF1030F08BF42F48032DA6087
:101FA800207A03283BD094F803E0BEF1010F07D153
:101FB800E3689A68052161F3440242F020009860C2
:101FC800002038BDC268417A936B65F3104309B1AC
:101FD80043F480139363D1686FF386116FF39651BE
:101FE80041F010036FF3C3036FF3C7136FF351434B
:101FF8006FF3D343D36004F10C00FFF733FEE078AE
:102008000128DDD1052060F34405E26845F020058C
:10201800956094F803E0BEF1010FC9D0D0E7196BC1
:10202800012262F39B616FF3D75141F080552D2057
:1020380060F316451D63C82001F047FDE36845F4C9
:1020480000051D63C82001F040FDACE7C36898682F
:1020580040F001029A600020704700BFC36898688A
:1020680020F001029A600020704700BF00B583B0DD
:1020780000230193019A114B42F020020192019A28
:1020880061F38A120192019AC1680A610A69019290
:102098000AE00A6901920198013B10F0200F07D06D
:1020A8000A69013B019203D0019810F0200FF0D18A
:1020B800032001F000FD002003B000BD400D030027
:1020C80000B583B000230193019A0F4B42F0100131
:1020D8000191019AC1680A610A6901920AE00A69D4
:1020E80001920198013B10F0100F07D00A69013BDB
:1020F800019203D0019810F0100FF0D1032001F0E5
:10210800DAFC002003B000BD400D0300C26808B52A
:10211800D36801296FF35D736FF39E7308D009B913
:1021280043F080433220D36001F0CFFC002008BD8B
:1021380043F000533220D36001F0C7FC002008BDF3
:10214800C368586900F00100704700BFC068436960
:1021580013F0010F14BF002001207047C3685869AD
:1021680000F00100704700BFC3685A6998691040C1
:10217800704700BFC3685868704700BF03691A6892
:1021880061F301021A607047C36800224FF0FF3103
:102198009A615961596059610A49996190F803C077
:1021A8009869944514BF1146102141F4872C4CF0CE
:1021B800081141F4401C20EA0C0040EA0C01996126
:1021C8001046704700080080F8B5D0F80C51026935
:1021D800002129600446106861F3CC2010600B468A
:1021E800E17A012958D010212046FFF73FFF204609
:1021F800FFF766FF256900224FF0FF302A616A6108
:10220800A861EA616378002B31D004F11400174605
:10221800FF2650F8043F1968C1F3076E0EF0800CD2
:102228005FFA8CF1002918BF4FF0904119601F61C7
:102238009E60637801329342EBD8C3B1002204F167
:1022480050001746FF2650F8043F1968C1F3076E7F
:102258000EF0800C5FFA8CF1002918BF4FF0904106
:1022680019601F619E60637801329342EBD82B6935
:1022780043F480702861E278012A08D140220320C3
:1022880062F38A0040F4803162F3594129632046A1
:10229800FFF77AFF0020F8BD1668E068C0278025A0
:1022A8004FF4800167F30F0346F00306166065F3E9
:1022B8001F4365F30F014FF4A07245628162C0F8B5
:1022C800043162F30F036FF31F43C0F80831C0F8FD
:1022D8000C3188E700698368C3F341035A1E022A58
:1022E80004D8034AD11811F8010C7047032070472D
:1022F800F8FF00080369826998681168C0F3410013
:10230800022808D06FF30A011160596841F48072FD
:102318005A6000207047032060F30A011160596871
:1023280041F480725A600020704700BF70B44B7847
:102338000022012B27D00C7800EB840C012515FA1C
:1023480004F3DCF8544063F31F422368C3F3072502
:1023580005F0800C5FFA8CF575B98E68CD78B1F808
:1023680006C066F30A0365F393436CF3995343F08D
:10237800805343F4004121600069C1690A43C26186
:10238800002070BC70470C7800EB8405A34063F311
:102398000F02AC69D9E700BF30B44A780023012A9C
:1023A8001C4614D0097800EB810C012515FA01F2BE
:1023B800DCF8541062F31F4400696FF3CF330B60ED
:1023C800C36923EA0404C461002030BC704709785B
:1023D80000EB81058A4062F30F04A969ECE700BFAE
:1023E800F0B44B78012B41D091F800C04E6900EB56
:1023F8008C035B6D1C681A69F6B18F68F519013D8D
:10240800B5FBF7F5AD05AD0D65F3DC4207FB05F54A
:1024180065F312021A61C278012A17D0CA78012A14
:102428001ED091F800C000EB8C0144F00444486DC4
:1024380004600020F0BC70478D6865F31202012526
:1024480065F3DC421A61C278012AE7D10B780A6980
:1024580000EB830CDCF854305A61CA78012AE0D1C9
:102468004B79002B72D044F00054DAE70D784A69B2
:1024780000EB8504A5692E682C69002A61D08B6859
:10248800CF7802EB030C0CF1FF3C62F31204BCFBA7
:10249800F3F363F3DC44012F08BF67F35E742C6128
:1024A800C578012D5FD0CB78012B52D062B103697A
:1024B8000C785D6B012717FA04F42C435C6391F8E0
:1024C80003C0BCF1010F44D00D7800EB850C46F039
:1024D8000446DCF818301E60CD78012DA9D1C478E7
:1024E800CB680978002CA4D194B2E21C00EB8100DF
:1024F8009210D0F8D0409CD053F8041B561E012AE5
:1025080006F001062160284693D02EB153F8041B2B
:102518000220824221608CD01946023051F8045BB7
:1025280025605D680B1D8242256082D01946023005
:1025380051F8045B25605D680B1D82422560EBD174
:1025480077E762F3120463F3DC44A8E744F08054AD
:1025580067E70569AB6813F4807F0CBF46F0005647
:1025680046F08056B0E70D780C6900EB850CDCF876
:1025780018305C61A3E700BFF0B44B78012B82B040
:102588002FD091F800C04E6900EB8C04636D1A6877
:102598001D690095FEB18E689DF800509DF80240B7
:1025A8004E6166F30605012666F3C4048DF80050F3
:1025B8008DF80240009C1C61C378012B41D091F832
:1025C80000C000EB8C0042F00441426D1160002015
:1025D80002B0F0BC70479DF800509DF802408E682C
:1025E800DFE782694C69156816690096002C30D0BF
:1025F8008B689C4242D99DF800404B6163F3060406
:102608008DF800409DF802C0012464F3C40C8DF8D5
:1026180002C0009B1361C378012B27D045F0044307
:102628001360C278002AD2D14A69002ACFD0036940
:102638000A78596B012010FA02F242EA0100586345
:10264800C5E70B780C6900EB830CDCF854305C614F
:10265800B5E79DF800709DF8026064F3060763F320
:10266800C4068DF800708DF80260D2E70B780C690B
:1026780000EB830CDCF818305C61CFE79DF8003084
:1026880064F306038DF80030BCE700BF4B78012BDC
:102698000AD0097800EB810CDCF854301A6842F44F
:1026A80000101860002070470B7800EB83029269D5
:1026B8001368C3F3076C0CF08000C1B209B143F092
:1026C800804343F4001111600020704791F801C065
:1026D8000B78C978BCF1010F00EB830C0CBFDCF858
:1026E8001820DCF85420881E1368C1B26FF35553C4
:1026F800012998BF43F0805313600020704700BF42
:1027080003699A69D96901EA0200000C704700BFA1
:1027180000EB810C0269DCF854108B685069184092
:10272800704700BF02699169D36901EA030080B26A
:10273800704700BF82B0012200230021009362F39A
:10274800C4011823C0228DF803208DF802108DF8DB
:102758000030436D00991961C278012A06D100F54D
:10276800B96159614FF080201A68186002B070474B
:10277800D0F8143110B50446DBB103699A6812F039
:10278800010F16D0817A41B1D0F80C21D0F80C0194
:102798006FF341026FF300020260596841F00102D1
:1027A8005A60052001F091F92369586820F0010169
:1027B800596010BD837A6BB10269916811F0010FFD
:1027C80008D0D0F80C31D0F80C016FF341036FF347
:1027D80000030360704700BF70B5437801220446C8
:1027E80080F8122163B100F114020023FF2152F88E
:1027F800045FD06BA9608160607801339842F6D895
:10280800236900224FF0FF311A6120465A61DA61CC
:102818009961FFF755FC20461021BDE8704025E47A
:102828004B78012B1AD00B7800EB8300426D1168AE
:10283800C1F3074000F0200C5FFA8CF35BB900F09D
:1028480002015FFA81FCBCF1000F0CBF4FF440504D
:102858004FF4005070474FF480507047097800EBF0
:10286800810CDCF818301868C0F3074000F020022B
:10287800D1B239B900F00200C2B2002A0CBF302030
:10288800202070471020704770B44D78012D16D065
:1028980091F800C000EB8C06B2F5805F756D2C686E
:1028A800264619D0B2F5005F13D0B2F5405F18D0B4
:1028B80012B962F3CF3634462C6070BC70470B787F
:1028C80000EB8304102AA5692C68264618D0202A14
:1028D80005D144F00064EFE744F40014ECE7302A33
:1028E800E6D1C4F3074C0CF02003DAB222B944F065
:1028F800806040F08024DFE700224A7170BCE5E682
:1029080070BCC3E62DE9F0410446FFF73BFA667850
:102918000127002184F8127184F81311002E00F0A9
:102928009A80731E4FF0400EB74203EA070284F8FC
:10293800197184F81811A4F81E1184F81B11C4F831
:1029480020E1C4F82411C4F82C11384604F12803F6
:1029580034D292B10220B04283F8197183F8187109
:10296800A3F81E7183F81B11C3F820E1C3F82411E2
:10297800C3F82C1104F1500320D2451C83F8180128
:10298800A3F81E01023083F8197183F81B11C3F8EC
:1029980020E1C3F82411C3F82C1183F8417183F89E
:1029A8004051A3F8465183F84311C3F848E1C3F8EE
:1029B8004C11C3F854115033B042DED30120002229
:1029C8004027711EB04284F8712384F87023A4F85C
:1029D800762384F87323C4F87873C4F87C23C4F886
:1029E800842301EA000104F1280334D291B183F869
:1029F8007003A3F876030220B04283F8712383F8AA
:102A08007323C3F87873C3F87C23C3F8842304F1D1
:102A1800500320D2451C83F87003A3F876030230D4
:102A280083F8712383F87323C3F87873C3F87C237E
:102A3800C3F8842383F8992383F89853A3F89E5303
:102A480083F89B23C3F8A073C3F8A423C3F8AC236B
:102A58005033B042DED32046FFF700FB2046FFF795
:102A680073FA00212046FFF751FB2046FFF7ACFB25
:102A78002046BDE8F041FFF7E9BA00BF38B501F0DC
:102A88007F05CCB205EB850100EBC10114F0800F86
:102A980014BF01F58C7101F55C71EDB2E4090D709C
:102AA8004C708A60CB7004B1CD80022B01D1002319
:102AB8000B71FFF73BFC002038BD00BF01F07F021F
:102AC80008B5CBB202EB820113F0800F00EBC10115
:102AD80014BF01F58C7101F55C71DB090A704B704C
:102AE800FFF75AFC002008BD01F07F01F8B501EBA3
:102AF8008105EC0005190027CEB285F8706385F8CA
:102B0800717390F803E0C5F88433BEF1010F04F542
:102B18005C7408BFF6B2C5F87C23C5F8887300EB6F
:102B2800040108BFC5F880231EB1FFF759FC002037
:102B3800F8BDFFF721FD0020F8BD00BF70B501F01A
:102B48007F0505EB8504E100441801F58C768119B1
:102B5800C4F824210126C4F82821002284F8196128
:102B680084F81851C4F83021C4F82C311DB1FFF78E
:102B780037FC002070BDFFF7FFFC002070BD00BFD0
:102B8800CAB212F0800F10B511D101EB810E00EB23
:102B9800CE0C0CF55C7301F07F01D2090124197089
:102BA8009C705A701946FFF771FD002010BD01F0A6
:102BB8007F0101EB810400EBC40303F58C73ECE7A0
:102BC800CAB212F0800F10B511D101EB810E00EBE3
:102BD800CE0C0CF55C7301F07F010024D20919704A
:102BE8009C705A701946FFF771FD204610BD01F020
:102BF8007F0101EB810400EBC40303F58C73ECE760
:102C080011F0800F08B503D1FFF75AFA002008BD6C
:102C180001F07F01FFF72AFA002008BD03690022AE
:102C2800186861F30A1202431A60704703695A6808
:102C380003206FF341025A6000F047BF03695868E8
:102C480040F0020203205A6000F03FBF11F0800FED
:102C580007D101EB810100EBC10C0CF55C71FFF7AA
:102C6800DFBD01F07F0303EB830200EBC20101F536
:102C78008C71F4E711F0800F07D101EB810300EBB1
:102C8800C30101F55C71FFF7FFBD01F07F0C0CEB90
:102C98008C0300EBC30101F58C71F4E72DE9F04FCB
:102CA80083B00646FFF752FA10B903B0BDE8F08FBB
:102CB8003046FFF759FA81460028F6D0C0F307419D
:102CC80001F00800C0B2002840F01881C9F3074E8F
:102CD8000EF0040C5FFA8CF3002B66D109F0020C9D
:102CE8005FFA8CF313B1F26802215161C9F30761ED
:102CF80001F0800C5FFA8CF393B1B07A002840F0B1
:102D080004823369A84A5968106821F001015960A2
:102D1800826930469047F0684FF0004141610120D8
:102D2800C9F3072101F0080C5FFA8CF3002B40F07F
:102D3800CB8109F0080C5FFA8CF2002A40F0BA81C6
:102D480009F0100C5FFA8CF3002B40F08D81C9F369
:102D5800072101F0100C5FFA8CF3002B40F04A8138
:102D6800C9F3072101F0200C5FFA8CF3002B40F027
:102D78002881C9F3074202F0100C5FFA8CF1002990
:102D880040F01481C9F3074101F0200C5FFA8CF37D
:102D9800002B8AD0844A116830460B6A9847F0683D
:102DA8004FF40012426101207FE73046FFF7BAFC7A
:102DB8008246002800F0A080374634464FF0000BCA
:102DC800CDF80490B0461AF0010F00F08A80D8F8C8
:102DD80010305FFA8BF619695A6B08EB860C32FAD9
:102DE80006F5DCF81800ED0105F0FF02806842EAFC
:102DF800010909EA0005EDB215F0010F40F0B781AD
:102E080005F004095FFA89F313B1BA6904259560DE
:102E180005F00800C1B211B1BB6908259D6005F035
:102E2800100C5FFA8CF212B1B96910258D6005F0AB
:102E380020095FFA89F010B1BB6920259D6005F073
:102E4800400C5FFA8CF212B1B96940258D6005F02B
:102E580002095FFA89F010B1BB6902259D6005F08F
:102E68008005EDB2002D3CD0D4F82C11D4F83001F7
:102E7800BB69D4F82021D3F818900D1A954234BFB5
:102E8800AC4694460CF1030C1FFA89F9B9EB9C0F78
:102E980025D9814223D911B3D4F8241106E0D4F8F6
:102EA8002C51AA421BD2AD1AD4F82021954228BF32
:102EB8001546ABB232464046FEF716FFD4F830212D
:102EC800BB69D4F82411AA18C4F8302198694919A3
:102ED80080B20335B0EB950FC4F82411DFD88026F3
:102EE8009E60283404375FEA5A0A02D00BF1010BBE
:102EF80069E7DDF8049046460120EFE63046FFF723
:102F0800FFFB044600284DD0DFF89CB03546B0469C
:102F18000027CA4605E00435640808F1280840D0AF
:102F2800013714F0010FF6D05FFA87F930464946A9
:102F3800FFF7EEFBC0B210F0010F13D06B6D01204C
:102F48009860F278012A00F04281DBF800103046E0
:102F58000B684946984796F80390B9F1010F00F0BD
:102F68002981012000F002095FFA89F212B16B6D24
:102F78000220986000F0040C5FFA8CF111B16A6DC0
:102F88000420906000F0080E5FFA8EF00028C2D08E
:102F9800DBF8001030468A6890476B6D082199600D
:102FA800B9E7D146012091E6340100208D48026836
:102FB8003046D1698847F3684FF480105861012082
:102FC800E0E63046FFF796F9F4683046E468FFF724
:102FD80081F9032800F0C180012040210523B07049
:102FE800B18063F38D24F3684FF40052DC60012054
:102FF8005A61BEE630694368002423F0010242604A
:1030080021463046FFF732F875786DB106F11402A3
:103018002346FF2152F8045FD06BA960816096F8BF
:1030280001E001337345F5D30125336965F30F04D6
:103038000F214FF0FF322F2065F31F449A61DC61A6
:10304800596118611A686FF30A121A603046FFF75F
:1030580071FB6449F2680B684FF48050506119693C
:103068003046884728467BE6F3689D6925F01004BA
:103078009C611C6AC4F34342022A04F00F054ED037
:10308800062A11D106F5B9613046082205EB8505F7
:10309800FEF752FE06EBC50CC4F30A14DCF88813DD
:1030A800F3686018CCF88803986940F010029A61B8
:1030B80001204CE64B4802683046D1688847F368DF
:1030C8000820586101203BE64648036830465A69A3
:1030D80090473169F36889684FF400625A61B07AA1
:1030E80088B111F0010F0ED0D6F80C313E4A19689C
:1030F80041F001001860196841F003001860136975
:1031080043F006011161012013E6D6F80C31D6F818
:103118000C216FF341036FF300031360F1E547F6E9
:10312800F07204EA02010029BED005EB850E06EB19
:10313800CE05C4F30A142246D5F87C133046FEF7B0
:10314800FBFDD5F87C23D5F88813F36810196418AB
:10315800C5F87C03C5F88843A6E700224FF4007E33
:103168000920B270A6F804E060F38D243BE71D4DFA
:10317800586B2968BA69012505FA0BFE20EA0E008A
:1031880058634B68956040463146984798F80390D5
:10319800A9457FF435AEBBF1000F04D198F811C1F1
:1031A800BCF1040F01D04D462AE64046FFF7C2FAAB
:1031B8004D4625E627B996F811E1BEF1050F01D075
:1031C8004846CFE63046FFF7B5FA4846CAE61A69D8
:1031D800D8F87813C2F3120CCCEB0103C8F8883383
:1031E800B3E600BF3401002000ED00E0D0F8E4159C
:1031F80010B5044608698047032384F8123100207B
:1032080010BD00BFD0F8E415042208B580F81221DB
:10321800CB689847002008BD08B5D0F8E035DB69D1
:1032280003B19847002008BDD0F8E01508B50B6A2F
:103238009847002008BD00BFD0F8E01508B54B6AD4
:103248009847002008BD00BF002110B50B46044672
:103258004022FFF713FC8021402200232046FFF77D
:103268000DFCD4F8E415A078012284F812214B68EB
:103278009847002010BD00BF10B582B069460446CB
:1032880000F03CF99DF8001001F01F03012B14D049
:10329800022B0DD03BB1204601F08001FFF770FCF6
:1032A800002002B010BD2046694600F0F1F9F7E7AA
:1032B8002046694600F060F9F2E72046694600F0CA
:1032C800CDF9EDE738B5044629B990F81131022B4C
:1032D8000DD0002038BDD0F8E0255369002BF8D078
:1032E80090F812C1BCF1030FF3D19847F1E7D0F879
:1032F8003421D0F820319A4210D9C1780129D0F868
:103308002411C3EB020208BFC918C0F8342108BF52
:10331800C0F8241192B200F0A5F8DAE7D0F8382105
:10332800B2FBF3F503FB15255DB9934209D8D0F834
:103338003C319A4205D22A4600F094F8C4F83C5130
:10334800C7E7D4F8E005C36823B194F812C1BCF10B
:10335800030F03D0204600F0B9F8BAE72046984793
:10336800F8E700BF10B5044629B990F81131032BCE
:103378000DD0002010BDD0F8E0259369002BF8D0BF
:1033880090F812C1BCF1030FF3D19847F1E7D0F8D8
:103398008C23D0F878339A4212D9C1780129D0F811
:1033A8007C13C3EB020204BFC918C0F87C13C0F831
:1033B8008C239A4228BF1A4692B200F06DF8D8E7DB
:1033C800D0F8E0351B6923B190F812C1BCF1030FA6
:1033D80003D0204600F06AF8CBE79847F9E700BF2A
:1033E8002DE9F041069D044616461F46884600F022
:1033F800FBFA20464146C4F8E075C4F8E455C4F821
:10340800E865FFF77FFAD4F8E40503689847204693
:10341800BDE8F04100F03ABB00207047D0F8E03535
:1034280010B504461A689047D4F8E40583689847AD
:10343800002010BDD0F8E02508B553689847002053
:1034480008BD00BF13460A46022110B5C0F838313E
:10345800C0F8343180F811110021FFF76FFB00200C
:1034680010BD00BF10B50C46134600212246FFF7D9
:1034780065FB002010BD00BF13460A46032110B5A6
:10348800C0F89033C0F88C3380F811110021FFF791
:103498002BFB002010BD00BF10B50C4613460021C1
:1034A8002246FFF721FB002010BD00BF38B50021E0
:1034B800042504460A460B4680F81151FFF73EFBE7
:1034C8002046FFF737F9002038BD00BF38B5002186
:1034D800052504460A460B4680F81151FFF704FB00
:1034E8002046FFF727F9002038BD00BF01EB810215
:1034F80000EBC201B1F88803704700BF90F8C825F7
:103508000A7090F8C9C581F801C090F8CB3590F8D9
:10351800CA251B0203EB020CA1F802C090F8CD35B6
:1035280090F8CC251B0203EB020CA1F804C090F81C
:10353800CF3590F8CE251B0203EB020C1FFA8CF254
:103548000123CA80C0F83C2180F81131704700BFC0
:1035580010B591F90030002B044609DBC98839B150
:103568000021FFF70DFB2046BDE81040FFF7E2B849
:103578008021FFF705FBF6E738B54B780A79012B70
:103588000C4605460ED003D3032B17D0002038BDB8
:1035980090F81231022B09D0032B3CD0FFF7D8FF4B
:1035A800002038BD90F81231022B1FD1002AEDD02F
:1035B800802AEBD01146FFF7E3FAE7E790F81231DB
:1035C800022BF3D0032BE9D14B882BB922B1802AE7
:1035D80002D01146FFF7D4FAD5F8E01528468A68D4
:1035E800214690472846FFF761FFCFE7032BD5D147
:1035F8004B88002BCAD152B1802A08D01146FFF758
:10360800DFFAD5F8E01528468A682146904728460B
:10361800FFF74CFFBAE712F0800F0ED102EB8202DF
:1036280000EBC20393F872338BB90B4A1360284638
:1036380009490222FFF706FFA8E702F07F0E0EEB0A
:103648008E0C00EBCC0090F81A31002BEDD002481C
:1036580001210160EBE700BF380E002038B590F873
:103668001231032B04460D4603D0FFF771FF0020EB
:1036780038BD0A79012AF8D8D0F8E0259368984728
:10368800E8880028F3D12046FFF710FFEFE700BFD6
:1036980070B54B7882B00C460546092B13D8DFE885
:1036A80003F0182A1240125774128B05A1789B4E0A
:1036B8000129317107D890F81231022B00F03F81AF
:1036C800032B00F0CD802146FFF742FF002002B017
:1036D80070BD90F81231991E0129F4D8D0F8140160
:1036E80000287ED18D4B0120D86028468C490122C4
:1036F800FFF7A8FEEAE790F81221911E0129E2D807
:10370800B4F802C0BCF1010FE0D1D0F8E0150022F6
:103718008B68C0F81421214698472846FFF7C6FE53
:10372800D4E76388012B00F01C81022BCED1A3883B
:1037380013F0FF0FCAD101691C0A4A68631E1046BC
:10374800042B00F2A480DFE803F0A7B1ACB69E001A
:10375800A388002B40D1E288002A3DD190F812E1DD
:103768006288BEF1030FAED002F07F0480F81341E7
:103778002146FFF753FA2846FFF798FE002C00F081
:10378800EC80022085F81201A0E76288110A4B1E1E
:10379800062B98D801A151F823F000BF473800083C
:1037A80009380008F3370008CF360008CF3600087C
:1037B800CF360008CF360008E288012A83D190F876
:1037C8001231022B00F0B780032B7FF47CAF00F599
:1037D8008871FFF737FE79E728462146FFF7B8FEDC
:1037E80074E74E490322CA607FE75FFA82FCBCF1A6
:1037F800050F3FF668AFDFE80CF095877E756C63C0
:10380800D0F8E01580788B6A0DF1060198470222FE
:1038180042700146C5F8EC05BDF80630002B3FF4B0
:1038280055AFE288002A3FF451AF9A4238BF134699
:1038380028461A46ADF80630FFF704FE46E7D0F8EA
:10384800E83580781A680DF106019047E288402A29
:10385800014603D095F812010128DDD10823E1E7DC
:10386800002900F0898090F81011012908D0FFF78D
:10387800E1FD3179284685F81011FFF7CFFD28467C
:10388800FFF714FE22E7052363F3061002464A6099
:103898002846FFF70BFE19E7012262F306100246DD
:1038A800F5E7032464F306100246F0E7022363F306
:1038B80006100246EBE7042262F306100246E6E72A
:1038C800D0F8E81580788A690DF10601904701461D
:1038D800A2E7D0F8E83580785A690DF106019047DB
:1038E800014699E7D0F8E81580780B690DF10601D3
:1038F8009847014690E7D0F8E8258078D3680DF11D
:1039080006019847014687E7D0F8E81580788A6865
:103918000DF10601904701467EE700BF380E0020F2
:10392800440E0020D0F8E83580785A680DF1060179
:103938009047014670E71649FFF784FDC6E600295F
:103948009ED00121032380F8101180F81231FFF76F
:1039580065FD2846FFF7AAFDB8E6012185F8121192
:10396800B4E6D0F8E015C0F814318A6821469047CB
:103978002846FFF79BFDA9E6022280F8122180F86D
:103988001011FFF757FD2846FFF790FD9EE600BF90
:10399800400E002030B4F8B10378002B1ED0044646
:1039A800002314F8015F0133DBB2002DF9D15C006C
:1039B800A31CDCB2138003220C704A7002785AB13F
:1039C800022300255C1CE4B2CA540D5510F8012FDF
:1039D8000233DBB2002AF5D130BC704702242346FB
:1039E800E8E700BF7047704737B501200146FDF78B
:1039F80093FC4FF4D8530093022303258DF8043029
:103A08006946023B20488DF806308DF807308DF85E
:103A18000550FDF7C1FE08210A221B48FDF7B4FF37
:103A280009210A221848FDF7AFFF0B210A22164880
:103A3800FDF7AAFF0A220C211348FDF7A5FF012470
:103A48004FF480636946104800938DF806408DF85E
:103A580007408DF80550FDF79FFE0A210A460A48DF
:103A6800FDF792FF21464FF48040FDF78DFC802042
:103A78002146FDF75FFC4FF080502146FDF7BCFC66
:103A88002046FDF7F7FD3EBD0000024007B54FF4A4
:103A9800C06000F0F5F843238DF80430383B8DF80A
:103AA8000530083B8DF8063001A8023B8DF8073039
:103AB80000F0F0F80EBD782307224343B3FBF2F37E
:103AC800073A01329A42FCD970474FF47A73584347
:103AD800F1E700BF002070470020704721280FD170
:103AE800084B1A680A701A68120A4A705A888A704B
:103AF800DA78CA701A790A715A794A719B798B7186
:103B0800002070473801002070B500230CE0084AF7
:103B1800C65C1468074D2E5501340133B4F5006FA7
:103B2800146001D1002414608B42F0D1002070BDD4
:103B38002C0E0020D02100200C4BF0B51D6800236E
:103B48000EE00B4AC75C14680A4E37550134802CC6
:103B5800146001D1803C14601268AA4204D0013379
:103B68008B42EED10020F0BD0220F0BD842A002057
:103B7800982A0020042A002007B502AB012103F887
:103B8800010D1846FFF7C0FF0EBD002100E001310E
:103B9800435C002BFBD1B7E7B6E7044B1868044B2E
:103BA8001B68C01A18BF0120704700BF982A002060
:103BB800842A00200A4B0B491A68096891420BD0E5
:103BC80009498A5C02701A680132802A1A6005D194
:103BD800803A1A6001207047002070470120704722
:103BE800842A0020982A0020042A0020F0B51F4AC1
:103BF8001F4C136821689942264608D133E00133E7
:103C0800802B08BF0023994201D111602BE0194C89
:103C1800E55C0D2D254603D8E456174FA740EED492
:103C280013600023EC181168615CC15411680133FA
:103C38005C18802C08BF4B42346859188C4212D04B
:103C48006C5C0D2CEED80B4C61560B4C8C40E9D5B6
:103C58000021C154116859187F29116004D9034AF9
:103C68008039116000E000231846F0BD842A002046
:103C7800982A0020042A002000002480704700BFF2
:103C880040F0BE61024B41F42020D860704700BF6D
:103C980000ED00E0C37870B463B9027801215009DF
:103CA80002F01F0311FA03F22030164941F82020D0
:103CB80070BC7047144B4678DC6885780178E2431D
:103CC800C2F30222C2F1040C5FFA8CF416FA04F46F
:103CD8000F2656FA02F2A3F5406302EA050CE4B295
:103CE8004CEA040201EB030C12018CF80023007863
:103CF800012200F01F03410912FA03F0014A42F8B9
:103D08002100D5E700E100E000ED00E021F0604C83
:103D18002CF07F02024B42EA00019960704700BF15
:103D280000ED00E029B9054B1A6922EA0001196182
:103D38007047024B1A6910431861704700ED00E0A4
:103D4800044B1A6804280CBF42F0040222F0040253
:103D58001A60704710E000E0064A0B0910B501F040
:103D68000F01D45C0346525C03F8014B4270581CA7
:103D780010BD00BFFCFF0008836D10B503F8011BE0
:103D88008365B0F95C300446002B03DD006BFFF758
:103D9800E3FF2063B4F85C300133A4F85C3010BD55
:103DA80003460A0A03F8011B42700A0C090E5A70EE
:103DB800997070478378C2781B0443EA02630278DB
:103DC8004078134343EA0020704710B54AF2A553E0
:103DD800002202E0845C01321B198A42FADB03EB01
:103DE800134303EB134303EB132303EB1323D8B25F
:103DF80010BD00F140038365002343870387A0F8C3
:103E08005C304AF2A55343638223006380F83C3058
:103E180070470A2938B504463CD1036B03F8011BE7
:103E2800458F0363023DADB290F8403015F0010FA5
:103E3800458780F83D3080F85E3008D0FFF7D9FF1D
:103E4800284B6FF003001A6801321A6038BD2DB292
:103E5800042D08DCFFF7CDFF224B6FF001005A68F4
:103E680001325A6038BD6D10A0F85C502DB2403058
:103E78002946FFF7AAFF651995F8403083422CD0F0
:103E88002046FFF7B6FF174B4FF0FF309A68013214
:103E98009A6038BD438F144A13F0010F836D04D123
:103EA8005218127C12011A7007E05218107C1A7806
:103EB80040EA020203F8012BA365236B03F8011BF8
:103EC8002363638F013363871BB2252B07DD2046ED
:103ED800FFF78FFF6FF0020038BD012038BD0020CA
:103EE80038BD00BF480E0020FCFF00080A2970B545
:103EF80004460D4602D07D2949D140E090F83C3077
:103F08007D2B44D0856D00F14003013DED1AAEB222
:103F1800022DA0F85C6008DCFFF76BFF224B6FF006
:103F280001005A6801325A6070BD172D08DDFFF78D
:103F380060FF1D4B6FF00200DA680132DA6070BD75
:103F480018462946FFF741FF651995F84030834226
:103F58000BD1236B76000136002266871A7094F81D
:103F68004030012084F83D3070BD2046FFF741FF06
:103F78000D4B4FF0FF309A6801329A6070BD90F88F
:103F88003C307D2B05D1FFF7F7FE822501E0FFF7D6
:103F9800F3FE236B04F12D02934201D3023B23630A
:103FA80084F83C50002070BD480E002010F0010F2E
:103FB8000BD110F0040F0BD1064B00EA0303002BC2
:103FC8000CBF18466FF0010070474FF0FF30704784
:103FD80001207047F8FF1F0070B504460E4600F137
:103FE8004005FFF706FF002310E013F0010F1B49FF
:103FF80004D18A18127C12012A7006E08A182878DF
:10400800127C40EA020205F8012B0133F25C22B16E
:104018000A2A02D0302BE8D117E02F2B15DC04F147
:104028004003ED1A94F84430A4F85C50082B0FD8DC
:104038002DB205339D420ED194F84000FFF7B6FF2C
:10404800002818BF6FF0020070BD6FF0040070BD4B
:104058004FF0FF3070BD6FF0010070BDFCFF00082D
:10406800F8B5044646181046194615461F46FFF788
:10407800ACFE2346002215E0A95C0A2901D07D295F
:1040880007D119464FF07D0C01F801CBB14238BF7A
:104098000B4615F802C0194601F801CB0132B142AE
:1040A80038BF0B46BA42E7DB0A2801D07D2806D183
:1040B8001A467D2102F8011BB24238BF13461A4640
:1040C80002F8010BB24228BF1A460A2302F8013B44
:1040D800101BF8BD04392DE9F041044600EB010836
:1040E8001046B2F91C101646FFF76FFE002507466A
:1040F800204603E0715DFFF72FFE0135404503D2EE
:10410800B6F91C309D42F5DB3946FFF725FE0A2338
:1041180000F8013B001BBDE8F08170B50446086853
:104128000E46FFF743FF00283DDBA37F2370756829
:1041380005F00F0515D03168601C41F00101FFF74B
:104148002FFE082D2AD86571002304E0F118097A9A
:10415800E21891710133AB42F8D10633A3830020F2
:1041680070BD082D1DD8EB1CA383336813F0020F14
:1041780009D1034604E0F118097AE218D170013335
:10418800AB42F8D100E0092533681A0C1B0EA37066
:1041980022F01F0343EA4505657070BD4FF0FF30FC
:1041A80070BD6FF0010070BD38B5837F044600F81C
:1041B800013B0D460968FFF7F3FD6A6802F00F023C
:1041C800082A0DD86271002304E0E818007AE11883
:1041D800887101339342F8D10633A383002038BD98
:1041E8004FF0FF3038BD70B54B780D4613F0010124
:1041F8000446AE8B19D036B2052E3BDD681CFFF79E
:10420800D9FD20F0010020606A79082A35D8931D6D
:104218009E42626034D1002304E0E8184079E11836
:10422800087201339342F8D322E032B2022A2ADD1F
:10423800AA7843EA02235A095B0803F00F035205E0
:10424800092B0260436021D803D142F002020260C8
:104258004160626836B2D31C1BB29E4219D100235A
:1042680004E0E818C078E118087201339342F8D1E5
:10427800002070BD4FF0FF3070BD6FF0010070BDC1
:104288006FF0020070BD6FF0030070BD6FF00400A6
:1042980070BD6FF0050070BD70B5B1F91C600446C3
:1042A800052E0D4615DD481CFFF784FD20606A7950
:1042B800082A11D8931D9E4211D16260002304E0A0
:1042C800E8188079E118087201339342F8D3002086
:1042D80070BD4FF0FF3070BD6FF0010070BD6FF022
:1042E800020070BDF8B5364D0C462B681646002BFB
:1042F80010DC2F1D39464FF4807204F0E5F90028D0
:10430800286054D055DB2F4B1F60D5F80471C019B5
:10431800C5F8040194F83E30012B28D00FD3022BA6
:104328004AD13FE0264A013B1360264A20461368DB
:1043380013F8011B1360FFF7D9FD071E10D12B6876
:10434800002BEFDC31E01E4A013B13601D4A20467A
:10435800136813F8011B1360FFF75BFD071E06D0F7
:104368002CDD304604F14001FFF73DFF16E02B68D5
:10437800002BE8DC19E0124A013B1360114A204681
:10438800136813F8011B1360FFF743FD071E09D0DC
:1043980014DD304604F14001FFF77EFF00280DDAF6
:1043A800071F0BE02B68002BE5DC002706E007461B
:1043B80004E06FF0030701E06FF002073846F8BD2C
:1043C8005C0E00205401002070B5074C05460A46D3
:1043D80020466421FFF77EFE214602462846BDE8B6
:1043E800704004F07FB900BF640F002010B5B1F928
:1043F8001C309AB02F2B04460A4609DC642101A818
:10440800FFF72EFE01A90246204604F06BF901E0F1
:104418004FF0FF301AB010BD70B50D4695F83E301C
:104428000446012B11460CD002D3022B17D10DE004
:1044380040352846FFF771FE20462946BDE8704002
:10444800D4E740352846FFF768FE03E040352846A4
:10445800FFF7AAFE20462946BDE87040B4E74FF0B2
:10446800FF3070BD30B5044685B010461546FFF7DD
:10447800B3FD002808DB95F83D30204685F85E300E
:1044880029466A46FFF7C8FF05B030BD10B5FE21C2
:10449800044601F026FB20460121BDE8104001F04A
:1044A80020BB10B5FE21044601F01BFB20460C2161
:1044B800BDE8104001F015BB10B5FE21044601F01F
:1044C80010FB20460821BDE8104001F00ABB30B5BA
:1044D80087B00546142268460C4602F083FD28463C
:1044E800214607B0BDE8304001F01BBB70B50D4652
:1044F800FE210446164601F0F4FA15B9A6F180012A
:104508000DE0012D02D1A6F1400108E0022D02D1F3
:10451800A6F16C0103E0032D07D1A6F12C0120467A
:10452800C9B2BDE8704001F0DCBA70BD70B5144680
:1045380000220546FFF7DAFF28462146BDE870400D
:10454800C5E713B5C023044600224FF41651009363
:10455800AC3B01F071FB2046FFF7AEFF2046FFF7AA
:10456800A0FF2046FFF792FF002120460A4602B02E
:10457800BDE81040BAE700000D4B1A6842F0080287
:104588001A600C4B1A6822F07F4242F0AA421A6065
:104598005A6822F470425A609A6822F07F4242F0C8
:1045A8002A429A60DA6822F07F42DA60704700BFD8
:1045B80030380240000C02407047F0B500F13F442B
:1045C80004F57E040126294DA30A16FA03F32F6881
:1045D800DB05DB0D3B432B6011FA06F3032504686A
:1045E8009D40ED4305EA040404601778046807F069
:1045F80003079F40274304468E4044F8047B4768DE
:1046080027EA060646605678476806F001068E4097
:104618003E434660866805EA06068660967887689F
:1046280006F003069E403E438660C6683540C56076
:10463800D678C56806F0030616FA03F32B43072954
:10464800C36002D9083989B22046046A89000F2359
:104658008B4024EA030303621279036A02F00F0213
:1046680012FA01F119430162F0BD00BF303802406F
:10467800003818BF012070470268074B1A6041686C
:10468800064A116081685160C16891601A6842F0F9
:1046980001021A60704700BF8065004084650040D1
:1046A800F8B5894B1A6842F000721A60037A022B37
:1046B80004460CD0032B12D0002B40F0FC8083481A
:1046C800834A0C21FFF779FF80480B210EE08148CF
:1046D8007F4A0921FFF771FF7E48082106E07E48DE
:1046E8007B4A0121FFF769FF7B4800217B4D7C4A0B
:1046F800FFF763FF2B6803F480332B60A07BFFF781
:10470800B7FF000440F00100764B2860764A106835
:1047180010F0010003D0002B40F3D08004E0013BEF
:1047280013F1020FF2D1F8BD607B704DFFF7A0FFC7
:104738000646207BFFF79CFF6D4B36181B68013639
:10474800B3FBF6F66368B6FBF3F66A4B2B60607A48
:104758002F68FFF78DFF47EAC0702860A07A2F689E
:10476800FFF786FF47EA80702860E07A2F68FFF736
:104778007FFF013800F0030047EA00672F60207BC5
:104788002F68FFF775FF013800F0070047EA005768
:104798002F60607B2F68FFF76BFF013800F00F0078
:1047A80047EA00472F60013E2B68B605B60D1E4349
:1047B8002E6055F81C3C23F0FE0345F81C3CE07BBA
:1047C80055F81C6CFFF754FF46EAC01045F81C0C5E
:1047D800207C55F81C6CFFF74BFF46EA801045F823
:1047E8001C0C607C55F81C6CFFF742FF46EA401031
:1047F80045F81C0CA07C55F81C6CFFF739FF46EAFD
:10480800001045F81C0C55F81C3C364A23F00103EF
:1048180045F81C3C344B1B6813F0010F02D1002AE9
:1048280007DC4DE0013A12F1020FF3D14FF0FF30EF
:10483800F8BD314B314D1968314C324841F0807127
:104848001960314B196841F0010119602F4B196843
:1048580041F01041196029682668036841F4600135
:1048680041F0A001296046F0050121602849294C42
:104878000E68256846F0E0460E60274943F000437D
:1048880045EA010143F4F00321600360234B1968F2
:1048980041F002011960196841F0100119601968A6
:1048A80041F0010119601E4B1B6813F0806FFAD0AC
:1048B8000C48801AF8BD6FF00100F8BD0020F8BD63
:1048C8004FF0FF30F8BD00BF403802400000024002
:1048D8000C01010800040240000C02400064004082
:1048E80011010108808D5B00046400401C640040D5
:1048F800CC16002000002301FCED00E020E400E0DD
:1049080004E100E000E100E0001000E01CE400E049
:1049180010E400E014E400E070307000146400401B
:104928000864004070B506460C4608461546114610
:10493800064AFFF742FE01231EB91035AB40236635
:1049480070BD13FA05F5256670BD00BF1601010894
:10495800144A154B10B51060196841F0010119602F
:1049680012494FF0F0740C6020344C60000C203475
:104978008C6040F0F0702034CC6008614FF0FF305C
:104988004861052191800A4A116841F003011160CC
:10499800916841F0070191601A6822F001021A60DB
:1049A80010BD00BFD00F00200066004040660040E8
:1049B80014660040174A93881B2B10B527D8164950
:1049C8000C6813F0010F44F001040C604FEA530423
:1049D80004D0124BE318DB0058600EE00F4BA4B272
:1049E800E318DB004FF0FF31186059600C490123D0
:1049F800086813FA04F404430C6093880133938025
:104A0800054B1A6822F001021A60002010BD4FF60B
:104A1800FF7010BDD00F002000660040C80C0008D1
:104A28001C660040084B9A68D968914209D0511C0D
:104A38003F29996001DD00219960044800EB0210CC
:104A480070470020704700BFD00F0020E00F002003
:104A58000A4BD3F81024D3F8141491420CD0511CEB
:104A68000F29C3F8101402DD0021C3F81014044BF9
:104A7800182000FB0230704700207047D00F00203C
:104A8800E8130020044BD3F89805D3F89C35C01AD6
:104A980048BF103001387047D00F002070B5154C52
:104AA8000FC8D4F89C6504EB0615013605F5B46506
:104AB8000F2E85E80F00C4F89C6502DD0023C4F8BA
:104AC8009C35D4F8A0360B4A0133C4F8A0360A4BFB
:104AD80019680A4B01EA0303B3F1806F07D1D2F8D2
:104AE800980502F5B46303EB0010FFF7C5FDBDE8B8
:104AF8007040C7E7D00F00200864004001000004A0
:104B0800426802F00F02082A10B501DC0AB902E077
:104B18000822072308E000220023C0E9022310BD71
:104B2800C11800240C72013B9342F9DA10BD4368A6
:104B380001F00F0123F00F0319434160704710B5CE
:104B48008160C26008210446FFF7F1FF2046FFF7A5
:104B5800A5FF002805DC034BD3F8A4260132C3F8CF
:104B6800A42610BDD00F0020082A10B5D8BF22EA0D
:104B7800E272044600F10803C8BF082204E011F8F5
:104B8800010B03F8010B013A002AF8DC2046114614
:104B9800FFF7CDFF2046FFF781FF002805DC034B18
:104BA800D3F8A4260132C3F8A42610BDD00F0020E4
:104BB80008B5194A194B1A601A6812F0010F27D064
:104BC8001B6813F0080F164B04D0D3F8A82601323F
:104BD800C3F8A826114A01211160D3F89825521864
:104BE8000F2AC3F8982503DD0D4A0139C2F8981534
:104BF800D3F8AC260132C3F8AC26D3F89825D3F8FD
:104C08009C35934204D0074800EB0210FFF734FDAF
:104C1800024B1B6808BD00BF00010100086400408A
:104C2800D00F002070150020114B124AD968106867
:104C380003EB011210611048006850610F480068CA
:104C480090610F480068D0610E4A106840F020005B
:104C580010604A1C3F2ADA6001DD0022DA600A4B44
:104C68001A6842F001021A60064B1B68704700BFC1
:104C7800D00F0020B0650040B4650040B865004022
:104C8800BC6500400C64004004E200E0284B186852
:104C9800284BD3F8B426013210B5C3F8B426D3F89C
:104CA8001424C3F8B0061824624303F583618C18F2
:104CB80088500021616020499A180968C2F82014B8
:104CC8001E490968C2F824141D490968C2F8281445
:104CD8001C490968C2F82C141B49086840F02000D8
:104CE8000860D96803EB01110969B1F1405F0CD183
:104CF800D2F8241401F00F01042906D1D2F828149F
:104D0800D3F8B8268A18C3F8B826D3F81424013281
:104D18000F2AC3F8142403DD064B0022C3F8142419
:104D28000A4B1A6842F000421A60074B1B6810BD14
:104D3800041000E0D00F0020C0650040C4650040AA
:104D4800C8650040CC6500401064004000E200E007
:104D5800704708B5024BD3F8BC3603B1984708BD75
:104D6800D00F002008B5034BD3F8C03603B19847DD
:104D780008BD00BFD00F002008B5034BD3F8C436D8
:104D880003B1984708BD00BFD00F002008B5034BFA
:104D9800D3F8C83603B1984708BD00BFD00F00202C
:104DA80082B0019002E0019B013B0193019B002B23
:104DB800F9DC02B070477FB51D4B1E4A18601E4BC8
:104DC800196891429CBF1D4D1D601B6888BF002556
:104DD8000A22B3FBF2F20392FA22B3FBF2F2029236
:104DE8002822B3FBF2F30193154B1A6842F008022C
:104DF80004461A60002808BF0624FFF7BDFB75B1FA
:104E080014E0104E4FF4704333600298FFF7C8FF68
:104E18004FF0704333600198FFF7C2FF0135A54298
:104E2800EFD30398FFF7BCFF0025F8E77FBD00BF6D
:104E3800B01600203F420F00D416002000127A005E
:104E480030380240180C024008B5436803F00F03DD
:104E5800082B0BD80268084B02EA030313B112F0BF
:104E6800040F06D0FFF71AFE002008BD4FF0FF30F0
:104E780008BD6FF0010008BDF9FF1F0038B5174BDA
:104E8800174C1A68174842F480421A600C212246CF
:104E9800651DFFF792FB13480D212A46FFF78DFB8E
:104EA80010480E2104F10A02FFF787FB2A460D4835
:104EB8000F21FFF782FB0C4B4FF480521A600B4B0B
:104EC80040F27F321A600A4B1A6842F050021A60A8
:104ED800084B1A6842F010021A6038BD4038024088
:104EE8001B01010800040240180402400038004079
:104EF80024E400E004E100E0024B186800F480506C
:104F0800704700BF1404024070B504460D461646AB
:104F1800FFF7F2FF0028FBD0084B4FF080521A60D1
:104F2800074B084A1D605E6014F8011B11609C6005
:104F3800054B1A6842F040021A6070BD180402401E
:104F4800B41600200C38004004380040154B1B688C
:104F580013F0010F07B520D0134B14491A680868DD
:104F680002F8010B1A605A68013A002A5A600CDCF0
:104F78000F4ADB68116821F0400111600D4A4FF4B7
:104F88008051116063B198470AE01A6901321A61C9
:104F98009A6812F8010B08609A60024B1B6801932B
:104FA8000EBD00BF08380040B41600200C38004081
:104FB8000438004018040240012318B1033813FADA
:104FC80000F0704718467047F8B50346C4891A7848
:104FD800418A9D89008A9E68042A34D8DFE802F055
:104FE8003403111E28006A4A4FF480371760684A54
:104FF800176817F4003FFAD0176827F00107176001
:105008001FE0634A4FF4802717604FF4803717601A
:105018005F4A126812F4003FFAD012E05C4A4FF47B
:10502800803717605A4A126812F4003FFAD008E035
:10503800574A4FF480271760554A126812F4003F08
:10504800FAD0012202E0FEE7524E0022002841D0A9
:10505800002941D0DF897F0803D0042F88BF0824A6
:1050680000E00224B0F5D87F00D9FEE7012800D17E
:10507800FEE7402900D9FEE7012900D1FEE76F1EAF
:10508800BFB20E2F88BF0F251F8A7E435F8AB6FBEB
:10509800F7F6414FBE4200D9FEE73F2E00D8FEE7A3
:1050A8003E4FB6FBF4F63E603D4FBE4200D9FEE7E8
:1050B8005E78C005C00D06F00106800140EA865002
:1050C80040EA010141EA0444364844EA05650560BE
:1050D800012602E0064600E00E4630490C681E2C08
:1050E8004ED93C2C4ED95A2C4ED9782C4ED9962CC8
:1050F8008CBF052104212C48056841EA0505056097
:105108002948006800F007008842F9D1DD789878CE
:105118001B7926496F0347EA802747EA0317012EC0
:105128000F600AD11A4A116841F080711160184A5B
:10513800126812F0007FFAD002221C490E6826F08D
:10514800030642EA06060E6092001849096801F053
:105158000C019142F9D1164A32F81330B4FBF3F43A
:10516800144B1C60FFF728FF134BB4FBF0F01860DA
:105178002846FFF721FF114BB4FBF0F01860F8BD8B
:105188000021B8E70121B6E70221B4E70321B2E71D
:10519800003802400024F40000CCBF19D4160020C7
:1051A800007A030A04380240003C024008380240F2
:1051B8002A010108C8160020CC160020D0160020AD
:1051C800012830B51FD907281DD8BF291BD9B1F52B
:1051D800D87F1AD80E4B0F4C1A6822F080621A60DA
:1051E8001A680D4A156805EA04041460146844EA4C
:1051F800007040EA811111601A6842F080621A60FA
:105208001B68002030BD012030BD012030BD00BF2B
:10521800003802403F80FF8F84380240072BF0B5EA
:1052280063D8A2F10B04062C15D8394A157855FA1B
:1052380003F616F001065BD1012717FA03F343EAD8
:1052480005051570334B02EBC402506091601A6873
:1052580042F4001246E02F2A10D12D4B1A7812F092
:10526800800F48D162F07F021A70D8631964294B05
:105278001A6842F400121A600020F0BDA2F1380446
:10528800042C13D8224A92F8445055FA03F616F023
:10529800010633D1012717FA03F343EA050582F81B
:1052A800445002EBC4029064D16417E0A2F14404B4
:1052B800022C26D8164C94F8445055FA03F616F0EA
:1052C800010621D1012717FA03F343EA05053F3AFE
:1052D80084F8445004EBC204A064E1640D4B1A68DE
:1052E80042F480021A603046F0BD4FF0FF30F0BD46
:1052F8006FF00100F0BD6FF00200F0BD6FF0030029
:10530800F0BD6FF00600F0BD6FF00400F0BD00BF07
:10531800D816002030380240024A08B59068536811
:10532800984708BDD8160020024A08B51069D36806
:10533800984708BDD8160020024A08B590695369F5
:10534800984708BDD8160020024A08B5106AD369E4
:10535800984708BDD8160020024A08B5906A536AD3
:10536800984708BDD8160020024A08B5106BD36AC2
:10537800984708BDD8160020024A08B5906B536BB1
:10538800984708BDD8160020024A08B5106CD36BA0
:10539800984708BDD8160020024A08B5D06C936C0F
:1053A800984708BDD8160020024A08B5506D136DFD
:1053B800984708BDD8160020024A08B5D06D936DED
:1053C800984708BDD8160020024A08B5506E136EDB
:1053D800984708BDD8160020024A08B5D06E936ECB
:1053E800984708BDD8160020024A08B5506F136FB9
:1053F800984708BDD8160020024A08B5D06F936FA9
:10540800984708BDD8160020034A08B5D2F884008A
:10541800D2F88030984708BDD81600200346481CAB
:105428001A6B904228BFD86A70470346481C9A698D
:10543800904228BF58697047436A026AD21A002A04
:1054480030B522D0C16807DA04688269182505FBDF
:105458000141D21ACB6108E00468182505FB014117
:10546800CB6181699B188B4200D343690468C1688A
:10547800836218235943143462500268C168103299
:105488004B43D15841F00101D15030BDC3680A4A9D
:10549800032B08D9D318016813F8043C3D2212FAEB
:1054A80003F3CB6005E0D35C01683D2212FA03F3F5
:1054B8008B60836A4362BFE74C010108024B1860A6
:1054C8000720FFF778BC00BF6017002007B50190E0
:1054D800019B214A934230D006D8204A93421ED0DD
:1054E8001F4A934209D121E01E4A934209D01E4A1D
:1054F80093420DD01D4A934226D06FF03C00FFF72F
:10550800DDFF1B4B1A6842F010021A60002021E0F0
:10551800174B1A6842F020021A6005201AE0154B52
:105528001A6842F400321A60012013E0114B1A681D
:1055380042F480221A6002200CE00E4B1A6842F4F2
:1055480000221A60032005E00A4B1A6842F4801210
:105558001A6004200EBD00BF004C0040004400400B
:105568000048004000100140001401400050004075
:105578003438024030380240F8B50446134F084624
:105588000D46164600F0D8FFA301FB18186310B9A2
:105598000D38FFF793FF304600F0CEFFA4013B190A
:1055A800986110B90E38FFF789FF3C190020226B6B
:1055B800A56353196363A36926629919E16122649B
:1055C800A362E362E2636362F8BD00BF6017002074
:1055D800013808B505280ED8DFE800F003130507E1
:1055E800090B094808BD094808BD094808BD09480C
:1055F80008BD094808BD6FF04100FFF75FFF0020B4
:1056080008BD064808BD00BF001001400048004022
:10561800004C00400050004000140140004400408D
:1056280070B5161E04460D4602DA0F48FFF746FF0E
:105638000E4B9D4202D00E4B9D4208D1042E0D4BBD
:1056480002DD23603F360BE02360383608E0072E82
:10565800094B03D123602F23636002E023600B36DC
:105668006660204670BD00BF36FDFFFF0010014098
:1056780000140140006402400060024070B5094D0A
:1056880006460024304655F8041F01F0BDFB28B13A
:105698000134082CF6D14FF0FF3070BD0248A40148
:1056A800001970BD4C010108641700202DE9F04F66
:1056B8008BB00446149F0191072F02920393DDF8E3
:1056C80054A003D94FF0FF30FFF7F8FEBAF1070FE7
:1056D80003D96FF00100FFF7F1FE169931F0F001E0
:1056E80003D06FF00200FFF7E9FE2046FFF7EEFE59
:1056F80021465246834606A8FFF792FF04A8214692
:105708003A46069E079DFFF78BFF049BDDF8149031
:105718009E4203D06FF4A670FFF7D0FE854A8648F4
:105728004FEA8B1302EB030841462A465346FFF71C
:1057380075FD10B11E38FFF7C1FE7F4841464A4645
:105748003B46FFF76BFD10B18238FFF7B7FE7B4A87
:105758004FEA8B13D31802215E60DF60C3F810A0F4
:105768009C605961764B9E4203D0764B9E421FD176
:105778000FE007F00702744B53F82210A1421BD028
:1057880003EB82031B6AA34222D06FF00500FFF7E8
:1057980095FE6D4B07F0070203EB82031A6CA242D9
:1057A8000AD01B6EA3420AD06FF00600FFF786FEF0
:1057B8006FF00700FFF782FE4FF0040901E04FF099
:1057C80005095F4B9E4205D05E4B9E4228D116E0EC
:1057D8004FF005095C4B0AF0070203EB8203D3F88C
:1057E8008020A24224D0D3F8A020A24223D0D3F80C
:1057F800C030A34219D06FF00800FFF75FFE524B8C
:105808000AF0070203EB8203D3F8E020A2420FD08C
:10581800D3F80031A3420ED06FF00900FFF74EFE17
:105828006FF00A00FFF74AFE05E04FF0070804E0B2
:105838004FF0040801E04FF00508404A2046C2F83E
:10584800049208A900F068FA18B16FF00E00FFF78B
:1058580035FE20460899019A00F026FB5846029921
:10586800039AFFF789FEE368344943F4005343F091
:105878000C03E360636943F0C0036361182303FB0F
:1058880007674FEA496903FB0A66043449F4A063D1
:105898004FEA4868BC61B4613B6148F4823343F025
:1058A80040034FEA8B1B336101EB0B03002D1A6B8E
:1058B8009B6BFA617B61254B2A46B8BFEA1C22F034
:1058C800030205EA030302F16042002B02F5644279
:1058D80003DA013B63F0030301331699DB0011FA85
:1058E80003F31168002D41EA030313602B46B8BF88
:1058F80005F11F035A11164BD3189A00154B05EAE8
:105908000303002B03DA013B63F01F03013301217A
:1059180011FA03F3116841EA030313603B6943F08A
:1059280001033B61336943F01003336100200BB07E
:10593800BDE8F08F64170020955400086017002018
:1059480000600240006402405C0100200300008007
:10595800403800381F0000802DE9F047DDF820901E
:10596800DDF824800A9F0E4615461C46FFF730FED8
:1059780031462A462346CDF82090CDF824800A9750
:10598800BDE8F04792E60269012A034601D1806B1F
:1059980009E0022A0DD101688268182042431431B7
:1059A800186B8A58801ADA6B801A03D55B6BC0189B
:1059B8007047002070470138072803D8024B800140
:1059C8001818E0E7002070476417002038B504462F
:1059D80000252046FFF7D7FF20B14CF24F339D42F8
:1059E80009D904E001354CF251339D42F1D16FF0F1
:1059F8003100FFF7E0F9E16B20460D78FFF70EFD67
:105A0800E063284638BD0138072803D8024B8001D7
:105A18001818DBE70020704764170020F8B5044623
:105A28000D461746FFF7AFFF064678B1BE42A8BF3E
:105A38003E46002708E0E36B1B78EB552046E16BF8
:105A4800FFF7ECFC0137E063B742F4DB3046F8BD02
:105A58000138072803D8034B80011818DEE7002017
:105A6800704700BF641700200269022A10B50FD1E1
:105A78000168C268182462431031895811F0010F77
:105A880006D1036814339B5813B9BDE81040D3E41A
:105A980010BD0369012B09D14368DB6813F0800F3F
:105AA80004D14368DA6842F08002DA60704770B562
:105AB8000E46044680B1056A2946FFF7B6FC636ABC
:105AC80098420CD02E7020622046FFF7E2FF204655
