:020000040800F2
:1000000000000220393F0008190200081B02000806
:100010001D0200081F020008210200080000000065
:1000200000000000000000000000000023020008A3
:10003000250200080000000027020008290200082D
:10004000893F0008893F0008893F0008893F000870
:10005000893F0008893F0008893F0008893F000860
:10006000893F0008893F0008893F0008893F000850
:10007000893F0008893F0008893F0008893F000840
:10008000893F0008893F0008893F0008893F000830
:10009000893F0008893F0008893F0008893F000820
:1000A000893F0008893F0008893F0008893F000810
:1000B000893F0008893F0008893F0008893F000800
:1000C000893F0008893F0008893F0008893F0008F0
:1000D000893F0008893F0008893F0008893F0008E0
:1000E000893F0008893F00082D020008893F000869
:1000F000893F0008893F0008893F0008893F0008C0
:10010000893F0008893F0008893F0008893F0008AF
:10011000893F0008893F0008893F0008893F00089F
:10012000893F0008893F0008893F0008893F00088F
:10013000893F0008893F0008893F0008893F00087F
:10014000893F0008893F0008893F00085D020008D8
:10015000893F0008893F0008893F0008893F00085F
:10016000893F0008893F0008893F0008893F00084F
:10017000893F0008893F0008893F0008893F00083F
:08018000893F0008893F0008D7
:1001880000F03AB870470000154A164D83B511685B
:1001980041F080711160144A116841F00101116049
:1001A800296800222C681148661A864298BF0C46B6
:1001B8000F490091C3EB07030E488CBF2A212E215B
:1001C800561C03F017FF2B6803F5EA33C0332A687F
:1001D8009A1A002AFBDC034A214617683246E1E7EF
:1001E800FCED00E0041000E0001000E0FF58000102
:1001F800309A0008229A0008044B1A6812B11A684B
:10020800013A1A605A6801325A607047FC090020A6
:100218007047FEE7FEE7FEE7FEE770477047704766
:10022800FFF7AEBF10B5094CA37A4BB1084B1A685B
:1002380022F006021A6000F013F8204602F0FEF8D9
:100248004FF48020BDE8104000F0D2BD740A0020B1
:1002580010ED00E0014802F0EFBA00BF740A002078
:10026800374BD3F8882042F47002C3F88820354B06
:100278001A6842F001021A6000229A60196821F097
:10028800847121F4803119602F495960196882B04E
:1002980021F480211960DA60009201921A6842F410
:1002A80080321A60274B1A6802F400320192009AD1
:1002B80001320092019A1AB9009AB2F5A06FF1D1F1
:1002C8001B6813F4003318BF01230193019B012B12
:1002D80005D01B4B4FF000629A6002B07047194B73
:1002E8001A6C42F080521A64184A116841F480412D
:1002F80011609A689A609A6842F400429A609A6813
:1003080042F4A0529A60124A5A601A6842F0807207
:100318001A6019680B4A8901FBD50E4B40F205613A
:100328001960936823F003039360936843F0020312
:100338009360044B9B6803F00C03082BF9D1C8E7C2
:1003480000ED00E00038024010300024007000404A
:1003580008544007003C0240174A184B916801F0C6
:100368000C01042903D0082903D0154A18E0154ABE
:1003780016E05068516810F4800F506814BF114A95
:100388000F4A01F03F01B2FBF1F20B494968C1F392
:100398000141C0F38810013142434900B2FBF1F238
:1003A8001A60054A9268C2F303121A4411791A684E
:1003B800CA401A60704700BF0038024000000020A1
:1003C8000024F40040787D01002070470020704729
:1003D80001207047002070474FF0FF307047F8B594
:1003E8000D46164608B10020F8BD00F09BF800281D
:1003F800F9D02C4600F096F808B9601BF8BDAB1987
:100408001B1B002BF9DD2046671C00F097F83C46C3
:10041800F0E7074B1A680AB9064A1A6018680144D7
:100428006B46994296BF024B4FF0FF3019607047F8
:10043800040A0020C419002010B5084611461446C5
:1004480000F06EF8204610BD70477047704770473F
:1004580070477047704700000020704700207047C1
:1004680070B500238B420CD0074A084D1468C65C4F
:100478002E550134B4F5006F08BF00240133146011
:10048800F0E7002070BD00BF280A0020C01100203E
:100498000C4BF0B51D6800238B420ED00A4A0B4E58
:1004A8001468C75C37550134802C08BF00241460D9
:1004B8001268AA4203D00133EEE70020F0BD022003
:1004C800F0BD00BFE8100020FC10002068100020DC
:1004D80021280FD1084B1A680A701A68120A4A7044
:1004E8005A888A70DA78CA701A790A715A794A7100
:1004F8009B798B71002070473000002007B502AB54
:10050800012103F8010D1846FFF7AAFF03B05DF8B3
:1005180004FB0021435C0BB10131FBE7FFF7A0BFEF
:10052800FFF79EBF034B1868034B1B68C01A18BF20
:1005380001207047FC100020E8100020094B0A49F0
:100548001A68096891420AD008498A5C02701A68D8
:100558000132802A08BF00221A600120704700205B
:10056800704700BFE8100020FC1000206810002031
:1005780070B51C4A1C4E136834689C420BD01B4D46
:10058800E95C09B10A2908D10133802B08BF00238F
:100598009C42F4D11460002070BD0D29F4D0136082
:1005A8000023EC181168615CC154116801335C18B0
:1005B800802C08BF4B42346819448C42EBD0695CEC
:1005C80041B90021C154126806491A447F2A06D944
:1005D800803A04E00A29F4D00D29E2D1F1E70A6053
:1005E800184670BDE8100020FC100020681000209C
:1005F800704700BF12230B80004870474C00002052
:1006080004230B80004870475E00002010B5044C9E
:1006180004480A46214601F0E9F8204610BD00BF0B
:1006280000110020AE9A000808B50A4608B9044827
:1006380000E00448044901F0D9F8034808BD00BFA8
:10064800C19A0008E29A00080011002008B50A467D
:1006580008B9044800E00448044901F0C7F8034811
:1006680008BD00BF039B0008109B00080011002074
:1006780010B5044C04480A46214601F0B7F8204654
:1006880010BD00BF001100201D9B000810B5044CD0
:1006980004480A46214601F0A9F8204610BD00BFCB
:1006A80000110020289B00087047704773B501208F
:1006B800014600F02FFA264C4FF4D853009302233A
:1006C80003268DF804302046002369468DF806304D
:1006D8008DF807308DF8056000F01CFC20460821D5
:1006E8000A2200F0B5FC204609210A2200F0B0FCDD
:1006F80020460B210A2200F0ABFC20460A220C21DE
:1007080000F0A6FC01254FF480632046694600935B
:100718008DF806508DF807508DF8056000F0FAFB4B
:100728000A210A46204600F093FC29464FF48040EF
:1007380000F020FA2946802000F0F8F929464FF009
:10074800805000F047FA284600F052FB02B070BD16
:100758000000024007B54FF4C06000F02BF84323B7
:100768008DF804300B238DF8053003238DF80630FF
:1007780001A801238DF8073000F026F803B05DF8D2
:1007880004FB782358430722B0FBF2F0002301331F
:100798008342FCD970474FF47A735843FFF7F1BF8F
:1007A8000C9D000800000020FC090020FC09002026
:1007B800C419002040F0BF60024B40F40030D860FC
:1007C800704700BF00ED00E0C378F0B463B9037868
:1007D800194A5909203103F01F03012000FA03F3D5
:1007E80042F82130F0BC7047144B4778DA688578B6
:1007F80003781149D243C2F30222C2F104040F263E
:10080800E4B207FA04F446FA02F2E4B22A402243B8
:1008180003F1604303F561431201D2B283F8002368
:100828000378012003F01F025B0900FA02F241F885
:100838002320F0BC704700BF00E100E000ED00E0BD
:1008480021F0604121F07F01014B08439860704717
:1008580000ED00E0044B1A6919B922EA000018619A
:10086800704710431861704700ED00E0044B1A68A8
:1008780004280CBF42F0040222F004021A607047F8
:1008880010E000E00A4B0B481A68002142F0010210
:100898001A6099601A6822F0847222F480321A6011
:1008A80058601A6822F480221A60D960704700BF25
:1008B8000038024010300024024B00221A701870D1
:1008C800704700BF0238024082B000230B4A0193F0
:1008D80013689B030CD4019B01330193019BB3F56F
:1008E800A06FF5D1054B1868C0F3404002B07047BF
:1008F800019B01330193019BF4E700BF00380240DC
:10090800034B1A6822F0F80242EAC00018607047E8
:1009180000380240014B1860704700BF0000474292
:10092800064B002201281A701A7005D0042802D13B
:1009380005221A7070477047187070477038024067
:10094800014B1860704700BF800E474230B4029CCC
:10095800064D40EA04605B080143013B41EA82120C
:1009680042EA03436B6030BC704700BF0038024066
:10097800014B1860704700BF600047420907034BEE
:1009880041EA8010C3F88400704700BF0038024075
:10099800014B1860704700BF68004742014B186060
:1009A800704700BF4C004742034B9A6822F0EC6244
:1009B800114308439860704700380240034B9A6817
:1009C80022F078421143084398607047003802408B
:1009D800034B9A6822F0030210439860704700BFE7
:1009E80000380240024B986800F00C00704700BFC6
:1009F80000380240034B9A6822F0F00210439860D6
:100A0800704700BF00380240034B9A6822F4E05256
:100A180010439860704700BF00380240034B9A6843
:100A280022F4604242EAC0009860704700380240F1
:100A38001F4A936803F00C03042B10B41BD0082B37
:100A48001CD01C4B03601A491B4A8C68C4F303145E
:100A5800145DE34043608C68C4F38224145D23FA78
:100A680004F4846089685DF8044BC1F34231525C38
:100A7800D340C3607047114B0360E4E75468516882
:100A8800526863024CBF0D4B0A4B01F03F01C2F3A1
:100A98008812B3FBF1F303FB02F3054A5268C2F371
:100AA800014201325200B3FBF2F30360CBE700BF0F
:100AB800003802400024F4008800002040787D01BE
:100AC80000F44073B3F5407F09D1084A916820F0DB
:100AD800704321F4F81123F440730B439360034BE4
:100AE8001A6FC0F30B0010431867704700380240B4
:100AF800014B1860704700BF3C0E4742014B18601D
:100B0800704700BF400E4742014B1860704700BF56
:100B18005C014742044B1A6B19B922EA00001863BA
:100B2800704710431863704700380240044B5A6BF3
:100B380019B922EA00005863704710435863704798
:100B480000380240044B9A6B19B922EA00009863F6
:100B5800704710439863704700380240044B1A6C82
:100B680019B922EA000018647047104318647047E6
:100B780000380240044B5A6C19B922EA0000586444
:100B8800704710435864704700380240044B1A6994
:100B980019B922EA000018617047104318617047BC
:100BA80000380240044B5A6919B922EA000058611A
:100BB800704710435861704700380240044B9A69E7
:100BC80019B922EA0000986170471043986170478C
:100BD80000380240044B1A6A19B922EA0000186268
:100BE800704710431862704700380240044B5A6A35
:100BF80019B922EA000058627047104358627047DA
:100C080000380240044B1A6D19B922EA0000186531
:100C1800704710431865704700380240044B5A6DFE
:100C280019B922EA000058657047104358657047A3
:100C380000380240044B9A6D19B922EA0000986501
:100C4800704710439865704700380240044B1A6E8D
:100C580019B922EA000018667047104318667047F1
:100C680000380240044B5A6E19B922EA000058664F
:100C7800704710435866704700380240044B1A7892
:100C880019B922EA000018707047104318707047AD
:100C98000D3802404309012B0BD0022B094B0CBF26
:100CA8001B6F5B6F00F01F0023FA00F000F00100DB
:100CB8007047044B1B6800F01F0023FA00F000F097
:100CC8000100704700380240024B5A6F42F08072B0
:100CD8005A67704700380240034BDB6818420CBF64
:100CE80000200120704700BF00380240014B1870F7
:100CF800704700BF0E380240044B054900221A60B5
:100D08005A609A60DA605961704700BF003C014040
:100D1800FFFF7F00837970B42BB31D4B01681E68F9
:100D280002794579CC4326401E605E6802F1804214
:100D380002F59E3234405C601468214311600268F9
:100D48009868D14308409860D868102D01EA0001DE
:100D5800D96014D005F1804303F59E3370BC19683F
:100D68000A431A6070470379016803F1804303F569
:100D78009E3370BC1A6822EA01021A6070479968AB
:100D880011439960D9680A43DA6070BC704700BFA4
:100D9800003C014000230C224271036003718371FF
:100DA800704700BF024B1A6910431861704700BFB3
:100DB800003C0140034B5B6918420CBF0020012036
:100DC800704700BF003C0140014B5861704700BFAD
:100DD800003C0140054B1A685B69034004D010428F
:100DE8000CBF00200120704718467047003C0140A6
:100DF800014B5861704700BF003C014008B53C4BAF
:100E0800984224D03B4B98422BD03B4B984232D04F
:100E18003A4B984239D03A4B984240D0394B984295
:100E280047D0394B98424ED0384B984255D0384B22
:100E3800984200D008BD4FF480700121FFF7A6FE4C
:100E48004FF480700021BDE80840FFF79FBE0120E5
:100E58000146FFF79BFE01200021BDE80840FFF78F
:100E680095BE02200121FFF791FE02200021BDE876
:100E78000840FFF78BBE04200121FFF787FE0420FE
:100E88000021BDE80840FFF781BE08200121FFF7D7
:100E98007DFE08200021BDE80840FFF777BE10203E
:100EA8000121FFF773FE10200021BDE80840FFF77D
:100EB8006DBE20200121FFF769FE20200021BDE83A
:100EC8000840FFF763BE40200121FFF75FFE402086
:100ED8000021BDE80840FFF759BE80200121FFF737
:100EE80055FE80200021BDE80840FFF74FBE00BF37
:100EF800000002400004024000080240000C0240CA
:100F0800001002400014024000180240001C024079
:100F18000020024000222DE9F00713460E68012741
:100F28004FF0030804E00133102B02F102022CD029
:100F380007FA03F404EA0605A542F4D1D0F80090B4
:100F480091F804C008FA02F4E44304EA0909C0F875
:100F58000090D0F800900CFA02FA0CF1FF3C4AEA33
:100F68000909BCF1010FC0F8009011D9C56891F8C2
:100F780007C02C40C460C5680CFA02F401332C4346
:100F8800102BC46002F10202D2D1BDE8F00770470D
:100F9800D0F808A091F8059091F806C004EA0A0A6A
:100FA800C0F808A0D0F808A009FA02F949EA0A0925
:100FB800C0F80890D0F8049029EA0505456045680E
:100FC8000CFA03FC1FFA8CFC4CEA05054560CDE7DA
:100FD80000234FF6FF720260037143718371C3717E
:100FE800704700BF82B04FF480330193019B0B43DD
:100FF8000193019BC361C161019BC361C3690193F3
:10100800C369019302B07047036919420CBF0020FD
:1010180001207047006980B2704700BF43691942D8
:101028000CBF002001207047406980B2704700BFA4
:1010380001837047418370470AB941837047018330
:10104800704700BF4161704743695940416170472B
:10105800CB0800EB830001F0070110B48900046A93
:101068000F238B4024EA03030362036A5DF8044BF1
:101078008A4013430362704710B5D0F8E43504463C
:101088001B699847032384F81231002010BD00BF64
:1010980008B50422D0F8E43580F81221DB689847B7
:1010A800002008BD08B5D0F8E035DB6903B19847E2
:1010B800002008BD08B5D0F8E0351B6A9847002025
:1010C80008BD00BF08B5D0F8E0355B6A9847002036
:1010D80008BD00BF002110B50B460446402201F0B0
:1010E800A7FA802120464022002301F0A1FA01221C
:1010F800D4F8E43584F81221A0785B68984700207A
:1011080010BD00BF10B582B06946044600F03AF938
:101118009DF8001001F01F03012B18D010D3022BEB
:1011280007D0204601F0800101F0FCFA002002B04F
:1011380010BD2046694600F0F3FA002002B010BD49
:101148002046694600F05AF9002002B010BD20463A
:10115800694600F0CBFA002002B010BD70B5044615
:1011680029B990F81131022B0CD0002070BDD0F8AD
:10117800E0355B69002BF8D090F81221032AF4D1EE
:101188009847F2E7D0F83421D0F820319A4210D9A4
:10119800C1780129D0F82411C3EB020208BFC9188D
:1011A800C0F8342108BFC0F8241192B200F0A2F8A8
:1011B800DBE7D0F83851B5FBF3F603FB16565EB9FA
:1011C800AB4209D8D0F83C319D4205D2324600F0F6
:1011D80091F8C4F83C61C8E7D4F8E035DB681BB186
:1011E80094F81221032A03D0204600F0B3F8BCE794
:1011F80020469847F8E700BF10B5044629B990F88B
:101208001131032B0CD0002010BDD0F8E0359B69BC
:10121800002BF8D090F81221032AF4D19847F2E76E
:10122800D0F88C23D0F878339A4212D9C1780129A2
:10123800D0F87C13C3EB020204BFC918C0F87C13B2
:10124800C0F88C239A4228BF1A4692B200F06AF876
:10125800D9E7D0F8E0351B691BB190F81221032AB1
:1012680003D0204600F066F8CDE79847F9E700BFBD
:101278002DE9F0410446164698460D46069FFFF7AD
:1012880015FA20462946C4F8E085C4F8E475C4F880
:10129800E86501F07FF9D4F8E4351B6898472046E3
:1012A800BDE8F041FFF756BA00207047D0F8E035A6
:1012B80010B504461B689847D4F8E4359B689847EE
:1012C800002010BD08B5D0F8E0355B6898470020CD
:1012D80008BD00BF38B5134602250A46C0F83831A4
:1012E800C0F8343180F81151002101F0FFF90020D5
:1012F80038BD00BF08B513460A46002101F0F6F9CB
:10130800002008BD38B5134603250A46C0F89033B7
:10131800C0F88C3380F81151002101F0CBF900207E
:1013280038BD00BF08B513460A46002101F0C2F9CE
:10133800002008BD10B50021042304460A4680F8A1
:1013480011310B4601F0D2F9204601F033F80020A4
:1013580010BD00BF10B50021052304460A4680F8D9
:1013680011310B4601F0A6F9204601F023F80020C0
:1013780010BD00BF01EB810100EBC100B0F888038C
:10138800704700BF90F8C8350B7090F8C9354B709E
:1013980090F8CB2590F8CA3503EB02234B8090F8E0
:1013A800CD2590F8CC3503EB02238B8090F8CF2520
:1013B80090F8CE3503EB02239BB20122CB80C0F814
:1013C8003C3180F81121704710B591F90030002B9D
:1013D800044609DBCB883BB1002101F0A3F9204684
:1013E800BDE8104000F0E6BF2046802101F09AF9E0
:1013F8002046BDE8104000F0DDBF00BF70B54B7857
:1014080082B00C460546092B0CD8DFE803F03246BB
:101418000B5A0B05710B8712A3881BB9E388002BA5
:1014280000F08E8028462146FFF7CEFF002002B04C
:1014380070BDA178AA4E01293170F3D890F8123105
:10144800022B00F09880032BECD1002900F03D819D
:1014580090F81011012900F03081FFF733FF31783F
:1014680085F810112846FFF721FF2846FFF762FF8D
:10147800DCE790F812310122023B93424FF003015E
:10148800D0D8D0F81431002B57D1954B9A60284604
:1014980094490122FFF71EFFC8E790F81231023B7A
:1014A800012BBFD86388012BC0D1D0F8E0350022CA
:1014B8009B68C0F81421214698472846FFF73AFF51
:1014C800B4E76388012B00F0F180022BAED1A3882A
:1014D80013F0FF0FAAD101691B0A4A68013B1046A5
:1014E800042B00F29480DFE803F0979C8EA6A100FD
:1014F8006288130A013B062B94D801A151F823F006
:10150800ED150008AF1500089D1500082D140008FA
:101518002D1400082D1400082D140008E288012A53
:1015280080D190F81231022B21D0032B7FF47AAFAF
:1015380000F58871FFF7CEFE78E7694B9960A6E75A
:1015480090F81231A678032B06F07F063FF46AAFB5
:1015580080F81361314601F02FF92846FFF7EAFEBB
:10156800002E00F0AE80022385F812315EE75E4956
:10157800FFF7B0FE5AE7002900F09F8001210323FE
:1015880080F8101180F81231FFF790FE2846FFF717
:10159800D1FE4BE7D2B2052A3FF644AFDFE802F0AE
:1015A8007D746B625950D0F8E03580789B6A0DF1F4
:1015B80006019847022343700146C5F8EC05BDF8BB
:1015C8000630002B3FF432AFE288002A3FF42EAFFA
:1015D800934228BF13461A462846ADF80630FFF74F
:1015E80079FE23E7D0F8E83580781B680DF106010D
:1015F8009847E288402A014603D095F81231012B1A
:10160800DDD10823E1E7032363F3061002464A60AD
:101618002846FFF78FFE09E7012363F30610024609
:10162800F5E7022363F306100246F0E7052363F3A8
:1016380006100246EBE7042363F306100246E6E7CA
:10164800D0F8E83580789B690DF106019847014686
:10165800B5E7D0F8E83580785B690DF10601984761
:101668000146ACE7D0F8E83580781B690DF1060132
:1016780098470146A3E7D0F8E8358078DB680DF194
:101688000601984701469AE7D0F8E83580789B68C4
:101698000DF106019847014691E7D0F8E8358078C2
:1016A8005B680DF106019847014688E7D0F8E02508
:1016B800C0F814312146936898472846FFF73AFE48
:1016C800B4E6012385F81231B0E6022380F8101140
:1016D80080F81231FFF7F6FD2846FFF72BFEA5E646
:1016E800080A0020100A00200C0A002038B590F8DB
:1016F8001231032B04460D4602D10B79012B03D975
:10170800FFF762FE002038BDD0F8E0359B689847A7
:10171800EB88002BF6D12046FFF70CFEF2E700BF5E
:1017280070B54B788A88012B0C460546D6B224D072
:1017380019D3032B15D190F81231022B17D0032B94
:101748003ED14B8823B9730602D0314600F0EAFF38
:10175800D5F8E03521469B68284698472846FFF784
:10176800E9FD002070BD90F81231022B14D17206E9
:10177800F7D0314600F0D6FFF3E790F81231022B8C
:10178800F5D0032B1CD14B88002BEAD17106E5D08C
:10179800314600F0E5FFDBE7032B11D1130613D424
:1017A80006EB860600EBC60696F87233B3B90D4B06
:1017B8000022DA6028460C490222FFF78BFDD0E7A9
:1017C800FFF702FE002070BD06F07F0606EB8606D6
:1017D80000EBC60696F81A31002BE8D0014B01221F
:1017E800DA60E7E7080A0020140A002030B4F0B1F4
:1017F8000378F3B10446002314F8015F0133DBB228
:10180800002DF9D15B000233DCB2032513800C7084
:101818004D7002785AB1022300255C1CE4B2CA5408
:101828000D5510F8012F0233DBB2002AF5D130BC78
:10183800704702242346E8E710B5074C2068FF28C4
:1018480007D0064B064A9B68126806499847FF234B
:101858002360002010BD00BFC80000203800002011
:10186800180A0020B811002043230B800048704755
:10187800CC00002070B51F4C6368052B03F10102F2
:1018880002D06260002070BD227A0023012A6360C2
:10189800F8D0E1682569B1F5006F23D0A94226D0B8
:1018A80015D88AB26D1A6561D0F8EC35B3F83930BD
:1018B800AB4211D21944ED1AE16065610E49012568
:1018C8000A448121257200F011FF002070BDC1F586
:1018D800006565618AB2E7E729440026E160ABB29A
:1018E8006661EBE7E36015B11A461946DAE70023AB
:1018F8002372C7E7180A0020C011002001EB8101FC
:1019080038B500EBC101094D094BB1F888131B69C3
:10191800044628469847D4F8EC352A46B3F84030B0
:101928002046012100F0C6FE002038BD78110020B5
:101938003800002070B50B7813F060040D46064699
:1019480017D0202C10D1CC88002C3DD01B0629D4D0
:10195800224B234A4D7815601C60224621490024F9
:10196800FFF7D0FC204670BDFFF72EFD022420466D
:1019780070BD4B780A2B22D00B2B0ED0062BF6D13C
:101988004B881B0A212B03D1CA883A2A28BF3A223E
:1019980030461549FFF79EFCE9E78B78DBB90F4B1A
:1019A8009C61E4E7114B48789B680E4922469847AA
:1019B8003046EA880B49FFF78DFC0024D7E70C492D
:1019C8000122FFF787FCD2E7084B48789B6821463D
:1019D80022469847CBE7FFF7F7FCC8E7180A00202C
:1019E800C8000020B8110020DE00002038000020C8
:1019F800300A002010B58121044600F03FFE204641
:101A0800012100F03BFE8221204600F037FE024B08
:101A18005B689847002010BD38000020D0F8EC25FE
:101A280038B5044681210223B2F8392000F000FEBF
:101A3800D4F8EC352046B3F840200121022300F009
:101A4800F7FD204682210822032300F0F1FD094B0F
:101A5800094A0221002519715D7113689847D4F865
:101A6800EC35064AB3F840302046012100F022FE4A
:101A7800284638BD4C00002038000020781100208E
:101A880038B512490B7A012B01D0002038BD4C69BA
:101A9800CCB1D0F8EC35CA68B3F839309C420CD8D0
:101AA80013190025CB6092B223464D6108490A44B8
:101AB800812100F01BFE002038BD9D18E41A4C61FE
:101AC800CD6092B2F2E70C72002038BD180A0020EF
:101AD800C011002030B5054683B0002303200193D0
:101AE800FEF74FFE2B68134C1A69019206E0FEF7C9
:101AF80048FE2B68013C1A69019218D0019A002A05
:101B08004FF00300F3DA01990A4A41F0010101910B
:101B1800019919611969019103E019690191013A63
:101B280002D00199C907F8D40320FEF72AFE002045
:101B380003B030BD400D030030B4C5786DB900EB7B
:101B4800820003339B10D0F8D04006D02A460132D9
:101B580051F8040B20609342F9D1002030BC704743
:101B6800033270B49510D0F8D06009D00A4600232B
:101B78000133346842F8044B9D42F9D101EB8501E9
:101B8800084670BC704700BF2DE9F00F01244022C1
:101B98000023A14284708280C3705DD0002946D0A2
:101BA8004278C3604FF40061016190F80080002A18
:101BB80068D09C464FF460664FF4886B4FF4806A97
:101BC8004FEA4219002302460CF510670CF5306500
:101BD800FC18E91820334B459461516502F1040261
:101BE800F6D1C0F814A0C0F8CCB0B8F1000F18D0E6
:101BF8000CF5A06202EB48140146C1F8902020328F
:101C0800A24201F10401F8D10CF5805303EB08312D
:101C18000246C2F8D03003F580538B4202F1040229
:101C2800F7D1C0F80C610020BDE8F00F7047194BE0
:101C3800C1724FF4A0614FF00C080622C180164E05
:101C4800DFF864B0DFF864A0144980F800809C468F
:101C58004270C3600161B3E74FF0080804224FF4F3
:101C6800A07502244FF0A043C17280F80080427032
:101C7800C58004729C460A4EDFF834B0DFF834A001
:101C88000849E6E794464FF460664FF4886B4FF4D2
:101C9800806AA6E700000440000E044000080440E3
:101CA800000E0050000800504004044000040440A6
:101CB800400400500004005038B5037A012B044654
:101CC8004FF000052FD050F80C2FD36843F0400395
:101CD800D360FFF7FFFE237A627A032B14BF4FF419
:101CE80034134FF43C130AB143F48013E268142010
:101CF8009363FEF750FDE368217ADA68032908BF89
:101D080042F48032DA60227A032A37D0E378012B52
:101D180007D1E3689D68052262F3440545F0200574
:101D28009D60002038BDC268417A936B65F310430B
:101D380009B143F480139363D36823F4800323F039
:101D4800500343F010036FF3C3036FF3C7136FF32C
:101D580051436FF3D343D36004F10C00FFF7BAFE8D
:101D6800E378012BDDD1052363F34405E36845F0EF
:101D780020059D60E378012BCBD0D2E71D6B0122B3
:101D880062F39B656FF3D7552D2245F0805562F3BA
:101D980016451D63C820FEF7FEFCE36845F4000500
:101DA8001D63C820FEF7F7FCB0E700BFC3689A6858
:101DB80042F001029A600020704700BFC3689A6829
:101DC80022F001029A600020704700BF00B583B07E
:101DD80000230193019A0E4B42F020020192019ACE
:101DE80061F38A120192C168019A0A610A69019233
:101DF80003E00A690192013B02D0019A9206F8D4E5
:101E08000320FEF7BEFC002003B05DF804FB00BF12
:101E1800400D030000B583B000230193019A0C4BD9
:101E280042F010020192C168019A0A610A6901929E
:101E380003E00A690192013B02D0019AD206F8D464
:101E48000320FEF79EFC002003B05DF804FB00BFF2
:101E5800400D0300C26808B5D36801296FF35D73AC
:101E68006FF39E7308D009B943F08043D3603220E2
:101E7800FEF791FC002008BD43F00053F6E700BFD1
:101E8800C368586900F00100704700BFC36858690B
:101E980000F0010080F00100704700BFC368586976
:101EA80000F00100704700BFC3685A699869104084
:101EB800704700BFC3685868704700BF03691A6855
:101EC80061F301021A60704710B4C2680D4C4FF0FC
:101ED800FF31002393615161C2685160516194617F
:101EE800C07891695DF8044B984208BF102343F409
:101EF800701343F4605343F008030B4300209361CD
:101F0800704700BF00080080F8B50446D0F80C01FF
:101F18002269002101600B46116863F3CC2111602E
:101F2800E17A012949D010212046FFF74FFF2046CA
:101F3800FFF770FF256900224FF0FF332A616A61BD
:101F4800AB61EA6163783BB317462146FF268B698C
:101F580018680028ACBF00204FF0904018601F613F
:101F68009E6063780132934201F10401EFD89BB17E
:101F7800002217462146FF264B6D18680028ACBF83
:101F880000204FF0904018601F619E606378013216
:101F9800934201F10401EFD82B6943F480732B615C
:101FA800E378012B04D1144B402262F359432B638D
:101FB8002046FFF789FF0020F8BD1768E068C021B8
:101FC800802561F30F034FF4800165F31F4347F049
:101FD800030765F30F014FF4A0761760456281622D
:101FE800C0F8043166F30F036FF31F43C0F80831DC
:101FF800C0F80C3197E700BF0301010003699B6833
:10200800C3F34103022B07D0032B03D0012B01D0CC
:1020180003207047022070470120704703698269D6
:1020280098681168C0F34100022806BF032060F3D6
:102038000A016FF30A0111605A6842F480725A600B
:102048000020704770B44B78012B4FF0000220D06D
:102058000B7800EB8304012505FA03F3646D63F341
:102068001F4223681D040DD48E68CD78C98866F395
:102078000A0365F3934361F3995343F0805343F4A0
:10208800004323600369D9690A430020DA6170BC00
:1020980070470C7800EB8405A34063F30F02AC692A
:1020A800DFE700BF30B44A780023012A1C4613D06A
:1020B8000A7800EB8201012505FA02F2496D62F304
:1020C8001F4402696FF3CF330B60D36923EA04041A
:1020D800D461002030BC7047097800EB81058A4044
:1020E80062F30F04A969ECE7F0B44C780B784D69FA
:1020F800012C00EB83033AD05C6D23682269EDB1B3
:102108008E683544013DB5FBF6F5C5F3090765F35F
:10211800DC4206FB07F666F312022261C278012A46
:1021280016D0CA78012A1CD00A7800EB820043F046
:102138000443426D13600020F0BC70478D6801268F
:1021480065F3120266F3DC422261C278012AE8D103
:102158000C780A6900EB8404646D6261CA78012A0C
:10216800E2D14A79002A4DD043F00053DCE79E695A
:1021780033683269002D40D08C68CF7805EB040CA9
:102188000CF1FF3C65F31202BCFBF4F464F3DC428F
:10219800012F08BF67F35E723261C278012A3BD013
:1021A800CA78012A31D055B102690C78566B0127DB
:1021B80007FA04F434435463CA78012A25D00A780C
:1021C80000EB820243F0044392691360CB78012B41
:1021D800B1D1C378CA680978002BACD1ADB200EB95
:1021E80081000335AD10D0F8D000A4D0013352F8E7
:1021F800041B01609D42F9D19DE765F3120264F367
:10220800DC42C9E743F080538EE702699268D20541
:1022180009D443F00053D2E70C780A6900EB840430
:10222800A4696261C8E743F08053C8E7F0B44A780C
:10223800012A82B02AD00B784C698E6800EB8303A0
:102248005A6D1368156900959DF80050DCB19DF82A
:1022580002404E61012767F3C40466F306058DF852
:1022680000508DF80240009C1461C278012A3CD0CD
:102278000A7800EB820043F00443426D13600020AB
:1022880002B0F0BC70479DF80240E3E784694D69ED
:10229800236826690096002D2ED08A6895423FD97A
:1022A8009DF800504A6162F306058DF800509DF8CC
:1022B8000220012565F3C4028DF80220009A2261EC
:1022C800C278012A25D043F004432360C378002B49
:1022D800D5D14B69002BD2D003690A78596B0120FC
:1022E80000FA02F20A435A63C9E70C780A6900EB5C
:1022F8008404646D6261BBE79DF800709DF802601C
:1023080065F3060762F3C4068DF800708DF8026065
:10231800D4E70D780A6900EB8505AD696A61D2E7F3
:102328009DF8002065F306028DF80020BFE700BF86
:102338004B78012B0B7800EB830006D0426D1368B5
:1023480043F4001313600020704782691368002B60
:10235800F6DA43F0804343F400131360002070471B
:102368004B78012B0B78C97800EB8300A1F10201AF
:102378000CBF8269426D136801296FF3555398BFEA
:1023880043F0805313600020704700BF03699A69C7
:10239800D8691040000C704700EB810102694B6D51
:1023A8009B6850691840704703699869DB69184051
:1023B80080B2704710B4012383B04FF0000263F37A
:1023C800C402C024002318210093436D8DF8022015
:1023D8008DF803408DF80010009A1A61C278012A1E
:1023E80006D100F5B96058614FF0802219681A606B
:1023F80003B05DF8044B7047D0F8143110B50446AB
:102408001BB103699A68D20700D410BD827A42B121
:10241800D0F80C21D0F80C116FF341026FF30002D1
:102428000A605A6842F001025A600520FEF7B3F9C3
:1024380023695A6822F001025A6010BD837A1BB1E1
:1024480003699B68DB0700D47047D0F80C31D0F8DB
:102458000C216FF341036FF300031360704700BF53
:1024680038B543780122054680F8122163B1034646
:102478000022FF219C69A1605C6DA1606C7801322B
:10248800944203F10403F5D82B6900224FF0FF3181
:102498001A6128465A61DA619961FFF7BBFC284640
:1024A8001021BDE83840FFF791BC00BF4B78012BE5
:1024B8000B7800EB83000BD0436D1B689A0211D494
:1024C80013F4003F0CBF4FF440504FF400507047D6
:1024D80083691B68990208D413F4003F0CBF3020AD
:1024E800202070474FF4805070471020704700BF7D
:1024F800F0B44D78012D0C4615D0097800EB810118
:10250800B2F5805F4D6D2B681E4619D0B2F5005F9D
:1025180013D0B2F5405F26D012B962F3CF363346F6
:102528002B60F0BC70470F7800EB8707102ABD6955
:102538002B681E461ED0202A05D143F00063EFE722
:1025480043F40013ECE7302AE6D199020DD50021B7
:102558006171BA69E07813680238012861F355534C
:1025680015D91360DDE79A0207D443F0044343F416
:102578000043D5E7F0BCFFF7DBBE002060714A6D71
:10258800E17813680239012960F35553E9D843F01B
:102598008053E6E770B50446FFF7F6FA637801263C
:1025A800002284F8126184F813217BB31146234674
:1025B800402583F81821A3F81E2183F8196183F8B0
:1025C8001B11C3F82051C3F82411C3F82C116078EB
:1025D8000132904203F12803EBD8B8B1002211462A
:1025E8002346402583F87023A3F8762383F87113D4
:1025F80083F87313C3F87853C3F87C13C3F88413B0
:1026080060780132904203F12803EBD82046FFF7A7
:10261800D5FB2046FFF750FB20460021FFF71AFCA8
:102628002046FFF771FC2046BDE87040FFF7BEBBAF
:1026380070B50C0613D401EB8105ED0005F55C754A
:10264800441900264155A260E3706670022B04BF4E
:10265800002323712146FFF7F5FC002070BD01F02F
:102668007F0101EB8105ED0005F58C754419012604
:102678004155A260E370E1806670E7E7CAB208B529
:1026880013060DD401EB810300EBC30303F55C7360
:10269800D20919705A701946FFF704FD002008BDC9
:1026A80001F07F0101EB810300EBC30303F58C7399
:1026B800EEE700BF70B501F07F0404EB8405ED0080
:1026C80005F55C7541190026CA604B618E614E7034
:1026D8004455C378012B08BF0A611CB1FFF704FDFC
:1026E800002070BDFFF7A2FD002070BDF8B501F015
:1026F8007F0404EB8405ED0005F58C7541194FF056
:10270800010E002781F801E04455CA600A614B6157
:102718008F611CB1FFF7E8FC0020F8BDFFF786FDCC
:102728000020F8BDCAB2130610B50FD401EB81031F
:1027380000EBC30303F55C73D209012419705A70C6
:102748009C701946FFF7F4FD002010BD01F07F01D1
:1027580001EB810300EBC30303F58C73ECE700BFC7
:10276800CAB2130610B50FD401EB810300EBC30303
:1027780003F55C73D209002419705A709C701946CD
:10278800FFF7EEFD204610BD01F07F0101EB81034C
:1027980000EBC30303F58C73ECE700BF08B50B0629
:1027A80003D4FFF737FB002008BD01F07F01FFF7D6
:1027B8000DFB002008BD00BF03690022186861F303
:1027C8000A1202431A60704703695A686FF341029C
:1027D8005A600320FDF7DFBF03695A6842F002021E
:1027E8005A600320FDF7D7BF0B0607D401EB810120
:1027F80000EBC10101F55C71FFF758BE01F07F01E4
:1028080001EB810100EBC10101F58C71FFF74EBEB0
:102818000B0607D401EB810100EBC10101F55C71E6
:10282800FFF766BE01F07F0101EB810100EBC101FA
:1028380001F58C71FFF75CBE2DE9F04F83B00546BA
:10284800FFF724FB18B9002003B0BDE8F08F284635
:10285800FFF72AFB07460028F5D0C0F3C040002840
:1028680040F093807C0326D4BC0702D5EB68022293
:102878005A61002FC0F28281390500F15F813B0760
:1028880000F15281FE0600F12781FC0400F1EB8083
:10289800B90400F1CF80FA0200F1C180BB02D3D5A0
:1028A800A04B1B6828461B6A9847EB684FF4001238
:1028B8005A610120C8E72846FFF776FD80460028C0
:1028C80061D02E462C464FF0000B019729E07A077D
:1028D80002D5B36904279F603B0702D5B36908276F
:1028E8009F60F80602D5B36910279F60B90602D524
:1028F800B36920279F607A0602D5B36940279F6095
:10290800BB0702D5B36902279F603F0600F16B81C0
:102918005FEA58080BF1010B06F1040604F12804DC
:1029280030D018F0010FF3D02B695FFA8BF91969D1
:102938005F6B05EB890227FA09F79269FF01FFB27D
:1029480092680F431740F907C1D5764F596B3A681B
:10295800012707FA0BF021EA00015963B3695268AD
:102968009F60284649469047EB78BB42AFD1BBF100
:10297800000FACD195F81131042BA8D12846FFF7E8
:1029880019FDA4E7019F01206EE72846FFF7FEFC2A
:102998000446002841D02E46AB464FF00008A94611
:1029A80007E0640808F1010806F104060BF1280B9A
:1029B80032D0E007F5D55FFA88FA51464846FFF766
:1029C800EBFCC107054612D5736D01259D6099F88A
:1029D8000320AA4200F053815248036851461B68FD
:1029E8004846984799F80330012B00F03B81AA0725
:1029F80002D5736D02259D606B0702D5736D0425A2
:102A08009D602D07CDD547490B6848469B68984778
:102A1800736D08229A60C4E74D46012022E7414BB6
:102A28001B682846DB699847EB684FF480125A61A7
:102A3800012033E72846FFF7F1FAEB682846DC68FF
:102A4800FFF7DCFA032800F0C580012140220523A6
:102A5800A970AA8063F38D24EB684FF40052DC6000
:102A680001205A6117E72B695A68002622F00102F3
:102A78005A6031462846FFF7A9F96B7863B12B46AF
:102A88003246FF2099698860596D886069780132FB
:102A98008A4203F10403F5D301242B6964F30F067A
:102AA8000F214FF0FF302F2264F31F469861DE613B
:102AB80059611A611A686FF30A121A602846FFF7FB
:102AC80079FC184AEB6812684FF480511269596111
:102AD800284690472046DBE6EB689A6922F0100208
:102AE8009A611C6A04F00F0202EB8202C4F34341AC
:102AF80005EBC206022906F55C765AD006290BD1E9
:102B08000822284605F5B961FFF72AF8B269EB688B
:102B1800C4F30A142244B2619A6942F010029A611D
:102B28000120B2E698000020594B1B682846DB6854
:102B38009847EB6808225A610120A3E6544B1B68AA
:102B480028465B6998472A69EB6891684FF40062E8
:102B58005A61AB7A83B1CA070ED5D5F80C314D4A04
:102B6800196841F001011960196841F00301196001
:102B7800136943F006031361012080E6AB7A43B181
:102B8800D5F80C31D5F80C216FF341036FF300032E
:102B980013602B693E4A5968126821F00101596097
:102BA800284693699847EB684FF000425A61012024
:102BB80062E6C4F30A14002CAED0F1682246284617
:102BC800FEF7CEFFF168B269EB6821442244F16058
:102BD800B261A1E700214FF400720923A970AA800D
:102BE80063F38D2438E7D4F82C21D4F83001B16987
:102BF800D4F82071D1F818C0131ABB4234BF9A46D2
:102C0800BA460AF1030A1FFA8CFCBCEB9A0F26D9C4
:102C1800824224D91AB3D4F8241106E0D4F82C71CE
:102C28009F421BD9FB1AD4F820719F4228BF1F4628
:102C3800BBB24A462846FEF77FFFD4F82411D4F8E1
:102C4800303139443B44C4F82411C4F83031B069F8
:102C58008269033792B2B2EB970FDFD8014680271B
:102C68008F6055E6B8F1000F7FF4C1AE99F81131C5
:102C7800052B7FF4BCAE4846FFF79CFBB7E61A6904
:102C8800DBF87833C2F312029B1ACBF88833A3E639
:102C98009800002000ED00E0844641EA000313F0AC
:102CA80003036DD1403A41D351F8043B40F8043B4B
:102CB80051F8043B40F8043B51F8043B40F8043B0E
:102CC80051F8043B40F8043B51F8043B40F8043BFE
:102CD80051F8043B40F8043B51F8043B40F8043BEE
:102CE80051F8043B40F8043B51F8043B40F8043BDE
:102CF80051F8043B40F8043B51F8043B40F8043BCE
:102D080051F8043B40F8043B51F8043B40F8043BBD
:102D180051F8043B40F8043B51F8043B40F8043BAD
:102D280051F8043B40F8043B403ABDD2303211D34D
:102D380051F8043B40F8043B51F8043B40F8043B8D
:102D480051F8043B40F8043B51F8043B40F8043B7D
:102D5800103AEDD20C3205D351F8043B40F8043B4D
:102D6800043AF9D2043208D0D2071CBF11F8013B4B
:102D780000F8013B01D30B8803806046704700BF11
:102D8800082A13D38B078DD010F003038AD0C3F120
:102D98000403D21ADB071CBF11F8013B00F8013B02
:102DA80080D331F8023B20F8023B7BE7043AD9D3C1
:102DB800013A11F8013B00F8013BF9D20B78037096
:102DC8004B7843708B7883706046704740EA010CFB
:102DD8001CF0070F23D1BDF1100DCDE90245CDE957
:102DE80000676FF000064FF0000700BFF0E802230D
:102DF800F1E80245A24282FA46FCA7FA86FC08BF1F
:102E0800BCF1000F40F0D780AB4283FA46FCA7FA2A
:102E180086FC08BFBCF1000F40F0CA80E6E710F05E
:102E2800030C21D020F0030050F8042B5FEACC7C7F
:102E380008D00FD211F801CB5FFA92F3B3EB0C0C68
:102E480010D17BB111F801CB5FFAA2F3B3EB0C0CF4
:102E580008D13BB111F801CB5FFAB2F3B3EB0C0C1C
:102E680000D10BB960467047BDF1100DCDE90245A0
:102E7800CDE900676FF000064FF0000711F0030C72
:102E88002DD110F0040F0DD050F8042B51F8044B3D
:102E9800A24282FA46FCA7FA86FC08BFBCF1000FE2
:102EA80040F0898011F0040F9FD051F8045B00BFF7
:102EB800F0E80223AA4282FA46FCA7FA86FC08BF79
:102EC800BCF1000F71D1F1E80245A34283FA46FC38
:102ED800A7FA86FC08BFBCF1000F63D1E8E721F030
:102EE8000301BCF1020F1ED03BDA51F8045B00BFAE
:102EF80050F8043B4FEA152583FA46FCA7FA86FCEE
:102F0800B7EB0C2F03EA162208BFAA424DD151F89D
:102F1800045BBCF1000F82EA03034FEA056208BFB5
:102F280093423CD1E4E751F8045B00BF50F8043BFE
:102F38004FEA154583FA46FCA7FA86FCB7EB0C4F17
:102F480003EA164208BFAA422FD151F8045BBCF12C
:102F5800000F82EA03034FEA054208BF93421ED1DD
:102F6800E4E751F8045B00BF50F8043B4FEA1565ED
:102F780083FA46FCA7FA86FCB7EB0C6F03EA1662E5
:102F880008BFAA4211D151F8045BBCF1000F82EAD4
:102F980003034FEA052208BF934200D1E4E719BAB8
:102FA80012BA0AE019BA22BA07E011BA2ABA04E03A
:102FB80019BA2ABA01E011BA22BA9CFA8CF0DDE9F2
:102FC8000067DDE902451DF1100D38B1B0FA80F057
:102FD800C0F1180021FA00F122FA00F20120914212
:102FE80098BF8041704700BF81F0004102E000BFF8
:102FF80083F0004330B54FEA41044FEA430594EAB1
:10300800050F08BF90EA020F1FBF54EA000C55EAEB
:10301800020C7FEA645C7FEA655C00F0E2804FEABC
:103028005454D4EB5555B8BF6D420CDD2C4480EA9E
:10303800020281EA030382EA000083EA010180EACE
:10304800020281EA0303362D88BF30BD11F0004F1C
:103058004FEA01314FF4801C4CEA113102D0404252
:1030680061EB410113F0004F4FEA03334CEA13338D
:1030780002D0524263EB430394EA050F00F0A780A5
:10308800A4F10104D5F1200E0DDB02FA0EFC22FAA0
:1030980005F2801841F1000103FA0EF2801843FA94
:1030A80005F359410EE0A5F120050EF1200E012A85
:1030B80003FA0EFC28BF4CF0020C43FA05F3C018C3
:1030C80051EBE37101F0004507D54FF0000EDCF13C
:1030D800000C7EEB00006EEB0101B1F5801F1BD3E5
:1030E800B1F5001F0CD349085FEA30004FEA3C0CE9
:1030F80004F101044FEA445212F5800F80F09A80DF
:10310800BCF1004F08BF5FEA500C50F1000041EBE2
:10311800045141EA050130BD5FEA4C0C404141EBE6
:10312800010111F4801FA4F10104E9D191F0000F0D
:1031380004BF01460020B1FA81F308BF2033A3F190
:103148000B03B3F120020CDA0C3208DD02F1140C87
:10315800C2F10C0201FA0CF021FA02F10CE002F1C2
:103168001402D8BFC2F1200C01FA02F120FA0CFCBB
:10317800DCBF41EA0C019040E41AA2BF01EB045104
:10318800294330BD6FEA04041F3C1CDA0C340EDC02
:1031980004F11404C4F1200220FA04F001FA02F345
:1031A80040EA030021FA04F345EA030130BDC4F103
:1031B8000C04C4F1200220FA02F001FA04F340EAF8
:1031C8000300294630BD21FA04F0294630BD94F0A9
:1031D800000F83F4801306BF81F480110134013D90
:1031E8004EE77FEA645C18BF7FEA655C29D094EA01
:1031F800050F08BF90EA020F05D054EA000C04BF7F
:103208001946104630BD91EA030F1EBF0021002069
:1032180030BD5FEA545C05D14000494128BF41F008
:10322800004130BD14F580043CBF01F5801130BD6C
:1032380001F0004545F0FE4141F470014FF00000F7
:1032480030BD7FEA645C1ABF194610467FEA655CA8
:103258001CBF0B46024650EA013406BF52EA03354A
:1032680091EA030F41F4002130BD00BF90F0000F38
:1032780004BF0021704730B54FF4806404F1320474
:103288004FF000054FF0000150E700BF90F0000F2D
:1032980004BF0021704730B54FF4806404F1320454
:1032A80010F0004548BF40424FF000013EE700BF24
:1032B80042004FEAE2014FEA31014FEA02701FBFB4
:1032C80012F07F4393F07F4F81F06051704792F086
:1032D800000F14BF93F07F4F704730B54FF4607400
:1032E80001F0004521F0004120E700BF50EA01024B
:1032F80008BF704730B54FF000050AE050EA0102F8
:1033080008BF704730B511F0004502D5404261EB67
:1033180041014FF4806404F132045FEA915C3FF4A8
:10332800DCAE4FF003025FEADC0C18BF03325FEA41
:10333800DC0C18BF033202EBDC02C2F1200300FAF6
:1033480003FC20FA02F001FA03FE40EA0E0021FA1B
:1033580002F11444C1E600BF70B54FF0FF0C4CF405
:10336800E06C1CEA11541DBF1CEA135594EA0C0FBB
:1033780095EA0C0F00F0DEF82C4481EA030621EAF6
:103388004C5123EA4C5350EA013518BF52EA033531
:1033980041F4801143F4801338D0A0FB02CE4FF0E3
:1033A8000005E1FB02E506F00042E0FB03E54FF013
:1033B8000006E1FB03569CF0000F18BF4EF0010E0B
:1033C800A4F1FF04B6F5007F64F5407404D25FEA07
:1033D8004E0E6D4146EB060642EAC62141EA5551BA
:1033E8004FEAC52040EA5E504FEACE2EB4F1FD0CFC
:1033F80088BFBCF5E06F1ED8BEF1004F08BF5FEA7A
:10340800500E50F1000041EB045170BD06F000462B
:1034180046EA010140EA020081EA0301B4EB5C04D8
:10342800C2BFD4EB0C0541EA045170BD41F48011D0
:103438004FF0000E013C00F3AB8014F1360FDEBFF5
:10344800002001F0004170BDC4F10004203C35DAD1
:103458000C341BDC04F11404C4F1200500FA05F354
:1034680020FA04F001FA05F240EA020001F00042F5
:1034780021F0004110EBD37021FA04F642EB06016B
:103488005EEA430E08BF20EAD37070BDC4F10C0495
:10349800C4F1200500FA04F320FA05F001FA04F259
:1034A80040EA020001F0004110EBD37041F1000145
:1034B8005EEA430E08BF20EAD37070BDC4F1200550
:1034C80000FA05F24EEA020E20FA04F301FA05F2B8
:1034D80043EA020321FA04F001F0004121FA04F260
:1034E80020EA020000EBD3705EEA430E08BF20EA30
:1034F800D37070BD94F0000F0FD101F0004640006A
:1035080041EB010111F4801F08BF013CF7D041EAEB
:10351800060195F0000F18BF704703F000465200EF
:1035280043EB030313F4801F08BF013DF7D043EAC0
:103538000603704794EA0C0F0CEA135518BF95EA76
:103548000C0F0CD050EA410618BF52EA4306D1D1FD
:1035580081EA030101F000414FF0000070BD50EA1C
:10356800410606BF1046194652EA430619D094EAA6
:103578000C0F02D150EA013613D195EA0C0F05D190
:1035880052EA03361CBF104619460AD181EA0301E4
:1035980001F0004141F0FE4141F470014FF000009C
:1035A80070BD41F0FE4141F4780170BD70B54FF037
:1035B800FF0C4CF4E06C1CEA11541DBF1CEA1355B7
:1035C80094EA0C0F95EA0C0F00F0A7F8A4EB050499
:1035D80081EA030E52EA03354FEA013100F0888090
:1035E8004FEA03334FF0805545EA131343EA126359
:1035F8004FEA022245EA111545EA10654FEA00260E
:103608000EF000419D4208BF964244F1FD0404F5C6
:10361800407402D25B084FEA3202B61A65EB030522
:103628005B084FEA32024FF480104FF4002CB6EBDF
:10363800020E75EB030E22BFB61A754640EA0C005F
:103648005B084FEA3202B6EB020E75EB030E22BF9F
:10365800B61A754640EA5C005B084FEA3202B6EBE0
:10366800020E75EB030E22BFB61A754640EA9C009F
:103678005B084FEA3202B6EB020E75EB030E22BF6F
:10368800B61A754640EADC0055EA060E18D04FEA2D
:10369800051545EA16754FEA06164FEAC30343EACD
:1036A80052734FEAC2025FEA1C1CC0D111F4801F9A
:1036B8000BD141EA00014FF000004FF0004CB6E793
:1036C80011F4801F04BF01430020B4F1FD0C88BF32
:1036D800BCF5E06F3FF6AFAEB5EB030C04BFB6EB3D
:1036E800020C5FEA500C50F1000041EB045170BD30
:1036F8000EF0004E4EEA113114EB5C04C2BFD4EB5D
:103708000C0541EA045170BD41F480114FF0000EE0
:10371800013C90E645EA060E8DE60CEA135594EA5C
:103728000C0F08BF95EA0C0F3FF43BAF94EA0C0F5F
:103738000AD150EA01347FF434AF95EA0C0F7FF4D4
:1037480025AF104619462CE795EA0C0F06D152EA28
:1037580003353FF4FDAE1046194622E750EA41060C
:1037680018BF52EA43067FF4C5AE50EA41047FF41D
:103778000DAF52EA43057FF4EBAE12E74FF0FF3C82
:1037880006E000BF4FF0010C02E000BF4FF0010C53
:103798004DF804CD4FEA410C7FEA6C5C4FEA430CCC
:1037A80018BF7FEA6C5C1BD001B050EA410C0CBF1B
:1037B80052EA430C91EA030F02BF90EA020F00207D
:1037C800704710F1000F91EA030F58BF994208BFE4
:1037D80090422CBFD8176FEAE37040F001007047A1
:1037E8004FEA410C7FEA6C5C02D150EA013C07D1F8
:1037F8004FEA430C7FEA6C5CD6D152EA033CD3D043
:103808005DF8040B704700BF8446104662468C463C
:103818001946634600E000BF01B5FFF7B7FF00286F
:1038280048BF10F1000F01BD4DF808EDFFF7F4FF98
:103838000CBF012000205DF808FB00BF4DF808ED23
:10384800FFF7EAFF34BF012000205DF808FB00BF46
:103858004DF808EDFFF7E0FF94BF012000205DF868
:1038680008FB00BF4DF808EDFFF7CEFF94BF01201D
:1038780000205DF808FB00BF4DF808EDFFF7C4FF16
:1038880034BF012000205DF808FB00BF4FEA410269
:1038980012F5001215D211D56FF47873B3EB62529A
:1038A80012D94FEAC12343F0004343EA505311F0C1
:1038B800004F23FA02F018BF404270474FF0000053
:1038C800704750EA013005D111F0004008BF6FF091
:1038D800004070474FF00000704700BF4BB942B935
:1038E800002908BF002802D04FF0FF31084600F039
:1038F8003BB882B0EC462DE9005000F01DF8DDF829
:1039080004E002B00CBC70472DE97043069E1446D3
:103918001D468046894600F029F804FB01F300FBA8
:103928000533A4FB00451D44B8EB040469EB050509
:10393800C6E90045BDE870832DE97043069E14462C
:10394800804689461D4600F05DF900FB05F504FB3D
:103958000153A0FB04451D44B8EB040469EB0505BD
:10396800C6E90045BDE87083704700BF00292DE90E
:10397800F00FC0F29F800024002BC0F296801546FD
:1039880006460F46002B3ED18A4257D9B2FA82F337
:103998004BB1C3F1200201FA03F720FA02F29D406D
:1039A800174300FA03F6290CB7FBF1F2330C01FBBD
:1039B800127CA8B243EA0C4700FB02F3BB4209D9C8
:1039C8007F1902F1FF3C80F00181BB4240F2FE808A
:1039D800023A2F44FF1AB7FBF1F3B6B201FB137199
:1039E80046EA014100FB03F0884208D9491903F16E
:1039F800FF3780F0ED80884240F2EA80023B43EADC
:103A08000242002303E08B420AD900231A461046DB
:103A1800194614B1404261EB4101BDE8F00F70470F
:103A2800B3FA83F8B8F1000F40F084808B4202D3D8
:103A3800824200F2DE8000230122E8E712B9012366
:103A4800B3FBF2F5B5FA85F2002A39D17F1B280CB1
:103A58001FFA85FC0123B7FBF0F1320C00FB11774C
:103A680042EA07470CFB01F2BA4207D97F1901F174
:103A7800FF3802D2BA4200F2C1804146BF1AB7FBF2
:103A8800F0F2B6B200FB127046EA00400CFB02FCF2
:103A9800844507D9401902F1FF3702D2844500F264
:103AA800AB803A4642EA0142B1E7E443524263EB53
:103AB800430364E7404261EB41014FF0FF345BE7A9
:103AC8009540C2F1200327FA03F1280C26FA03F3E4
:103AD8009740B1FBF0F81F433B0C00FB18111FFA8D
:103AE80085FC43EA01410CFB08F38B4206FA02F617
:103AF80008D9491908F1FF3279D28B4277D9A8F150
:103B080002082944C91AB1FBF0F3BFB200FB131134
:103B180047EA01470CFB03F2BA4207D97F1903F1C0
:103B2800FF3160D2BA425ED9023B2F44BF1A43EA42
:103B3800084390E7C8F1200203FA08FC25FA02F3CB
:103B480043EA0C0C4FEA1C4921FA02F301FA08F780
:103B580020FA02F2B3FBF9F1174309FB11333A0CCF
:103B68001FFA8CFB42EA03430BFB01FA9A4505FA5C
:103B780008F008D913EB0C0301F1FF3235D29A454E
:103B880033D902396344CAEB0303B3FBF9F209FBE7
:103B98001233BFB247EA03470BFB02F9B94508D90C
:103BA80017EB0C0702F1FF331BD2B94519D9023ABA
:103BB800674442EA0145A5FB0001C9EB07078F42AC
:103BC8004FF000030AD305D02A4620E7624601E7F2
:103BD8003B4614E706FA08F68642F5D26A1E002329
:103BE80015E71A46E5E70B46A0E71146CBE79046EE
:103BF80088E7434642460AE7023A53E702392F4428
:103C08003CE700BF2DE9F00F144605460E46002B91
:103C180043D18A4253D9B2FA82F757B1C7F1200685
:103C280020FA06F601FA07F302FA07F41E4300FA2F
:103C380007F5210CB6FBF1F22B0C01FB1267A0B2C1
:103C480043EA074600FB02F3B34209D9361902F1E9
:103C5800FF3780F0F680B34240F2F380023A264400
:103C6800F61AB6FBF1F3ADB201FB136145EA014167
:103C780000FB03F0884208D9091903F1FF3680F0E8
:103C8800E280884240F2DF80023B43EA024200239E
:103C980010461946BDE8F00F70478B424AD8B3FA70
:103CA80083F6002E4DD18B4202D3824200F2D68099
:103CB8000023012210461946BDE8F00F704712B9DB
:103CC8000124B4FBF2F4B4FA84F2002A7CD1091B73
:103CD800260CA7B20123B1FBF6F02A0C06FB101143
:103CE80042EA014107FB00F28A4207D9091900F1AB
:103CF800FF3C02D28A4200F2C3806046891AB1FBB7
:103D0800F6F2ADB206FB121145EA014507FB02F7D0
:103D1800AF4208D92C1902F1FF3180F09680A742F2
:103D280040F29380023A42EA004210461946BDE842
:103D3800F00F704700231A4610461946BDE8F00FE9
:103D48007047C6F1200522FA05F4B3401C434FEA38
:103D5800144821FA05F301FA06F720FA05F5B3FB32
:103D6800F8FC2F4308FB1C333D0C1FFA84FA45EA84
:103D780003430AFB0CF9994502FA06FB04D91B19FF
:103D88000CF1FF326DD39446C9EB0303B3FBF8F58E
:103D980008FB1533BFB247EA03470AFB05F8B845E5
:103DA80004D93F1905F1FF3361D31D4645EA0C4C90
:103DB800ACFB0B23C8EB07079F424FF0000549D324
:103DC80045D062462B4663E79440C2F1200321FAAE
:103DD80003FC260C20FA03F301FA02F5BCFBF6F803
:103DE80043EA05010B0C06FB18CCA7B243EA0C4CBE
:103DF80007FB08F3634500FA02F509D91CEB040C2C
:103E080008F1FF323AD2634538D9A8F10208A44430
:103E1800C3EB0C0CBCFBF6F389B206FB13CC41EAEE
:103E28000C4107FB03F28A4207D9091903F1FF3055
:103E380022D28A4220D9023B2144891A43EA084304
:103E480049E73A460CE733461FE70A466BE7B040B6
:103E58009042B6D20CF1FF32002319E733463246BE
:103E680016E799458FD9ACF1020C23448CE7B84585
:103E78009BD9023D274499E70346DEE79046C7E70A
:103E8800023821443AE700BF1F4B1A684FF47A738F
:103E980030B5B2FBF3F21D4B013A5A601C4AF021CF
:103EA800002482F82310072285B09C6008201A603D
:103EB8000121FCF72FFE4FF47043029301250323E1
:103EC80002A914488DF80D308DF80C508DF80E406D
:103ED8008DF80F40FDF71EF80F4B104A0093294646
:103EE8000F48104BFDF7C4F90F4B1B682146986823
:103EF80000F094F8FCF748F901460A460B4800F030
:103F080079F8204605B030BD0000002010E000E040
:103F180000ED00E0000C0240140000206C000020BE
:103F2800740A00201001002068050020049A000887
:103F3800002100F004B80D4B5B58435004310C4885
:103F48000C4B42189A42FFF4F6AF0B4A00F003B844
:103F5800002342F8043B094B9A42FFF4F9AFFCF7FF
:103F68007FF900F00FF8FFF78FFF70470C9D0008EE
:103F780000000020FC090020FC090020C4190020D2
:103F8800FFF7FEBF70B50F4E0F4D761BB61007D06A
:103F9800043D0024013455F8043F9847A642F9D15E
:103FA8000A4E0B4D761BFCF7EDF8B61008D0043D11
:103FB8000024013455F8043F9847A642F9D170BD52
:103FC80070BD00BF0C9D00080C9D00080C9D0008EA
:103FD8000C9D00080EB400B582B003AB816853F89D
:103FE800042B019300F0A4F802B05DF804EB03B0D1
:103FF800704700BF0FB400B5074A83B004AB106820
:1040080053F8042B8168019300F092F803B05DF82F
:1040180004EB04B0704700BF6805002000290CBFFE
:10402800022200224FF4806300F000B82DE9F0412D
:104038003C4C25688846044616461F4615B1AB6BAE
:10404800002B4FD0022E30D8002F2EDB28462146D9
:1040580002F028FCA38900226260A2611A0628D413
:1040680023F083039BB2022EA3812DD0B8F1000F59
:104078003CD0012E13D09BB203F008002A4AEA6311
:1040880080B2C4F80080C4F81080676178B113F07A
:10409800030F18BF0027A7600020BDE8F08143F098
:1040A80001037A42A381A261E5E74FF0FF30BDE842
:1040B800F0812846216902F073FDA38923F0830368
:1040C8009BB2022EA381D1D1002004F1430243F018
:1040D800020300250121A381A5602260226161619C
:1040E800BDE8F081284602F031FCABE7002F08BF9D
:1040F8004FF48067384602F01FFF804628B1A38935
:1041080043F080039BB2A381B3E74FF4806002F0D1
:1041180013FF804618B9A3894FF0FF30D5E74FF455
:104128008067ECE7680500200569000800000000CA
:104138002DE9F04FC5B01C4689460692099002F059
:104148007BFE0068119003F013FF099D14900B94F7
:104158001DB1AB6B002B00F00B81B9F80C2093B2AA
:1041680099040AD4D9F8641042F4005321F4005198
:10417800A9F80C30C9F864109BB21A0740F1C28044
:10418800D9F81020002A00F0BD8003F01A030A2B8A
:1041980000F0C4809FED7A7B8DED127B002334AC58
:1041A8000D93049429932893169315930C932794AD
:1041B8002646DDF818C09CF80030002B00F0DC80A3
:1041C800252B00F0D9800CF1010202E0252B00F02C
:1041D8008B80144601322378002BF7D10698251AD4
:1041E8007DB1289B299A0698306001332A44072B11
:1041F80075602992289300F3A48008360C99294405
:104208000C912378002B00F0A4800023651C94F8FF
:1042180001808DF87F304FF0FF341A460A930593DA
:10422800069507942B460133A8F12001582900F27E
:10423800FE83DFE811F03D02FC03FC030903FC03E5
:10424800FC03FC03FC03FC03FC0344023902FC03EB
:1042580060003B03FC037B03820382038203820327
:1042680082038203820382038203FC03FC03FC03B0
:10427800FC03FC03FC03FC03FC03FC03FC035903E1
:10428800A303FC03A303FC03FC03FC03FC03930349
:10429800FC03FC03DA03FC03FC03FC03FC03FC0340
:1042A800A902FC03FC03C902FC03FC03FC03FC0396
:1042B800FC03FC03FC03FC03FC03FC0310032203C4
:1042C800A303A303A303DF022203FC03FC03E80206
:1042D800FC03F402100222025102FC035A02FC03FE
:1042E800A900FC03FC0381020699651A78E70A9C79
:1042F8000B9164420A94059D45F00405059593F8D1
:10430800008090E70998494601F0FAF9A0B9B9F890
:104318000C3003F01A030A2B7FF43CAFB9F90E30C6
:10432800002BFFF637AF0998069A4946234601F055
:10433800ABF945B0BDE8F08F4FF0FF3045B0BDE8B0
:10434800F08F0998494627AA03F07EFE40B934AE9B
:1043580054E7299B23B10998494627AA03F074FE1C
:10436800B9F80C305B06E7D40C9845B0BDE8F08F7F
:10437800284602F0EBFAF0E6069C42E7AFF300802D
:104388000000000000000000059C0693A20640F112
:1043980006820B9DEB1D23F0070303F1080CD3E9FC
:1043A8000045CDF82CC001234FF0000A8DF87FA0FE
:1043B8000799002905DBDDF814C02CF0800CCDF836
:1043C80014C054EA050040F04B830799002940F0D7
:1043D8004783002B40F0BD84DDF814C01CF0010FAA
:1043E80000F0B78444AF302307F8413D049DEC1B2F
:1043F800DDF81CC000256445A8BFA446CDF820C040
:104408001095BAF1000F02D0089D01350895059B5B
:1044180013F002030E9302D0089D02350895DDF8CB
:1044280014C01CF0840CCDF83CC040F016830A9DE3
:10443800DDF820C0CCEB050BBBF1000F40F30D837A
:10444800BBF1100F2999289ADFF828A527DD1797BF
:1044580010255746A246099C06E0ABF1100BBBF1AC
:10446800100F06F1080617DD01321031072A2991CD
:10447800289237607560F0DD2046494627AA03F088
:10448800E3FD00287FF46CAFABF1100BBBF1100F0C
:104498002999289A34AEE7DC5446BA46179F013268
:1044A8000BEB010C072ACDF8A4C0289286E8000C73
:1044B80000F39E849DF87FA00836BAF1000F0FD054
:1044C800289B01330CF1010C0DF17F010122072B10
:1044D800CDF8A4C0289386E8060000F320840836A7
:1044E8000E9B73B1289B01330CF1020C20A9022208
:1044F800072BCDF8A4C0289386E8060000F31C8497
:1045080008360F9D802D00F04C83079A151B002D4F
:104518003DDD102D289BDFF860A42CDD5146079463
:10452800AA464FF0100B6246099C0D4606E0AAF118
:10453800100ABAF1100F06F1080617DD0133103220
:10454800072B2992289386E82008F0DD2046494663
:1045580027AA03F079FD00287FF402AFAAF1100A18
:10456800BAF1100F299A289B34AEE7DC9446079CD1
:104578002A46554692460133AC44072BCDF8A4C0D1
:104588002893C6F800A0756000F3BD830836059D22
:10459800EB0500F1A682289B37600133A444072B62
:1045A800CDF8A4C07460289300F397830836059C5F
:1045B800620740D50A9D08982C1A002C3BDD102C68
:1045C800289BDFF8B0A322DD10256246DDF82480A1
:1045D800574604E0103C102C06F1080615DD01339F
:1045E8001032072B2992289337607560F2DD404618
:1045F800494627AA03F028FD00287FF4B1AE103CF5
:10460800102C299A289B34AEE9DC9446BA4601332B
:10461800A444072BCDF8A4C02893C6F800A0746062
:1046280009DD0998494627AA03F00EFD00287FF402
:1046380097AEDDF8A4C00C9C08980A9DA842ACBFB0
:10464800241864190C94BCF1000F40F05283002325
:10465800289334AEADE5DDF814C006931CF02003B2
:1046680000F0CE810B9CE31D23F0070303F108053E
:104678000B95D3E90045002396E60B9ADDF814C0A4
:104688000693151D30234FF078084CF0020CB748FC
:104698008DF880300B951468CDF814C000258DF87E
:1046A8008180169002237FE693F800802B22BAE5DA
:1046B80093F80080002A7FF4B6AD2022B3E50B9C66
:1046C8000B9D24680A94002C05F10401FFF60FAE37
:1046D8000B9193F80080A6E5DDF814C04CF0200C8F
:1046E800CDF814C093F800809DE50B9C06932768CD
:1046F8004FF0000A8DF87FA0251D002F00F0798665
:10470800079C002C3846C0F22E865146224602F0FD
:10471800BFFE002800F0B286079C0B95C01BA04284
:10472800B8BF044624EAE475CDF81CA0CDF840A033
:1047380008959DF87FA064E6059D8C4C0693AF060E
:1047480016948DF87F2047D5DDF82CC00CF10703AF
:1047580023F0070303F108040B94D3E90045DDF8BF
:1047680014C01CF0010F00F0F88254EA050000F0B4
:10477800F48230234CF0020C8DF880308DF8818063
:10478800CDF814C002230FE6DDF814C006934CF0F0
:10479800100CCDF814C0059CA2063FF5FAAD059C97
:1047A800E30600F13483DDF814C01CF0400F00F07C
:1047B8002E83DDF82CC0BCF800400CF1040C002559
:1047C8000123CDF82CC0EFE5059D694C0693AF0693
:1047D8008DF87F201694B7D4059DED0640F1EF843F
:1047E800DDF82CC0DCF800400CF1040CCDF82CC02E
:1047F8000025B4E7DDF814C04CF0400CCDF814C027
:1048080093F800800FE593F80080B8F16C0F194613
:1048180000F07B85059D45F01005059503E5DDF85D
:1048280014C006931CF0200F8DF87F2000F0A78499
:104838000B9C21680C9CE5172B460B9D22460435E2
:104848000B95C1E90023B4E4059D45F001050595E4
:1048580093F80080E7E40B9A0B9D069312688DF895
:10486800A8200023012404359A4608940B958DF856
:104878007F30079310932AAFC9E5059C0693A306DA
:104888008DF87F203CD50B9DE91D21F00701D1E96A
:10489800002308310B9114461D46002A73F10000CD
:1048A800C0F2D1839DF87FA0012381E593F80080B1
:1048B800B8F12A0F03F1010000F0B886A8F1300121
:1048C800092998BF002300F2298610F8018B03EB11
:1048D800830301EB4303A8F130010929F5D943EA21
:1048E800E373079303469FE4DDF814C006934CF086
:1048F800100CCDF814C0059C8DF87F20A306C2D4F7
:10490800DDF814C01CF0100F40F0B382059C670658
:1049180040F1AF82DDF82CC0BCF900400CF1040C6A
:10492800E51722462B46CDF82CC0B6E7059D45F085
:104938008005059593F8008075E40024A8F13001FE
:104948000A94204613F8018B00EB800001EB40002D
:10495800A8F130010929F5D90A9065E4059D45F0CB
:104968000805059593F800805DE400BF749B000876
:10497800609B0008409B0008949B0008059C0693D8
:1049880025078DF87F2040F10E840B9DEB1D23F049
:10499800070393ED007B8DED127B03F1080CCDF836
:1049A8002CC09DED120B03F075FA012840F05583D9
:1049B800DDE9120100220023FEF740FF002840F045
:1049C80033859DF87FA0DDF814C09F4F9F4B0025CD
:1049D80003242CF0800C08940795CDF814C0B8F186
:1049E800470FD8BF1F4610950BE5059D069345F068
:1049F80010050595DDF814C01CF020037FF432AED5
:104A0800DDF814C01CF0100240F03F82DDF814C03D
:104A18001CF0400300F03982DDF82CC0BCF80040DF
:104A28000CF1040C13460025CDF82CC0BCE4069309
:104A38008DF87F20B8F1000F3FF48BAC00234FF0C6
:104A4800010C9A46CDF820C08DF8A8808DF87F30EB
:104A58000793109364462AAFD9E4DDF8A4C02CE587
:104A6800012B00F0E380022B0DF1CF0318D1DDF804
:104A780058C0194604F00F00220942EA05720F4691
:104A88002B091CF80010397052EA030014461D4621
:104A980007F1FF31EED1049DCDE91A23EC1BA7E401
:104AA800E00840EA457004F00702E908303250EAAD
:104AB800010C1F461A7004460D4603F1FF33EFD16F
:104AC800059CCDE91801E007394640F1B880302A45
:104AD80000F0B580049D1F463023EC1B01F8013C13
:104AE80086E4B8F1650F40F3B780DDE912010022D2
:104AF8000023CDF80CC0FEF797FEDDF80CC00028A7
:104B080000F02E81289B524A326001330CF1010CCF
:104B18000122072BCDF8A4C02893726000F36F839D
:104B28000836219B0D9CA34203DB059DEF077FF50B
:104B38003EAD289B149D119C34600133AC44072B77
:104B4800CDF8A4C07560289300F3E88308360D9D5E
:104B58006C1E002C7FF72BAD102C289BDFF8F4A0DF
:104B680040F39C8110256246DDF82480574604E016
:104B78000836103C102C40F38F8101331032072B7C
:104B88002992289337607560F2DD4046494627AA86
:104B980003F05AFA00287FF4E3AB299A289B34AE35
:104BA800E7E70A980899451A002D7FF7AEAC102D53
:104BB800289BDFF8A0A02CDD51460E94AA464FF0A2
:104BC800100B6246099C0D4606E0AAF1100ABAF1DC
:104BD800100F06F1080617DD01331032072B299252
:104BE800289386E82008F0DD2046494627AA03F0E6
:104BF8002BFA00287FF4B4ABAAF1100ABAF1100F0F
:104C0800299A289B34AEE7DC94460E9C2A465546E2
:104C180092460133AC44072BCDF8A4C02893C6F8BC
:104C280000A0756000F3028208366EE4002D08BF0C
:104C38000A2C80F03F8144AF303407F8414D049D81
:104C4800EC1BFFF7D5BB00BF549B0008509B000826
:104C5800909B0008949B00080D9C012C289C40F315
:104C6800A78101340CF101050123072C299528940B
:104C78003760736000F3B781083614981199316072
:104C880001340544072C29952894706000F3C281EB
:104C98000836DDE9120100220023FEF7C5FD0028D1
:104CA80040F0BD800D9A0134531E01371D44072C76
:104CB800289429953760736000F389810836DDF8F8
:104CC80054C00134AC44159DCDF8A4C023AB072CC7
:104CD800289486E828007FF769AC0998494627AAEE
:104CE80003F0B2F900287FF43BABDDF8A4C034AE82
:104CF8005DE40998494627AA03F0A6F900283FF47D
:104D0800A6ACFFF72DBB0998494627AA03F09CF9E2
:104D180000287FF425ABDDF8A4C034AE37E4099849
:104D2800494627AA03F090F900287FF419ABDDF86B
:104D3800A4C034AEFFF7D4BB0998494627AA03F0AC
:104D480083F900287FF40CABDDF8A4C034AEFFF77C
:104D5800D8BB079C34AFFFF74BBB0223FFF724BB3C
:104D6800219B002B40F357820D9C109DDDF8348069
:104D7800AC42A8BF2C46002CB8440BDD289B3760FA
:104D88000133A444072BCDF8A4C07460289300F322
:104D9800FA820836109D24EAE4742C1B002C40F398
:104DA800B180102C289BDFF80CA740F31B825146DA
:104DB8001025BA466246DDF824B00F4604E00836EE
:104DC800103C102C40F30A8201331032072B299231
:104DD800289337607560F2DD5846494627AA03F0E4
:104DE80033F900287FF4BCAA299A289B34AEE7E758
:104DF8000998494627AA03F027F900287FF4B0AAA2
:104E08009DF87FA0DDF8A4C034AEFFF756BB0B9D1C
:104E18002C6804350B9501230025FFF7C5BA0D9BB7
:104E28005F1E002F7FF74BAF102FDFF888A640F3E7
:104E3800E6804FF01008DDF824B004E00836103F93
:104E4800102F40F3DC8001341035072C2995289465
:104E5800C6F800A0C6F80480F0DD5846494627AADF
:104E680003F0F2F800287FF47BAA299D289C34AE31
:104E7800E5E70B9DDDF82CC02C680CF1040CE51758
:104E8800CDF82CC022462B4607E50B9D2C6804352F
:104E98000B950025FFF788BA9446BA460133A44417
:104EA800072BCDF8A4C02893C6F800A074607FF73C
:104EB8007DAB12E70DF1CF0B204629460A220023CD
:104EC800FEF70CFD30328BF80020204629460A22D6
:104ED8000023FEF703FD04460D4654EA050C5F4621
:104EE8000BF1FF3BE8D1049DEC1BFFF781BA099851
:104EF800494627AA03F0A8F800287FF431AADDF86C
:104F0800A4C034AE109D219C2F440D9DAC4240DBC3
:104F1800059DE8073DD40D98C7EB0805041BAC4276
:104F2800B8BF2546002D0BDD289B37600133AC4404
:104F3800072BCDF8A4C07560289300F34B82083680
:104F480025EAE575641B002C7FF731AB102C289BF4
:104F5800DFF860A5A2DD10256246DDF824805746FB
:104F680003E00836103C102C96DD01331032072B75
:104F78002992289337607560F3DD4046494627AA91
:104F880003F062F800287FF4EBA9299A289B34AE35
:104F9800E8E7289B119D3560149D75600133AC448A
:104FA800072BCDF8A4C0289300F307820836B2E790
:104FB800059DE9073FF555AE01340CF101050123C4
:104FC800072C29952894376073607FF777AE099886
:104FD800494627AA03F038F800287FF4C1A9299D7B
:104FE800289C34AE6BE60998494627AA03F02CF8AA
:104FF80000287FF4B5A9299D289C34AE3DE60134EC
:105008003D44072C29952894C6F800A077607FF7BF
:1050180055AEDCE70998494627AA03F015F8002899
:105028007FF49EA9299D289C34AE32E6099849460A
:1050380027AA03F009F800287FF492A9DDF8A4C094
:1050480034AEFFF762BA4FF02D0A644265EB4505AE
:105058008DF87FA00123FFF7ABB99DED120B02F08D
:1050680019FF002800F02381079C013428F0200A4A
:1050780000F06F82BAF1470F04D1079C002C08BFDB
:1050880001240794DDE91223059D002B45F4807562
:105098000E95C0F255829DED127B8DED1C7B4FF075
:1050A800000BB8F1660F00F0DA81B8F1460F00F096
:1050B800D681BAF1450F0CBF079C079D099808BF18
:1050C800651C22AA25AB8DE80C009DED1C0B022166
:1050D8002A4621AB00F010FCB8F1670F074602D052
:1050E800B8F1470F05D1DDF814C01CF0010F00F02E
:1050F8003382BAF1460F07EB050400F0CB81DDE9F6
:105108001C0100220023FEF78FFB002840F0A58138
:10511800259B9C4206D930215A1C25921970259B43
:105128009C42F9D8DB1BBAF1470F0D9300F08D8133
:10513800B8F1650F40F39282B8F1660F00F03C8237
:10514800219C10940D9C109DAC4200F3EC81DDF87D
:1051580014C01CF0010F40F03C8225EAE5732C4690
:105168004FF06708BBF1000F40F064810E9D089373
:105178000595CDF81CB09DF87FA0FFF742B9DDF882
:1051880014C01CF0100F40F0AB80DDF814C01CF008
:10519800400F00F03D810B9C0C9D236804340B9458
:1051A8001D80FFF706B80B9CE31D23F0070393ED62
:1051B800007B08338DED127B0B93FFF7F2BB059C48
:1051C800640640F18680DDF82CC0BCF800400CF184
:1051D800040C0025CDF82CC0FFF7C1BA94463A4616
:1051E800574692460133A444072BCDF8A4C0289310
:1051F800C6F800A074603FF77AAE083682E60998D0
:10520800494627AA02F020FF00287FF4A9A8DDF864
:10521800A4C034AE85E4289AA249316001320CF169
:10522800010C0121072ACDF8A4C0289271605FDC27
:1052380008361C462CB90D9D1DB9059DED077FF557
:10524800B6A9289B149A119D356001336244149DB8
:105258002992072B7560289300F35381083664421E
:10526800002C72DD102CDFF84CA240F39B805146D5
:105278001025BA46DDF824800F4604E00836103CB5
:10528800102C40F38C8001331032072B299228937D
:1052980037607560F2DD4046494627AA02F0D4FE21
:1052A80000287FF45DA8299A289B34AEE7E7059D7E
:1052B8007D4F7E4B9DF87FA00790032425F0800545
:1052C800089405951090B8F1470FD8BF1F46FFF70F
:1052D80098B80B9D2C6804350B950025FFF73FBA4D
:1052E8000B9C0C9D236804340B941D60FEF761BF72
:1052F8000998494627AA02F0A7FE00287FF430A89B
:10530800219CDDF8A4C034AE94E7059C91F8018097
:1053180044F0200401330594FEF785BF09984946F7
:1053280027AA02F091FE00287FF41AA8DDF8A4C08D
:1053380034AE0CE40998494627AA02F085FE0028F5
:105348007FF40EA8299A289B34AEDDF834C00D9C52
:10535800376001339444072BCDF8A4C028937460B8
:105368007FF724A9B9E4CDF81CA002F001FE0B9543
:1053780020EAE07C079DCDF820C0044610959DF8F2
:105388007FA0FFF73EB80998494627AA02F05CFEBD
:1053980000287EF4E5AFDDF8A4C034AEFAE439465F
:1053A80057468A4601332244072B29922893C6F888
:1053B80000A07460BEDC0836C7E70998494627AAEA
:1053C80002F042FE00287EF4CBAF219CDDF8A4C099
:1053D80034AEA0E50998494627AA02F035FE002810
:1053E8007EF4BEAF219C0D99DDF8A4C00C1B34AE31
:1053F800A6E5079C1097062C28BF062424EAE47C1F
:10540800BA4607970B95CDF820C0294FFEF7F9BF8C
:10541800DDF82CC00C9CDCF800300CF1040CCDF845
:105428002CC01C60FEF7C5BE4FF02D0A8DF87FA07A
:10543800FFF7C9BA0E9D05954FF02D0A0025089370
:105448008DF87FA00795FEF7DFBF219BDC1C33DBBF
:10545800079C9C4230DB109374E6234662E622AA3E
:1054680025AB8DE80C000998079A9DED1C0B0321CC
:1054780021AB00F041FA079D07463AE624EAE47CAE
:10548800CDF820C0079C0B95079010909DF87FA041
:10549800FEF7B7BF3B78302B00F0A280219D2C444B
:1054A8002DE600BF909B00085C9B0008589B0008F5
:1054B800889B0008949B0008A8F10208013B002B78
:1054C8002193BABF5B422D222B22092B8DF88C80A9
:1054D8008DF88D2042DC303330228DF88F308DF8F6
:1054E8008E2024AB0D9D0D9C23AA9A1A012D15928E
:1054F800144440F391800134002524EAE4731095A4
:1055080030E60998494627AA02F09EFD00287EF455
:1055180027AF219C299A289B34AEA0E60024034695
:105528000794FEF781BE109C0D9D002CD4BFC4F1DA
:10553800020401242C4424EAE4734FF0670811E6BE
:10554800139912981C9001F100411D914FF02D0BF9
:10555800A7E50625079595E5259BE3E50DF19A0056
:10556800414DDA1785FB0351C2EBA10101EB810420
:105578000246A3EB440303F13000092910700B46DF
:1055880002F1FF30ECDC01F130030DF19B04D9B2DC
:10559800844202F8011C63D90DF18D00134601E025
:1055A80013F8011BA34200F8011FF9D10DF5887CFF
:1055B800C2EB4C03F63B95E7219D1095002D079C07
:1055C80023DDDCB9059DE80718D4109C24EAE473B0
:1055D800C8E5109D6C1C24EAE4734FF06708C1E528
:1055E800DDE91C0100220023FEF71EF900287FF4E4
:1055F80055AFC5F1010521952C4480E5079D6C1C2C
:10560800109D2C4424EAE473ACE514BB059DE9071E
:105618001FD401231C46A5E5DDF814C01CF00103C6
:105628007FF469AF109324EAE4739BE50B9DDDF8E2
:105638002CC02D6893F8018007950CF10401002D0A
:105648000B910346BEF6EFAD4FF0FF340794FEF71B
:10565800EABD079DAC1C24EAE47383E5219B2DE792
:105668000DF18E033EE700BF67666666AFF3008004
:1056780030B4044C0D46134601462A46206830BC17
:10568800FEF756BD680500202DE9F0430C46ADF243
:105698006C4DB1F80C90E769496EB4F80E80199119
:1056A8001AAD4FF480664FF0000E079729F00209F3
:1056B800676A00956946049502960596ADF80C90C0
:1056C800ADF80E800997CDF818E00646FEF730FDD4
:1056D800051E07DB3046694601F0E4F8002818BFCC
:1056E8004FF0FF35BDF80C305B0603D5A38943F0B6
:1056F8004003A38128460DF26C4DBDE8F08300BF3E
:105708002F4B1B6870B506460C4613B19A6B002ADE
:1057180036D0A589ABB219070CD52269AAB113F006
:1057280001011ED0636900215B42A361A160F2B14F
:10573800002070BDDA063BD55B0725D4226945F009
:105748000803A3819BB2002AE9D103F42071B1F5C3
:10575800007FE4D03046214601F07EFBA389226910
:10576800DDE7980758BF6169A160002AE0D1A389E5
:105778001A06DDD543F04003A3814FF0FF3070BD1A
:10578800184601F0E3F8C4E7216B49B104F140037E
:10579800994203D0304601F003FAA5890023236318
:1057A80025F02405002322696360ADB22260C6E7B4
:1057B80045F04005092333604FF0FF30A58170BDE7
:1057C800680500202DE9F04F03690D699D4283B0FB
:1057D800834600F38B80013D01F1140400F1140AA3
:1057E80054F825205AF825300132B3FBF2F8AA0004
:1057F800914600925244A1440192B8F1000F3DD065
:105808004FF0000E7046224653468C4652F8046B01
:105818001968B7B2360C07FB08EE06FB08F606EB6C
:105828001E461FFA8EF7C71BB0B217FA81F7C0EBF6
:10583800114000EB2740BFB247EA0047914543F8C3
:10584800047B4FEA20404FEA164EDFD2009A5AF8FE
:105858000230614693B9019A131F9A450CD252F847
:10586800043C4BB9A2F1080302E01A68043B1AB9D8
:105878009A4505F1FF35F8D3CBF81050584602F099
:1058880007F900282EDB08F101085346002254F8D6
:10589800046B1868B1B2521A360C12FA80F1C6EBD2
:1058A800104202EB214289B241EA0241A14543F884
:1058B800041B4FEA2242EAD25AF825200AEB850354
:1058C80082B91A1F92450BD253F8042C42B9083BEF
:1058D80002E01A68043B1AB99A4505F1FF35F8D376
:1058E800CBF81050404603B0BDE8F08F002003B05D
:1058F800BDE8F08F000000002DE9F04F9DB0044690
:105908000491016C269D069209935BEC10AB49B19A
:10591800436C4B60012202FA03F38B6001F074FEC2
:1059280000232364BBF1000FD94635DB00232B602D
:10593800A54B1A4609EA0303934216D00022002316
:1059480050465946FDF770FF56465F46804648B3B5
:10595800099E01233360279E002E00F0C9809B48D2
:10596800306001381DB0BDE8F08F099E42F20F7318
:105978003360BAF1000F00F0A4809548279E002EEE
:10598800F0D0C378002B00F0B58000F10803279E03
:1059980033601DB0BDE8F08F01232BF000492B6068
:1059A800CB46C5E7204647EC106B1BA91AAA02F0A4
:1059B8007DF95FEA19550C9040F08C801A9F1B9D69
:1059C8006FF482633D449D42C0F297821F3305F213
:1059D80012425B1B09FA03F32AFA02F243EA0200B5
:1059E800FDF744FC0126013DB846A1F1F87118966F
:1059F8000022784BFDF7FCFA6DA3D3E90023FDF7ED
:105A0800ABFC6DA3D3E90023FDF7F4FA064628465C
:105A18000F46FDF73BFC6AA3D3E90023FDF79CFC86
:105A280002460B4630463946FDF7E4FA06460F466D
:105A3800FDF72CFF39460890002230460023FDF779
:105A4800FDFE002840F02A82089E162E00F22382CE
:105A5800614B03EBC603D3E9000152465B46FDF7F1
:105A68000BFF002800F04E82013E08960026109693
:105A7800C5EB0805013D079500F12A8200260A9624
:105A8800089E002EC0F21882DDF81CE00F96B6447E
:105A98000026CDF81CE00E96049E092E2CD8052E63
:105AA800C4BF043E04960499A1F10203CCBF0026AA
:105AB8000126032B22D8DFE813F0AE03A302B703B5
:105AC800AB04464A424BC9F3130000280CBF1046EA
