:020000040800F2
:1000000000000220EDAA0008C5020008C70200088F
:10001000C9020008CB020008CD0200080000000061
:10002000000000000000000000000000CF020008F7
:10003000D102000800000000D3020008D502000829
:1000400035AB000835AB000835AB000835AB000810
:1000500035AB000835AB000835AB000835AB000800
:1000600035AB000835AB000835AB000835AB0008F0
:1000700035AB000835AB000835AB000835AB0008E0
:1000800035AB000835AB000835AB000835AB0008D0
:1000900035AB000835AB000835AB000835AB0008C0
:1000A00035AB000835AB000835AB000835AB0008B0
:1000B00035AB000835AB000835AB000835AB0008A0
:1000C00035AB000835AB000835AB000835AB000890
:1000D00035AB000835AB000835AB000835AB000880
:1000E00035AB000835AB0008D902000835AB000875
:1000F00035AB000835AB000835AB000835AB000860
:1001000035AB000835AB000835AB000835AB00084F
:1001100035AB000835AB000835AB000835AB00083F
:1001200035AB000835AB000835AB000835AB00082F
:1001300035AB000835AB000835AB000835AB00081F
:1001400035AB000835AB000835AB000809030008E3
:1001500035AB000835AB000835AB000835AB0008FF
:1001600035AB000835AB000835AB000835AB0008EF
:1001700035AB000835AB000835AB000835AB0008DF
:0801800035AB000835AB0008A7
:10018800204B1A684FF47A73B2FBF3F230B51E4B6A
:1001980022F07F42013A5A601C4AF021002482F87A
:1001A8002310072285B09C6008201A60EF3900F000
:1001B800F9FC4FF4704302930125032302A9144864
:1001C8008DF80D308DF80C508DF80E408DF80F40DD
:1001D80000F028FF0F4B104A009329460F48104B98
:1001E80001F02AF90F4B1B682146986803F09AF82A
:1001F80000F020F801460A460B4803F077F820463D
:1002080005B030BD0000002010E000E000ED00E087
:10021800000C024014000020640000203C0700206D
:10022800140100204001002008AD000800F03AB891
:10023800704700BFF7B5154A116841F08071116029
:10024800134A116841F00101116051680022114DF3
:1002580011482C68661A864298BF0C460F49104808
:100268000091C3EB07038CBF2A212E21561C03F0F3
:100278003DF82B6803F5EA33C033064A1168591A6A
:100288000029FADC176821463246E0E7FCED00E079
:10029800001000E0041000E0FF58000134AD000831
:1002A80026AD0008044B1A6812B11A68013A1A60A0
:1002B8005A6801325A607047C40600207047FEE74A
:1002C800FEE7FEE7FEE7704770477047FFF7AEBFEF
:1002D80010B5094CA37A4BB1084B1A6822F00602F4
:1002E8001A6000F013F8204602F0A6FA4FF48020B6
:1002F800BDE8104000F004BE3C07002010ED00E00F
:10030800014802F00DBD00BF3C070020344B1A68BD
:1003180042F001021A6000229A60196821F0847183
:1003280021F4803119602F495960196882B021F48D
:1003380080211960DA60019200921A6842F48032D2
:100348001A60274B1A6802F400320092019A0132AF
:100358000192009A1AB9019AB2F5A06FF1D11B68FF
:1003680013F4003318BF01230093009B012B30D1F5
:100378001B4B1A6C42F080521A641B4A116841F4F4
:10038800804111609A689A609A6842F400429A60C3
:100398009A6842F4A0529A60144A5A601A6842F065
:1003A80080721A600E4B1A6812F0007FFAD0104A59
:1003B80040F2056111609A6822F003029A609A6817
:1003C80042F002029A60064B9B6803F00C03082B6C
:1003D800F9D1084B4FF000629A6002B0704700BF35
:1003E80000380240103000240070004008544007D4
:1003F800003C024000ED00E01E4A1F4B916801F0EE
:100408000C01042903D0082903D01C4A25E01C4A02
:1004180023E05168506811F4800F00F03F000AD0C3
:10042800526847F6C07102EA0101154A8909B2FB10
:10043800F0F24A4309E0516847F6C07201EA020245
:100448000E499209B1FBF0F042430A49496801F4A8
:100458004031C90B0231B2FBF1F21A60054A196842
:10046800926802F0F00203EB1212127931FA02F2EA
:100478001A60704700380240000000200024F40091
:1004880040787D01002070470020704701207047A8
:10049800002070474FF0FF307047F8B50C461646FD
:1004A80088B900F098F878B1254605E0284600F0AC
:1004B8009FF86F1C013E3D4600F08DF808B1002EF4
:1004C800F4DC281BF8BD0020F8BD074B1A680AB9F0
:1004D800064A1A6018686B464118994296BF024B43
:1004E8004FF0FF3019607047CC0600208C160020B2
:1004F80010B508461446114600F06CF8204610BDA9
:1005080070477047704770477047704770470000E2
:10051800002070470020704721280FD1084B1A6827
:100528000A701A68120A4A705A888A70DA78CA7089
:100538001A790A715A794A719B798B710020704730
:100548003000002070B500230CE0084AC65C14682F
:10055800074D2E5501340133B4F5006F146001D1F5
:10056800002414608B42F0D1002070BDF0060020FA
:10057800880E00200C4BF0B51D6800230EE00B4AD6
:10058800C75C14680A4E37550134802C146001D1B9
:10059800803C14601268AA4204D001338B42EED129
:1005A8000020F0BD0220F0BDB00D0020C40D0020D9
:1005B800300D002007B502AB012103F8010D1846E4
:1005C800FFF7C0FF0EBD002100E00131435C002BA6
:1005D800FBD1B7E7B6E7044B1868044B1B68C01A91
:1005E80018BF0120704700BFC40D0020B00D0020C7
:1005F8000A4B0B491A68096891420BD009498A5C71
:1006080002701A680132802A1A6005D1803A1A608D
:10061800012070470020704701207047B00D00206E
:10062800C40D0020300D0020F0B51F4A1F4C136880
:1006380021689942264608D133E00133802B08BF50
:100648000023994201D111602BE0194CE55C0D2D76
:10065800254603D8E456174FA740EED4136000236D
:10066800EC181168615CC154116801335C18802C66
:1006780008BF4B42346859188C4212D06C5C0D2C60
:10068800EED80B4C61560B4C8C40E9D50021C15477
:10069800116859187F29116004D9034A80391160FB
:1006A80000E000231846F0BDB00D0020C40D002066
:1006B800300D002000002480704700BF12230B80FB
:1006C800004870474C00002004230B800048704706
:1006D8005E0000200A4608B50248034901F086F981
:1006E800014808BDB2AD0008C80D00200A4608B58B
:1006F8000248034901F07AF9014808BDC0AD000875
:10070800C80D002008B50A4608B9044800E00448A6
:10071800044901F06BF9034808BD00BFCBAD0008E0
:10072800D8AD0008C80D00200A4608B5024803499C
:1007380001F05CF9014808BDE5AD0008C80D0020CE
:1007480008B50A4608B9044800E00448044901F01D
:100758004DF9034808BD00BFF8AD000819AE000800
:10076800C80D00207047704737B50120014600F0DA
:1007780019FA4FF4D8530093022303258DF8043057
:100788006946023B20488DF806308DF807308DF811
:10079800055000F047FC08210A221B4800F03AFDEA
:1007A80009210A22184800F035FD0B210A221648B3
:1007B80000F030FD0A220C21134800F02BFD012423
:1007C8004FF480636946104800938DF806408DF811
:1007D80007408DF8055000F025FC0A210A460A4812
:1007E80000F018FD21464FF4804000F013FA8020F5
:1007F800214600F0E5F94FF08050214600F042FA1A
:10080800204600F07DFB3EBD0000024007B54FF4D6
:10081800C06000F029F843238DF80430383B8DF888
:100828000530083B8DF8063001A8023B8DF80730EB
:1008380000F024F80EBD782307224343B3FBF2F3FC
:10084800073A01329A42FCD970474FF47A735843F9
:10085800F1E700BFA8AE000800000020C406002091
:10086800C40600208C16002040F0BE61024B41F403
:100878002020D860704700BF00ED00E0C37870B456
:1008880063B902780121500902F01F0311FA03F23B
:100898002030164941F8202070BC7047144B467828
:1008A800DC6885780178E243C2F30222C2F1040CC5
:1008B8005FFA8CF416FA04F40F2656FA02F2A3F53E
:1008C800406302EA050CE4B24CEA040201EB030CB3
:1008D80012018CF800230078012200F01F0341095F
:1008E80012FA03F0014A42F82100D5E700E100E0DE
:1008F80000ED00E021F0604C2CF07F02024B42EA50
:1009080000019960704700BF00ED00E029B9054B70
:100918001A6922EA000119617047024B1A691043EB
:100928001861704700ED00E0044B1A6804280CBFFA
:1009380042F0040222F004021A60704710E000E05E
:100948000A4B1968002241F0010018609A60196882
:1009580021F0847C06492CF48030186059601868AE
:1009680020F480211960DA60704700BF0038024027
:1009780010300024024B00221A701870704700BF14
:1009880002380240034B1A6822F0F80141EAC0021B
:100998001A60704700380240014B1860704700BF6A
:1009A80000004742064B002201281A701A7004D032
:1009B800042801D10520187070471870704700BFCF
:1009C80070380240014B1860704700BF800E4742E4
:1009D80041EA000040EA821C009A5B08591E4CEA72
:1009E8000260024B40EA01425A60704700380240F8
:1009F800014B1860704700BF600047428001034BFD
:100A080040EA0171C3F88410704700BF0038024003
:100A1800014B1860704700BF68004742014B1860DF
:100A2800704700BF4C004742044B9A6822F0EC6CB8
:100A380040EA0C0040EA01029A6070470038024020
:100A4800044B9A6822F0784C40EA0C0040EA010214
:100A58009A60704700380240034B9A6822F00301FD
:100A680040EA01029A60704700380240024B9868D9
:100A780000F00C00704700BF00380240034B9A6832
:100A880022F0F00140EA01029A6070470038024003
:100A9800034B9A6822F4E05140EA01029A607047D9
:100AA80000380240034B9A6822F4604141EAC002D0
:100AB8009A60704700380240204A936803F00C039C
:100AC800042B10B41DD0082B1ED01D4B03601B49EE
:100AD8001C4A8C68C4F3031C12F80C40E3404360C2
:100AE8008C68C4F3822C12F80C4033FA04F4846046
:100AF8008968C1F3423C12F80C20D340C36010BC93
:100B08007047114B0360E2E75468516814F4800F92
:100B1800546814BF0C4B0A4BC4F3881201F03F0110
:100B2800064CB3FBF1FC0CFB02F16268C2F3014313
:100B38005C1C6200B1FBF2F30360C8E700380240B6
:100B48000024F4008C00002040787D0100F44073FC
:100B5800B3F5407F0AD1094B996820F0704221F41F
:100B6800F81122F4407C4CEA01029A60034B00051C
:100B78001A6F010D41EA02001867704700380240F9
:100B8800014B1860704700BF3C0E4742014B18608C
:100B9800704700BF400E4742014B1860704700BFC6
:100BA8005C01474229B9054B1A6B22EA0001196317
:100BB8007047024B1A6B10431863704700380240A5
:100BC80029B9054B5A6B22EA000159637047024B59
:100BD8005A6B1043586370470038024029B9054BD7
:100BE8009A6B22EA000199637047024B9A6B104393
:100BF800986370470038024029B9054B1A6C22EAFD
:100C0800000119647047024B1A6C1043186470474E
:100C18000038024029B9054B5A6C22EA0001596490
:100C28007047024B5A6C10435864704700380240B2
:100C380029B9054B1A6922EA000119617047024B6C
:100C48001A691043186170470038024029B9054BEA
:100C58005A6922EA000159617047024B5A691043E8
:100C6800586170470038024029B9054B9A6922EA51
:100C7800000199617047024B9A6910439861704767
:100C88000038024029B9054B1A6A22EA00011962A4
:100C98007047024B1A6A10431862704700380240C6
:100CA80029B9054B5A6A22EA000159627047024B7A
:100CB8005A6A1043586270470038024029B9054BF8
:100CC8001A6D22EA000119657047024B1A6D10432C
:100CD800186570470038024029B9054B5A6D22EA59
:100CE800000159657047024B5A6D104358657047AB
:100CF8000038024029B9054B9A6D22EA000199652E
:100D08007047024B9A6D104398657047003802404F
:100D180029B9054B1A6E22EA000119667047024B81
:100D28001A6E1043186670470038024029B9054BFF
:100D38005A6E22EA000159667047024B5A6E1043F8
:100D4800586670470038024031B9064B93F800C026
:100D58002CEA000119707047024B1A78104318707A
:100D6800704700BF0D3802404309012B0BD0022BFE
:100D7800094B0CBF1B6F5B6F00F01F0133FA01F0CA
:100D880000F001007047044B1B6800F01F0133FAA4
:100D980001F000F0010070470038024000B583B050
:100DA8000023019300E048B93120FFF7DDFF019BE4
:100DB8005A1C01920199B1F5A06FF4D13120FFF7C7
:100DC800D3FF003818BF012003B000BD024B586F95
:100DD80040F080725A677047003802400349CB6878
:100DE80018420CBF00200120704700BF00380240A5
:100DF800014B1870704700BF0E380240044B054A7B
:100E08000020186058609860D8605A61704700BF29
:100E1800003C0140FFFF7F00837970B443B3204B4F
:100E280001681E6802794579CC4304EA06061E600B
:100E38005E6802F1804C0CF59E3234405C601468A8
:100E480044EA0101116002689868D14301EA000090
:100E58009860D868102D01EA0001D96016D005F114
:100E6800804505F59E35286840EA02032B600BE0B3
:100E78000279016802F1804000F59E3CDCF8003000
:100E880023EA0102CCF8002070BC7047996841EA57
:100E980002009860D96841EA0200D860F4E700BF10
:100EA800003C014000230C220360037142718371EE
:100EB800704700BF024B196940EA01021A61704786
:100EC800003C014003494B6918420CBF0020012037
:100ED800704700BF003C0140014B5861704700BF9C
:100EE800003C014005490A684B69034004D01042A0
:100EF8000CBF00200120704718467047003C014095
:100F0800014B5861704700BF003C01403C4B984280
:100F180010B524D03B4988422BD03B4A904232D06E
:100F28003A4B984239D03A49884240D0394A90429F
:100F380047D0394B98424ED03849884255D0384A24
:100F4800904200D010BD01214FF48070FFF770FE71
:100F58004FF480700021BDE81040FFF769BE012002
:100F68000146FFF765FE01200021BDE81040FFF7AC
:100F78005FBE02200121FFF75BFE02200021BDE8D1
:100F88001040FFF755BE04200121FFF751FE042051
:100F98000021BDE81040FFF74BBE08200121FFF7F4
:100FA80047FE08200021BDE81040FFF741BE102091
:100FB8000121FFF73DFE10200021BDE81040FFF79A
:100FC80037BE20200121FFF733FE20200021BDE895
:100FD8001040FFF72DBE40200121FFF729FE4020D9
:100FE8000021BDE81040FFF723BE80200121FFF754
:100FF8001FFE80200021BDE81040FFF719BE00BF8A
:10100800000002400004024000080240000C0240B8
:10101800001002400014024000180240001C024068
:101028000020024000232DE9F0070A681C4601262B
:101038004FF0030C0BE0013416FA04F505EA020739
:101048000233AF4235D001340233102C5AD016FA8D
:1010580004F505EA0207AF42EDD1D0F8009091F807
:1010680004800CFA03F5ED4305EA090AC0F800A06C
:10107800D0F8009008FA03FA08F1FF385FFA88F808
:101088004AEA0909B8F1010FC0F800903DD9C768CC
:1010980091F807803D40C560C76808FA03F53D43ED
:1010A8000134C56016FA04F505EA02070233AF42B7
:1010B800C9D1D0F8009091F804800CFA03F5ED43FB
:1010C80005EA090AC0F800A0D0F8009008FA03FA67
:1010D80008F1FF385FFA88F84AEA0909B8F1010F00
:1010E800C0F8009031D9C76891F8078005EA07076A
:1010F800C760C76808FA03F501343D430233102C72
:10110800C560A4D1BDE8F0077047D0F808A091F8F1
:10111800059091F8068005EA0A0AC0F808A0D0F8F8
:1011280008A009FA03F949EA0A09C0F80890D0F8B2
:10113800049029EA07074760476808FA04F81FFA85
:1011480088F848EA07074760A1E7D0F808A091F8AF
:10115800059091F8068005EA0A0AC0F808A0D0F8B8
:1011680008A009FA03F949EA0A09C0F80890D0F872
:10117800049029EA07074760476808FA04F81FFA45
:1011880088F848EA07074760ADE700BF00234FF635
:10119800FF720260037143718371C371704700BFAE
:1011A80082B04FF480320192019B41EA030201921E
:1011B800019BC361C161019AC261C1690191C3699F
:1011C800019302B0704700BF036919420CBF0020A9
:1011D80001207047006980B2704700BF4369194217
:1011E8000CBF002001207047406980B2704700BFE3
:1011F80001837047418370470AB94183704701836F
:10120800704700BF41617047426981EA0203436148
:10121800704700BFCB08083301F0070130B48900DC
:1012280050F823500F248C4025EA040440F823404A
:1012380050F8234012FA01F141EA040440F823402F
:1012480030BC7047D0F8E41510B5044608698047EB
:10125800032384F81231002010BD00BFD0F8E41534
:10126800042208B580F81221CB689847002008BDF1
:1012780008B5D0F8E035DB6903B19847002008BD10
:10128800D0F8E01508B50B6A9847002008BD00BFE4
:10129800D0F8E01508B54B6A9847002008BD00BF94
:1012A800002110B50B460446402201F029FC80219C
:1012B80040220023204601F023FCD4F8E415A0784E
:1012C800012284F812214B689847002010BD00BF06
:1012D80010B582B06946044600F03CF99DF800104C
:1012E80001F01F03012B14D0022B0DD03BB1204677
:1012F80001F0800101F086FC002002B010BD2046FC
:10130800694600F0F1F9F7E72046694600F060F910
:10131800F2E72046694600F0CDF9EDE738B5044616
:1013280029B990F81131022B0DD0002038BDD0F822
:10133800E0255369002BF8D090F812C1BCF1030FD7
:10134800F3D19847F1E7D0F83421D0F820319A4208
:1013580010D9C1780129D0F82411C3EB020208BFC3
:10136800C918C0F8342108BFC0F8241192B200F09F
:10137800A5F8DAE7D0F83821B2FBF3F503FB152519
:101388005DB9934209D8D0F83C319A4205D22A4631
:1013980000F094F8C4F83C51C7E7D4F8E005C368F6
:1013A80023B194F812C1BCF1030F03D0204600F01A
:1013B800B9F8BAE720469847F8E700BF10B50446E1
:1013C80029B990F81131032B0DD0002010BDD0F8A9
:1013D800E0259369002BF8D090F812C1BCF1030FF7
:1013E800F3D19847F1E7D0F88C23D0F878339A42B4
:1013F80012D9C1780129D0F87C13C3EB020204BFCB
:10140800C918C0F87C13C0F88C239A4228BF1A4622
:1014180092B200F06DF8D8E7D0F8E0351B6923B137
:1014280090F812C1BCF1030F03D0204600F06AF80F
:10143800CBE79847F9E700BF2DE9F041069D044640
:1014480016461F468846FFF78FF920464146C4F8DE
:10145800E075C4F8E455C4F8E86501F095FAD4F8E5
:10146800E405036898472046BDE8F041FFF7CEB988
:1014780000207047D0F8E03510B504461A68904748
:10148800D4F8E40583689847002010BDD0F8E0251B
:1014980008B553689847002008BD00BF13460A46A0
:1014A800022110B5C0F83831C0F8343180F8111174
:1014B800002101F085FB002010BD00BF10B50C46CF
:1014C80013460021224601F07BFB002010BD00BF1F
:1014D80013460A46032110B5C0F89033C0F88C3380
:1014E80080F81111002101F041FB002010BD00BF60
:1014F80010B50C4613460021224601F037FB0020A8
:1015080010BD00BF38B50021042504460A460B4625
:1015180080F8115101F054FB204601F04DF90020EC
:1015280038BD00BF38B50021052504460A460B46DC
:1015380080F8115101F01AFB204601F03DF9002016
:1015480038BD00BF01EB810200EBC201B1F888038E
:10155800704700BF90F8C8250A7090F8C9C581F88F
:1015680001C090F8CB3590F8CA251B0203EB020C9A
:10157800A1F802C090F8CD3590F8CC251B0203EBFA
:10158800020CA1F804C090F8CF3590F8CE251B02C4
:1015980003EB020C1FFA8CF20123CA80C0F83C212D
:1015A80080F81131704700BF10B591F90030002B59
:1015B800044609DBC98839B1002101F023FB204624
:1015C800BDE8104001F0F8B8802101F01BFBF6E7F8
:1015D80038B54B780A79012B0C4605460ED003D353
:1015E800032B17D0002038BD90F81231022B09D0F8
:1015F800032B3CD0FFF7D8FF002038BD90F81231FC
:10160800022B1FD1002AEDD0802AEBD0114601F021
:10161800F9FAE7E790F81231022BF3D0032BE9D15E
:101628004B882BB922B1802A02D0114601F0EAFA80
:10163800D5F8E01528468A68214690472846FFF7DE
:1016480061FFCFE7032BD5D14B88002BCAD152B10C
:10165800802A08D0114601F0F5FAD5F8E015284699
:101668008A68214690472846FFF74CFFBAE712F0F0
:10167800800F0ED102EB820200EBC20393F87233A3
:101688008BB90B4A1360284609490222FFF706FF67
:10169800A8E702F07F0E0EEB8E0C00EBCC0090F862
:1016A8001A31002BEDD0024801210160EBE700BFA1
:1016B800D006002038B590F81231032B04460D46A9
:1016C80003D0FFF771FF002038BD0A79012AF8D846
:1016D800D0F8E02593689847E8880028F3D1204699
:1016E800FFF710FFEFE700BF70B54B7882B00C46EC
:1016F8000546092B13D8DFE803F0182A12401257C1
:1017080074128B05A1789B4E0129317107D890F886
:101718001231022B00F03F81032B00F0CD802146CF
:10172800FFF742FF002002B070BD90F81231991EF9
:101738000129F4D8D0F8140100287ED18D4B01205E
:10174800D86028468C490122FFF7A8FEEAE790F8FE
:101758001221911E0129E2D8B4F802C0BCF1010F90
:10176800E0D1D0F8E01500228B68C0F8142121469A
:1017780098472846FFF7C6FED4E76388012B00F098
:101788001C81022BCED1A38813F0FF0FCAD10169A7
:101798001C0A4A68631E1046042B00F2A480DFE886
:1017A80003F0A7B1ACB69E00A388002B40D1E28815
:1017B800002A3DD190F812E16288BEF1030FAED045
:1017C80002F07F0480F81341214601F069FA2846A7
:1017D800FFF798FE002C00F0EC80022085F812013B
:1017E800A0E76288110A4B1E062B98D801A151F870
:1017F80023F000BF9F180008611800084B18000864
:1018080027170008271700082717000827170008B8
:10181800E288012A83D190F81231022B00F0B780B8
:10182800032B7FF47CAF00F58871FFF737FE79E76B
:1018380028462146FFF7B8FE74E74E490322CA60DE
:101848007FE75FFA82FCBCF1050F3FF668AFDFE87F
:101858000CF095877E756C63D0F8E01580788B6AFC
:101868000DF106019847022242700146C5F8EC05C1
:10187800BDF80630002B3FF455AFE288002A3FF44C
:1018880051AF9A4238BF134628461A46ADF806307B
:10189800FFF704FE46E7D0F8E83580781A680DF1BE
:1018A80006019047E288402A014603D095F81201C4
:1018B8000128DDD10823E1E7002900F0898090F8AC
:1018C8001011012908D0FFF7E1FD3179284685F884
:1018D8001011FFF7CFFD2846FFF714FE22E7052376
:1018E80063F3061002464A602846FFF70BFE19E725
:1018F800012262F306100246F5E7032464F306109A
:101908000246F0E7022363F306100246EBE70422DF
:1019180062F306100246E6E7D0F8E81580788A698F
:101928000DF1060190470146A2E7D0F8E835807826
:101938005A690DF106019047014699E7D0F8E81574
:1019480080780B690DF106019847014690E7D0F8B9
:10195800E8258078D3680DF106019847014687E7A6
:10196800D0F8E81580788A680DF10601904701469D
:101978007EE700BFD0060020DC060020D0F8E8355E
:1019880080785A680DF106019047014670E71649BC
:10199800FFF784FDC6E600299ED00121032380F8C5
:1019A800101180F81231FFF765FD2846FFF7AAFDF0
:1019B800B8E6012185F81211B4E6D0F8E015C0F8B0
:1019C80014318A68214690472846FFF79BFDA9E60F
:1019D800022280F8122180F81011FFF757FD2846DF
:1019E800FFF790FD9EE600BFD806002030B4F8B19E
:1019F8000378002B1ED00446002314F8015F01333E
:101A0800DBB2002DF9D15C00A31CDCB213800322E9
:101A18000C704A7002785AB1022300255C1CE4B2AB
:101A2800CA540D5510F8012F0233DBB2002AF5D144
:101A380030BC704702242346E8E700BF10B5074CC6
:101A48002068FF2807D00649064A8B6812680649AD
:101A58009847FF232360002010BD00BFCC00002062
:101A680038000020E0060020800E002043230B8071
:101A780000487047D000002038B51F4C63685A1CD6
:101A8800052B626001D0002038BD94F808C00023FF
:101A9800BCF1010F6360F6D0E568174AB5F5006F31
:101AA80004BFE3601D462369AB4221D028BFC5EBC4
:101AB8000301D0F8EC35B3F8393038BFC5F500610B
:101AC8008B4251610DD2EA18C91AADB2E260616168
:101AD8000A4A812152190125257201F071F8002066
:101AE80038BD4A1900236361ADB2E2608BB2EFE7FB
:101AF80000201072C7E700BFE0060020880E002013
:101B080038B513490B7A012B01D0002038BD4C6938
:101B1800D4B1D0F8EC25B2F839309C420DD8CA6857
:101B28001319CB6000234B6192B2A3B2094C8121F7
:101B3800A21801F045F8002038BDCA68E41A9D18BB
:101B4800CD6092B24C61F1E70C72002038BD00BF45
:101B5800E0060020880E002001EB810C38B500EB70
:101B6800CC010446084D0948B1F888130269284693
:101B78009047D4F8EC35204601212A46B3F8403086
:101B880000F0F4FF002038BD400E0020380000208F
:101B980070B50B7813F060050C46064608D14B78F3
:101BA8000A2B1CD00B2B2DD0062B31D0284670BD0C
:101BB800202D03D0FFF7F8FC022070BDCD88002D42
:101BC80034D013F0800F10D14A781E4B1E491A608A
:101BD8001E4B2A461D60FFF77BFC002070BD1C4988
:101BE8000122FFF75BFC284670BD1A481649836836
:101BF80060782A46984730461349E288FFF74EFC3A
:101C0800002070BD8B78CBB9104A1846936170BD1F
:101C18004B88180A212803D1CA883A2A28BF3A22B1
:101C280030460D49FFF73AFC002070BD4878094955
:101C38002A468B6829469847284670BDFFF7B4FCAA
:101C4800284670BDCC000020800E0020E006002051
:101C5800F806002038000020E200002010B581219D
:101C6800044600F06DFF0121204600F069FF822143
:101C7800204600F065FF024843689847002010BDE1
:101C880038000020D0F8EC2538B50446812102231D
:101C9800B2F8392000F034FFD4F8EC550121B5F83A
:101CA80040200223204600F02BFF82210822032334
:101CB800204600F025FF094B0949022200251A7128
:101CC8005D7108688047D4F8EC35064AB3F84030AF
:101CD8002046012100F04AFF284638BD4C0000206C
:101CE80038000020400E002030B5054683B00023A0
:101CF80003200193FEF79FFD2B681B4C1A69019284
:101D0800019A002A14DB0320FEF795FD2B68196958
:101D180001910198013C00280ADB0320FEF78BFDA6
:101D28002B681A69013C0192EAD1002003B030BD4A
:101D380001990D4A41F00100019001991961186952
:101D48000190019810F0010F0AD0196901910198CA
:101D5800013A10F0010F03D01969013A0191F0D14D
:101D68000320FEF768FDE0E7400D030030B4C478B7
:101D780004BB00EB820003339B10D0F8D04019D08D
:101D880051F8042B01205D1E834205F001052260F5
:101D980010D02DB151F8042B02208342226009D0C3
:101DA8000A46023052F8045B25604D68111D8342D3
:101DB8002560F5D1002030BC704700BF0332921077
:101DC80070B4D0F8D0501CD02C680B46501E43F885
:101DD800044B0124A24200F0010010D028B1286869
:101DE8000224A24243F8040B09D02E681846023494
:101DF80040F8046B2E685E60031DA242F5D101EB2A
:101E08008201084670BC70472DE9F00F00230127B6
:101E180040220129C3708770828000F0A6800029C3
:101E280000F08C80477890F80080C3604FF400621F
:101E38000261002F00F0B0804FF4606A4FF48869A7
:101E48004FF4806B9C4602460CF5106442F8184F1C
:101E580001247B1E0CF53061BC42D16303EA040106
:101E68000CF512631CD251B10246022442F81C3F01
:101E78000CF53261BC42D1630CF5146310D2111D0C
:101E880053600234083203F1200503F50076BC42A2
:101E980003F50873CE634D60D36305F12003EED3D9
:101EA800C0F814B0C0F8CC90B8F1000F40D00CF5D1
:101EB800A0614FEA4815A5F1200402466D180CF5FB
:101EC800A463AB4242F8901FC4F340140FD034B15E
:101ED800024642F8943F0CF5A863AB4207D003F1E1
:101EE80020045360403394600832AB42F7D10CF5BC
:101EF80080514FEA0838A8F58054024688440CF50A
:101F08000053434542F8D01FC4F3003410D034B115
:101F1800024642F8D43F03F58053434508D003F501
:101F28008054536003F50053946008324345F6D15A
:101F3800C0F80CA10020BDE8F00F70474FF4A0696D
:101F4800194BA0F806904FF00C080627DFF864A09C
:101F5800DFF86490DFF864B0144AC17280F800803A
:101F680047709C46C36002616DE74FF0080804277C
:101F78004FF0A043C1724FF4A074022180F8008092
:101F88004770C4800172DFF838A0DFF83890DFF8B6
:101F980038B0074A9C46E5E74FF4606A4FF4886911
:101FA8004FF4806BBC467BE7000004400008044007
:101FB80000080050000E044040040440000404409F
:101FC800000E0050400400500004005038B5037A59
:101FD8000025012B044637D050F80C3FD96841F052
:101FE8004002DA60FFF780FE94F808C0617ABCF11D
:101FF800030F14BF4FF480324FF4403242F43013D1
:1020080009B142F47013E16814208B63FEF71DFCDC
:10201800E36894F808C0DA68BCF1030F08BF42F41B
:102028008032DA60207A03283BD094F803E0BEF1CE
:10203800010F07D1E3689A68052161F3440242F071
:1020480020009860002038BDC268417A936B65F320
:10205800104309B143F480139363D1686FF3861179
:102068006FF3965141F010036FF3C3036FF3C71377
:102078006FF351436FF3D343D36004F10C00FFF7C0
:1020880033FEE0780128DDD1052060F34405E268DD
:1020980045F02005956094F803E0BEF1010FC9D022
:1020A800D0E7196B012262F39B616FF3D75141F0BE
:1020B80080552D2060F316451D63C820FEF7C5FB2B
:1020C800E36845F400051D63C820FEF7BEFBACE7D6
:1020D800C368986840F001029A600020704700BF0A
:1020E800C368986820F001029A600020704700BF1A
:1020F80000B583B000230193019A114B42F02002EE
:102108000192019A61F38A120192019AC1680A61E7
:102118000A6901920AE00A6901920198013B10F0EC
:10212800200F07D00A69013B019203D0019810F0F3
:10213800200FF0D10320FEF77EFB002003B000BD86
:10214800400D030000B583B000230193019A0F4BA3
:1021580042F010010191019AC1680A610A6901926D
:102168000AE00A6901920198013B10F0100F07D0AC
:102178000A69013B019203D0019810F0100FF0D1C9
:102188000320FEF758FB002003B000BD400D0300FC
:10219800C26808B5D36801296FF35D736FF39E7346
:1021A80008D009B943F080433220D360FEF74DFBD5
:1021B800002008BD43F000533220D360FEF745FBF2
:1021C800002008BDC368586900F00100704700BFCF
:1021D800C068436913F0010F14BF00200120704745
:1021E800C368586900F00100704700BFC3685A69A6
:1021F80098691040704700BFC3685868704700BFAF
:1022080003691A6861F301021A607047C368002203
:102218004FF0FF319A615961596059610A499961D2
:1022280090F803C09869944514BF1146102141F4F1
:10223800872C4CF0081141F4401C20EA0C0040EABD
:102248000C0199611046704700080080F8B5D0F875
:102258000C510269002129600446106861F3CC2002
:1022680010600B46E17A012958D010212046FFF76B
:102278003FFF2046FFF766FF256900224FF0FF3039
:102288002A616A61A861EA616378002B31D004F1A0
:1022980014001746FF2650F8043F1968C1F3076E6B
:1022A8000EF0800C5FFA8CF1002918BF4FF09041B6
:1022B80019601F619E60637801329342EBD8C3B105
:1022C800002204F150001746FF2650F8043F196811
:1022D800C1F3076E0EF0800C5FFA8CF1002918BF6D
:1022E8004FF0904119601F619E60637801329342FC
:1022F800EBD82B6943F480702861E278012A08D171
:102308004022032062F38A0040F4803162F359418D
:1023180029632046FFF77AFF0020F8BD1668E068B9
:10232800C02780254FF4800167F30F0346F00306AA
:10233800166065F31F4365F30F014FF4A072456201
:102348008162C0F8043162F30F036FF31F43C0F8D2
:102358000831C0F80C3188E700698368C3F341038A
:102368005A1E022A04D8034AD11811F8010C7047E2
:102378000320704738AB00080369826998681168C0
:10238800C0F34100022808D06FF30A0111605968B0
:1023980041F480725A6000207047032060F30A01FC
:1023A8001160596841F480725A600020704700BF7C
:1023B80070B44B780022012B27D00C7800EB840CEA
:1023C800012515FA04F3DCF8544063F31F4223682F
:1023D800C3F3072505F0800C5FFA8CF575B98E6894
:1023E800CD78B1F806C066F30A0365F393436CF33E
:1023F800995343F0805343F4004121600069C16957
:102408000A43C261002070BC70470C7800EB840559
:10241800A34063F30F02AC69D9E700BF30B44A7830
:102428000023012A1C4614D0097800EB810C0125F1
:1024380015FA01F2DCF8541062F31F4400696FF3D7
:10244800CF330B60C36923EA0404C461002030BCA5
:102458007047097800EB81058A4062F30F04A96987
:10246800ECE700BFF0B44B78012B41D091F800C0E5
:102478004E6900EB8C035B6D1C681A69F6B18F68B6
:10248800F519013DB5FBF7F5AD05AD0D65F3DC427A
:1024980007FB05F565F312021A61C278012A17D005
:1024A800CA78012A1ED091F800C000EB8C0144F0D4
:1024B8000444486D04600020F0BC70478D6865F3E3
:1024C8001202012565F3DC421A61C278012AE7D1BC
:1024D8000B780A6900EB830CDCF854305A61CA782F
:1024E800012AE0D14B79002B72D044F00054DAE78E
:1024F8000D784A6900EB8504A5692E682C69002AC5
:1025080061D08B68CF7802EB030C0CF1FF3C62F3CF
:102518001204BCFBF3F363F3DC44012F08BF67F339
:102528005E742C61C578012D5FD0CB78012B52D019
:1025380062B103690C785D6B012717FA04F42C4328
:102548005C6391F803C0BCF1010F44D00D7800EB37
:10255800850C46F00446DCF818301E60CD78012D55
:10256800A9D1C478CB680978002CA4D194B2E21C14
:1025780000EB81009210D0F8D0409CD053F8041B97
:10258800561E012A06F001062160284693D02EB176
:1025980053F8041B0220824221608CD01946023075
:1025A80051F8045B25605D680B1D8242256082D06E
:1025B8001946023051F8045B25605D680B1D8242A4
:1025C8002560EBD177E762F3120463F3DC44A8E7F4
:1025D80044F0805467E70569AB6813F4807F0CBF4B
:1025E80046F0005646F08056B0E70D780C6900EBCF
:1025F800850CDCF818305C61A3E700BFF0B44B78B9
:10260800012B82B02FD091F800C04E6900EB8C04EA
:10261800636D1A681D690095FEB18E689DF80050BB
:102628009DF802404E6166F30605012666F3C40470
:102638008DF800508DF80240009C1C61C378012B76
:1026480041D091F800C000EB8C0042F00441426D8B
:102658001160002002B0F0BC70479DF800509DF852
:1026680002408E68DFE782694C6915681669009632
:10267800002C30D08B689C4242D99DF800404B61B9
:1026880063F306048DF800409DF802C0012464F34A
:10269800C40C8DF802C0009B1361C378012B27D0AE
:1026A80045F004431360C278002AD2D14A69002A4F
:1026B800CFD003690A78596B012010FA02F242EA76
:1026C80001005863C5E70B780C6900EB830CDCF854
:1026D80054305C61B5E79DF800709DF8026064F3C2
:1026E800060763F3C4068DF800708DF80260D2E720
:1026F8000B780C6900EB830CDCF818305C61CFE7D1
:102708009DF8003064F306038DF80030BCE700BF85
:102718004B78012B0AD0097800EB810CDCF8543097
:102728001A6842F400101860002070470B7800EB1C
:10273800830292691368C3F3076C0CF08000C1B27E
:1027480009B143F0804343F4001111600020704741
:1027580091F801C00B78C978BCF1010F00EB830C2C
:102768000CBFDCF81820DCF85420881E1368C1B2AE
:102778006FF35553012998BF43F08053136000202D
:10278800704700BF03699A69D96901EA0200000C21
:10279800704700BF00EB810C0269DCF854108B68AD
:1027A80050691840704700BF02699169D36901EA0E
:1027B800030080B2704700BF82B0012200230021CD
:1027C800009362F3C4011823C0228DF803208DF80A
:1027D80002108DF80030436D00991961C278012A02
:1027E80006D100F5B96159614FF080201A68186068
:1027F80002B07047D0F8143110B50446DBB1036954
:102808009A6812F0010F16D0817A41B1D0F80C21E4
:10281800D0F80C016FF341026FF3000202605968AF
:1028280041F001025A600520FEF70FF82369586845
:1028380020F00101596010BD837A6BB1026991687B
:1028480011F0010F08D0D0F80C31D0F80C016FF35B
:1028580041036FF300030360704700BF70B543780E
:102868000122044680F8122163B100F1140200230A
:10287800FF2152F8045FD06BA96081606078013352
:102888009842F6D8236900224FF0FF311A6120469A
:102898005A61DA619961FFF755FC20461021BDE8BD
:1028A800704025E44B78012B1AD00B7800EB83009D
:1028B800426D1168C1F3074000F0200C5FFA8CF3F9
:1028C8005BB900F002015FFA81FCBCF1000F0CBF9C
:1028D8004FF440504FF4005070474FF48050704709
:1028E800097800EB810CDCF818301868C0F3074051
:1028F80000F02002D1B239B900F00200C2B2002AB9
:102908000CBF3020202070471020704770B44D78DD
:10291800012D16D091F800C000EB8C06B2F5805F4F
:10292800756D2C68264619D0B2F5005F13D0B2F544
:10293800405F18D012B962F3CF3634462C6070BCB1
:1029480070470B7800EB8304102AA5692C6826468B
:1029580018D0202A05D144F00064EFE744F40014AD
:10296800ECE7302AE6D1C4F3074C0CF02003DAB2C6
:1029780022B944F0806040F08024DFE700224A71E9
:1029880070BCE5E670BCC3E62DE9F0410446FFF7EC
:102998003BFA66780127002184F8127184F8131134
:1029A800002E00F09A80731E4FF0400EB74203EAE3
:1029B800070284F8197184F81811A4F81E1184F814
:1029C8001B11C4F820E1C4F82411C4F82C113846AE
:1029D80004F1280334D292B10220B04283F819716D
:1029E80083F81871A3F81E7183F81B11C3F820E14E
:1029F800C3F82411C3F82C1104F1500320D2451C4C
:102A080083F81801A3F81E01023083F8197183F8BE
:102A18001B11C3F820E1C3F82411C3F82C1183F863
:102A2800417183F84051A3F8465183F84311C3F824
:102A380048E1C3F84C11C3F854115033B042DED307
:102A4800012000224027711EB04284F8712384F8C7
:102A58007023A4F8762384F87323C4F87873C4F831
:102A68007C23C4F8842301EA000104F1280334D24A
:102A780091B183F87003A3F876030220B04283F87B
:102A8800712383F87323C3F87873C3F87C23C3F8DE
:102A9800842304F1500320D2451C83F87003A3F863
:102AA8007603023083F8712383F87323C3F87873AD
:102AB800C3F87C23C3F8842383F8992383F89853B5
:102AC800A3F89E5383F89B23C3F8A073C3F8A423E9
:102AD800C3F8AC235033B042DED32046FFF700FBE7
:102AE8002046FFF773FA00212046FFF751FB2046E6
:102AF800FFF7ACFB2046BDE8F041FFF7E9BA00BF9D
:102B080038B501F07F05CCB205EB850100EBC101BA
:102B180014F0800F14BF01F58C7101F55C71EDB2F2
:102B2800E4090D704C708A60CB7004B1CD80022B23
:102B380001D100230B71FFF73BFC002038BD00BF1B
:102B480001F07F0208B5CBB202EB820113F0800FCF
:102B580000EBC10114BF01F58C7101F55C71DB0953
:102B68000A704B70FFF75AFC002008BD01F07F0186
:102B7800F8B501EB8105EC0005190027CEB285F800
:102B8800706385F8717390F803E0C5F88433BEF17B
:102B9800010F04F55C7408BFF6B2C5F87C23C5F8CC
:102BA800887300EB040108BFC5F880231EB1FFF746
:102BB80059FC0020F8BDFFF721FD0020F8BD00BF3B
:102BC80070B501F07F0505EB8504E100441801F5B7
:102BD8008C768119C4F824210126C4F82821002202
:102BE80084F8196184F81851C4F83021C4F82C31DC
:102BF8001DB1FFF737FC002070BDFFF7FFFC002078
:102C080070BD00BFCAB212F0800F10B511D101EB30
:102C1800810E00EBCE0C0CF55C7301F07F01D2093C
:102C2800012419709C705A701946FFF771FD002035
:102C380010BD01F07F0101EB810400EBC40303F533
:102C48008C73ECE7CAB212F0800F10B511D101EB0A
:102C5800810E00EBCE0C0CF55C7301F07F010024B3
:102C6800D20919709C705A701946FFF771FD2046F9
:102C780010BD01F07F0101EB810400EBC40303F5F3
:102C88008C73ECE711F0800F08B503D1FFF75AFAFF
:102C9800002008BD01F07F01FFF72AFA002008BDD7
:102CA80003690022186861F30A1202431A60704728
:102CB80003695A6803206FF341025A60FDF7C5BDE6
:102CC8000369586840F0020203205A60FDF7BDBD51
:102CD80011F0800F07D101EB810100EBC10C0CF55D
:102CE8005C71FFF7DFBD01F07F0303EB830200EBAC
:102CF800C20101F58C71F4E711F0800F07D101EBE7
:102D0800810300EBC30101F55C71FFF7FFBD01F022
:102D18007F0C0CEB8C0300EBC30101F58C71F4E71D
:102D28002DE9F04F83B00646FFF752FA10B903B009
:102D3800BDE8F08F3046FFF759FA81460028F6D0F3
:102D4800C0F3074101F00800C0B2002840F0188124
:102D5800C9F3074E0EF0040C5FFA8CF3002B66D112
:102D680009F0020C5FFA8CF313B1F2680221516189
:102D7800C9F3076101F0800C5FFA8CF393B1B07A64
:102D8800002840F004823369A84A5968106821F085
:102D980001015960826930469047F0684FF0004160
:102DA80041610120C9F3072101F0080C5FFA8CF397
:102DB800002B40F0CB8109F0080C5FFA8CF2002A56
:102DC80040F0BA8109F0100C5FFA8CF3002B40F048
:102DD8008D81C9F3072101F0100C5FFA8CF3002BE9
:102DE80040F04A81C9F3072101F0200C5FFA8CF307
:102DF800002B40F02881C9F3074202F0100C5FFA5B
:102E08008CF1002940F01481C9F3074101F0200C2E
:102E18005FFA8CF3002B8AD0844A116830460B6A1B
:102E28009847F0684FF40012426101207FE730466E
:102E3800FFF7BAFC8246002800F0A08037463446E7
:102E48004FF0000BCDF80490B0461AF0010F00F0D7
:102E58008A80D8F810305FFA8BF619695A6B08EB3C
:102E6800860C32FA06F5DCF81800ED0105F0FF02D1
:102E7800806842EA010909EA0005EDB215F0010F80
:102E880040F0B78105F004095FFA89F313B1BA6914
:102E98000425956005F00800C1B211B1BB69082589
:102EA8009D6005F0100C5FFA8CF212B1B96910251B
:102EB8008D6005F020095FFA89F010B1BB69202503
:102EC8009D6005F0400C5FFA8CF212B1B96940259B
:102ED8008D6005F002095FFA89F010B1BB6902251F
:102EE8009D6005F08005EDB2002D3CD0D4F82C1182
:102EF800D4F83001BB69D4F82021D3F818900D1A02
:102F0800954234BFAC4694460CF1030C1FFA89F97C
:102F1800B9EB9C0F25D9814223D911B3D4F82411D8
:102F280006E0D4F82C51AA421BD2AD1AD4F82021BD
:102F3800954228BF1546ABB232464046FEF716FF0B
:102F4800D4F83021BB69D4F82411AA18C4F8302168
:102F58009869491980B20335B0EB950FC4F824116C
:102F6800DFD880269E60283404375FEA5A0A02D0E8
:102F78000BF1010B69E7DDF8049046460120EFE606
:102F88003046FFF7FFFB044600284DD0DFF89CB021
:102F98003546B0460027CA4605E00435640808F1FE
:102FA800280840D0013714F0010FF6D05FFA87F9EE
:102FB80030464946FFF7EEFBC0B210F0010F13D0C0
:102FC8006B6D01209860F278012A00F04281DBF8ED
:102FD800001030460B684946984796F80390B9F1B7
:102FE800010F00F02981012000F002095FFA89F23F
:102FF80012B16B6D0220986000F0040C5FFA8CF13E
:1030080011B16A6D0420906000F0080E5FFA8EF02E
:103018000028C2D0DBF8001030468A6890476B6DF4
:1030280008219960B9E7D146012091E6C80000203F
:103038008D4802683046D1698847F3684FF480109C
:1030480058610120E0E63046FFF796F9F46830460B
:10305800E468FFF781F9032800F0C18001204021CE
:103068000523B070B18063F38D24F3684FF40052E8
:10307800DC6001205A61BEE630694368002423F011
:103088000102426021463046FFF732F875786DB18B
:1030980006F114022346FF2152F8045FD06BA960A1
:1030A800816096F801E001337345F5D30125336952
:1030B80065F30F040F214FF0FF322F2065F31F44F3
:1030C8009A61DC61596118611A686FF30A121A6013
:1030D8003046FFF771FB6449F2680B684FF4805083
:1030E800506119693046884728467BE6F3689D6930
:1030F80025F010049C611C6AC4F34342022A04F0C0
:103108000F054ED0062A11D106F5B96130460822BE
:1031180005EB8505FEF752FE06EBC50CC4F30A1451
:10312800DCF88813F3686018CCF88803986940F0D5
:1031380010029A6101204CE64B4802683046D1687B
:103148008847F3680820586101203BE64648036831
:1031580030465A6990473169F36889684FF40062CC
:103168005A61B07A88B111F0010F0ED0D6F80C313F
:103178003E4A196841F001001860196841F00300DF
:103188001860136943F006011161012013E6D6F8AF
:103198000C31D6F80C216FF341036FF30003136071
:1031A800F1E547F6F07204EA02010029BED005EB0A
:1031B800850E06EBCE05C4F30A142246D5F87C1317
:1031C8003046FEF7FBFDD5F87C23D5F88813F36865
:1031D80010196418C5F87C03C5F88843A6E70022CF
:1031E8004FF4007E0920B270A6F804E060F38D2445
:1031F8003BE71D4D586B2968BA69012505FA0BFE96
:1032080020EA0E0058634B6895604046314698475F
:1032180098F80390A9457FF435AEBBF1000F04D1AF
:1032280098F811C1BCF1040F01D04D462AE640467A
:10323800FFF7C2FA4D4625E627B996F811E1BEF127
:10324800050F01D04846CFE63046FFF7B5FA4846A5
:10325800CAE61A69D8F87813C2F3120CCCEB01034A
:10326800C8F88833B3E600BFC800002000ED00E0CE
:1032780070B54AF6A8664AF6A865C0F60006C0F614
:103288000005761BB61006D0002455F8043B01341F
:103298009847A642F9D14AF6A8664AF6A865C0F644
:1032A8000006C0F60005761BFCF7C2FFB61006D074
:1032B800002455F8043B01349847A642F9D170BD63
:1032C8000EB410B5044683B018B183690BB902F087
:1032D80031FF204606AC059A23468168019400F028
:1032E800D3F803B0BDE8104003B070470FB440F204
:1032F8004013C2F2000310B582B01C6824B1A36960
:1033080013B9204602F016FF204605AC049A23465E
:103318008168019400F0B8F802B0BDE8104004B02C
:10332800704700BF00290CBF022200224FF48063BF
:1033380000F000B82DE9F84340F24015C2F200054C
:1033480004460E4617462868984610B18369002B34
:103358005AD04AF66033C0F600039C425CD04AF665
:103368008033C0F600039C4259D04AF6A033C0F619
:1033780000039C4204BF2B68DC68022F94BF4FF007
:1033880000094FF0010959EAD87918BF4FF0FF300A
:1033980001D0BDE8F8832868214602F0ADFDA28976
:1033A80040F24013C4F8049012F0800FC4F818904B
:1033B800C2F2000336D1022F4FF67C7302EA0303F0
:1033C800A38135D0002E41D0012F296801BF43F0D9
:1033D8000103A381C8F10002A2619BB246F2F50283
:1033E80013F00800C0F600028A6226602661C4F85D
:1033F8001480CED013F0030F4FF000000CBF4346EB
:103408000346A360BDE8F88302F094FE4AF66033F1
:10341800C0F600039C42A2D12B685C68ADE72B681C
:103428009C68AAE71868216902F0C0FFA289C2E770
:10343800002004F1470243F002032260A381002325
:103448002261A36001236361BDE8F883B8F1000F2E
:1034580008BF4FF48068404603F090F9064628B14B
:10346800A38943F080039BB2A381ADE74FF480604A
:1034780003F084F9064618B9A3894FF0FF30D8E75E
:103488004FF48068ECE700BF2DE9F04FADF5AE6D65
:1034980081B01546099112930D9003F0E9F8006880
:1034A800179004F093FB1C900D9818B18369002BBA
:1034B80000F06A814AF660330999C0F60003994220
:1034C80000F06C814AF68033099CC0F600039C42E8
:1034D80000F0B08709994AF6A033C0F60003994274
:1034E80002BF0D9AD2680992099B9C89A3B213F472
:1034F800005F08D1099844F40054A3B2426E848155
:1035080022F40052426613F0080F01F08F830999E4
:103518000A69002A01F08A8303F01A030A2B00F0D3
:10352800EC800DF59C6A0DF590640AF1040A0023FD
:1035380056460334109308951A931B9318931D93BA
:103548000E930694CDF84CA5CDF85435CDF85035EA
:1035580008980378B3F1250218BF0122002B0CBF8D
:10356800002302F00103002B00F01C81421C1746C7
:1035780001323B78191E18BF0121252B0CBF0023EF
:1035880001F00103002BF2D10899B7EB010813D021
:10359800DDF85045DDF8545501343160072CC6F884
:1035A80004804544CDF85045CDF8545500F3828049
:1035B80008360E9A42440E923B78002B00F0848025
:1035C800781C002300210F93002408908DF86F4584
:1035D80020257B78024607914FF0FF372B210132D7
:1035E800A3F12000582800F21984DFE810F02C0419
:1035F80017041704360417041704170417041704CC
:1036080017047004DD0017045D00E1001704FB00D7
:103618000903090309030903090309030903090342
:1036280009031704170417041704170417041704C9
:103638001704170417045C03010117040101170498
:103648001704170417049502170417049B0217049C
:103658001704170417041704FA02170417041B03A6
:10366800170417041704170417041704170417047A
:10367800170417044603FE030101010101011004A8
:10368800FE0317041704AB031704BA03CC03E203C1
:103698007D031704830317043D0417041704590412
:1036A8000F9B12905B420F93079C44F0040407940D
:1036B800137894E70DF5A8620D9809990C3204F077
:1036C800B5FA58B9564674E7DDF8543533B10DF5F7
:1036D800A8620D9809990C3204F0A8FA09990E9A73
:1036E8008B8913F0400F18BF4FF0FF320E920E98DF
:1036F8005DB00DF5806DBDE8F08F099BDE8916F48D
:10370800004F7FF40EAF5F6E0DF58E61D3F820E0A9
:103718000C31D3F828C02A460D984FF48065129BC7
:1037280024F00204CDF8E074ADF888441FACADF87D
:103738008A64CDF87C44CDF88C440024CDF89CE410
:10374800CDF8A4C4CDF88454CDF89054CDF8944461
:10375800FFF79AFE00280E900BDB0DF58E610D9891
:103768000C3102F0C9FB0E99A04218BF4FF0FF318F
:103778000E91BDF8883413F0400FB8D0099A938998
:1037880043F040039381B2E702F0D4FC4AF6603379
:103798000999C0F6000399427FF494AE0D9A5268D5
:1037A8000992A1E6089F07E78DF86F15137816E7C9
:1037B80012F8013B2A2B01F00383A3F130000928FA
:1037C80001F29D821446002714F8013B07EB870796
:1037D80000EB4707A3F1300009282246F4D947EA4D
:1037E800E777FDE6079B43F0800307931378F6E637
:1037F80007991D46089211F0080F169300F0CC8720
:10380800129AD31D23F0070303F1080412941868D1
:103818001A905B681B931A981B9904F057F80128B3
:1038280040F08B861A98002200231B9906F090FD21
:10383800002841F005819DF86F2503204AF644636E
:103848004AF640610A901698C0F60001C0F60003D7
:1038580000244728D8BF0B4607991393032321F068
:103868008001149407911193199412B10A980130A8
:103878000A90079911F0020B02D00A9B02330A93AF
:10388800079C14F08404159440F03A830F980A9921
:10389800471A002F40F33483102F41F36281DDF87B
:1038A80054554AF64038DDF85045C0F60008294618
:1038B8004FF010092246099D4446DDF8348002E0A5
:1038C800103F102F21DD01323460C6F8049010310A
:1038D8000836072ACDF8502506F10803CDF8541507
:1038E800EEDD0DF5A862404629460C3204F09EF93B
:1038F80056460AF1080300287FF4F0AE103FDDF8C1
:103908005415102FDDF85025DDDCA0460D46144671
:103918000134C6F80080072C77603D44CDF8504547
:10392800CDF8545500F3DF829DF86F251E468AB105
:10393800DDF850450DF5AC630F33336001340123D6
:10394800072C73601D44CDF85045CDF8545500F34D
:103958007E840836BBF1000F11D0DDF850450DF517
:10396800AC630C33336001340223072C73601D44AD
:10397800CDF85045CDF8545500F35A840836159AB9
:10398800802A00F08383149911980F1A002F40F3AE
:10399800D583102F40F38B87DDF850452A46DFF892
:1039A800748B4FF0100B2346099D4446DDF8348094
:1039B80002E0103F102F21DD01333460C6F804B057
:1039C80010320836072BCDF8503506F10809CDF826
:1039D8005425EEDD0DF5A862404629460C3204F068
:1039E80025F90AF10809564600287FF477AE103FFA
:1039F800DDF85425102FDDF85035DDDCA0461546DE
:103A08001C460134C6F80080072C77603D44CDF889
:103A18005045CDF8545500F3FC83079A12F4807F83
:103A280040F0A982DDF85045119B01341398072C0A
:103A38001D44C9F80430C9F80000CDF85455CDF834
:103A4800504500F38A8209F10809079C14F0040F15
:103A580052D00F980A99461A002E4DDD102E41F3C8
:103A6800F080DDF850454AF64038C0F600081027C7
:103A78002346DDF824B04446DDF8348002E0103EE9
:103A8800102E1FDD01331035072BC9F80040C9F887
:103A9800047009F10809CDF85035CDF85455EEDD1C
:103AA8000DF5A862404659460C3204F0BFF8D146DD
:103AB80000287FF413AE103EDDF85455102EDDF8C3
:103AC8005035DFDCA0461C460134C9F80080072CBD
:103AD800C9F804603544CDF85045CDF854550BDD90
:103AE8000DF5A8620D9809990C3204F09FF800288A
:103AF8007FF4F4ADDDF854550E9A0A9C0F9B9C4256
:103B0800ACBF1219D2180E92002D40F0708300201D
:103B18005646CDF850051BE5079C44F00804079469
:103B280013785CE50799089241F010010791079A0C
:103B3800169312F0200300F02D81129BDA1D00234A
:103B480022F0070202F108041294D2E9004554EA6F
:103B580005000CBF0022012200208DF86F05002F00
:103B6800A2BF079921F080010791002F18BF42F0EA
:103B78000102002A00F07882012B00F0DB83022B7F
:103B880000F0E7830DF5A46B0BF1040B0BF1270391
:103B9800EA084FEAD40848EA457804F007041146D1
:103BA80004F130020D4644469C461A70013B54EA23
:103BB8000500EDD10799CDF84CC011F0010F40F088
:103BC8009A840BF1280BCCEB0B021192119C00206C
:103BD8009DF86F25BC42B8BF3C4614970A941990CB
:103BE80043E6079C089244F010040794079816933C
:103BF80010F0200F00F03F8112990123CA1D9FE7A2
:103C080014460020A3F1300814F8013B00EB8000B3
:103C1800A3F1300C2246BCF1090F08EB4000F1D9A2
:103C28000F90DDE408924AF65061079AC0F6000149
:103C3800169312F0200F189100F03E81129CE31D9C
:103C480023F0070303F108001290D3E9004554EA72
:103C58000502079B0CBF00220122134200F0D38308
:103C680016983023079901228DF86C35022341F00C
:103C780002018DF86D0507916EE716930121129BDD
:103C880000200A911C1D08921B68002211910DF555
:103C9800A461043112948DF86F051492199213914E
:103CA8008DF82435E5E50892079A169342F010023C
:103CB8000792079B13F0200F00F09E80129CE31DD3
:103CC80023F0070303F108001290D3E90045002C04
:103CD80075F10002C0F2208454EA05034FF0010395
:103CE8000CBF002201223AE7079840F02000079015
:103CF800137874E408920021129A16938DF86F15C0
:103D0800141D13681393002B00F07087002FC0F266
:103D18001887139800213A4602F0FEFF002800F0A9
:103D2800E387139BC01A1190B84240F340860020E5
:103D380027EAE77114900A919DF86F25129411975C
:103D4800199092E513786C2B0BBF079B079C43F0E7
:103D5800200344F010040ABF0793079412F8013FA8
:103D68003DE40892079A12F0200F00F00385129B99
:103D78000E9C129819682246E31704301290C1E984
:103D88000023FFF7E5BB0892079A169312F0200369
:103D98007FF4D3AE079911F0100200F0D984129C79
:103DA80022680434002512941446003A18BF0122F0
:103DB800D2E6129B7821079C002508924AF6646097
:103DC8001A6844F00204043307941293144630230B
:103DD800003A8DF86C3518BF0122C0F600008DF846
:103DE8006D15189002231691B6E61693079B089254
:103DF80013F0200F7FF462AF079911F0100F00F055
:103E08009A84129A146804321292E5175FE70798A9
:103E180040F0400007901378FFF7E1BB0892169333
:103E2800002B3FF451AC0DF5A464002201218DF85C
:103E38002435043400230A9111918DF86F351492BA
:103E48001992139415E59DF86F35002B40F0728395
:103E58008DF86F551378FFF7C2BB079840F0010043
:103E680007901378FFF7BBBB0798089210F0200F54
:103E780016937FF4C1AE079911F0100F40F0C68277
:103E8800079810F0400F00F0C18212990123002515
:103E98000A88043112911446003A18BF01225BE6E1
:103EA80008924AF66460079AC0F60000169312F06A
:103EB800200F18907FF4C2AE079911F0100F00F090
:103EC8002E84129A0025146804321292BFE6129BBF
:103ED800129C1B68201D002B0F93FFF6E1AB137893
:103EE8001290FFF77CBB0DF5A8620D9809990C326A
:103EF80003F09CFE00287FF4F1AB9DF86F25564631
:103F0800DDF8545513E5079A12F0010F40F01C81B3
:103F1800DDF850450135139A01230134C9F80430FE
:103F2800072CC9F80020CDF85455CDF8504500F3BA
:103F38009F8509F1080B0BF108091D9B0134072C1B
:103F48001D44CBF804300DF5AB63CBF80030CDF849
:103F58005455CDF850457FF778AD0DF5A8620D980A
:103F680009990C3203F062FE00287FF4B7ABD14602
:103F7800DDF8545569E51699652940F3E1801A98EA
:103F8800002200231B9906F0D9F9002800F06E8161
:103F9800DDF850454AF68063C0F60003C9F80030E2
:103FA80001340123072CC9F804301D44CDF85045CD
:103FB800CDF85455D8BF09F1080900F38084DDF81D
:103FC8006835109A934204DB079B13F0010F3FF406
:103FD8003CADDDF850451C9801341799072C054471
:103FE800C9F80400D8BF09F10803C9F80010CDF8D2
:103FF8005455CDF8504500F36285109A561E002E90
:1040080040F35284102E40F3A586DDF85045102762
:10401800DFF800852246DDF824B04446DDF8348018
:1040280003E0103E102E40F3F68101321C605F6001
:1040380010350833072ACDF8502503F10809CDF8C3
:104048005455EEDD0DF5A862404659460C3203F092
:10405800EDFD0AF10809534600287FF43FABDDF86F
:104068005455DDF85025DCE7002B40F0CC80079C48
:1040780014F0010F00F058810DF5A86101203023DC
:104088000B3111908DF84B3513919FE50F9B0A9CCE
:104098001F1B002F7FF777AC102F40F31286DDF837
:1040A80050453346DFF86C844FF010092246DDF89E
:1040B80024B04446DDF8348002E0103F102F21DDA3
:1040C80001321C60C3F8049010350833072ACDF874
:1040D800502503F10806CDF85455EEDD0DF5A8621C
:1040E800404659460C3203F0A1FD0AF10806534632
:1040F80000287FF4F3AA103FDDF85455102FDDF89F
:104108005025DDDCA04614460134C3F80080072C96
:104118005F603D44CDF85045CDF854557FF733AC3A
:104128000DF5A8620D9809990C3203F07FFD00285F
:104138007FF4D4AADDF85455564624E4B1466CE41D
:10414800109901297FF7DFAEDDF850450135139B43
:104158000134C9F800300123072CC9F80430D8BF4E
:1041680009F10809CDF85455CDF85045D8BF09F1E3
:10417800080600F3868101341C991798072C0D4412
:10418800D8BF06F1080BC9F80410C9F80000CDF82B
:104198005045CDF8545500F362811A980022002347
:1041A8001B9906F0CBF8002840F0F180109B0134F1
:1041B80013985A1E7260431C072C33601544CDF8BF
:1041C8005045CDF854557FF7B6AE0DF5A8620D9859
:1041D80009990C3203F02AFD00287FF47FAA0AF11E
:1041E8000809D346DDF85455DDF85045A5E60DF528
:1041F800A8620D9809990C3203F018FD00283FF4C5
:1042080086ACFFF76BBA11920DF5A8620C321392C7
:10421800DCE40DF5A8620D9809990C3203F006FD4F
:1042280000287FF45BAAD146DDF85455FFF7F5BBAB
:104238000DF5A8620D9809990C3203F0F7FC0028D7
:104248007FF44CAADDF854555646FFF798BB0DF598
:10425800A8620D9809990C3203F0E8FC00287FF455
:104268003DAADDF854555646FFF774BBDDF868657E
:10427800002E40F33383109E199C1398A642A8BFC2
:1042880026461099002E00EB010B11DDDDF8504594
:10429800AD19C9F800000134C9F80460072CCDF83D
:1042A8005455CDF85045D8BF09F1080900F3658485
:1042B800199A26EAE676961B002E40F30F84102EF4
:1042C80040F35085DDF850452946DFF8488210272D
:1042D8002246099D4446DDF8348003E0103E102E46
:1042E80040F3678201321031072AC9F80040C9F843
:1042F800047009F10809CDF8502509F10803CDF833
:104308005415EBDD0DF5A862404629460C3203F042
:104318008DFCD1460AF1080300287FF4DFA9DDF8F7
:104328005415DDF85025D9E711930DF5A8630C3322
:1043380013934BE40A2C75F1000180F0B4800DF55D
:10434800A863303401220B3311928DF84B45139337
:104358003CE40DF5A46B18990BF1040B0BF1270045
:1043680004F00F02230943EA05734FEA151C8A5C1F
:104378001C460346654601381A7054EA0502EFD117
:104388000BF1280B1393C3EB0B0311931EE4109945
:104398004F1E002FDCBF06F10809B3467FF7CDADED
:1043A800102FD8BFDFF86C814CDDDFF86881234619
:1043B8002A464FF010094446099DDDF8348002E092
:1043C800103F102F3BDD01333460C6F804901032E3
:1043D8000836072BCDF8503506F1080BCDF85425D3
:1043E800EEDD0DF5A862404629460C3203F01EFCAE
:1043F8000AF1080B564600287FF470A9DDF8542509
:10440800DDF85035DCE70223FFF7A6BB129B129CB0
:104418001A680123C5E4A04614460134C3F8008095
:10442800072C5E603544CDF85045CDF854557FF7DC
:104438000CAB92E50D9880680990FFF755B8A04637
:1044480015461C460134C6F80080072C77603D44A9
:10445800CDF85045CDF854557FF76DADB5E60DF55F
:10446800A8620D9809990C3203F0E0FB00287FF44C
:1044780035A9DDF854550AF1080BDDF850455646C4
:104488008BE60DF5A8620D9809990C3203F0CEFB66
:1044980000287FF423A9DDF854550AF10806DDF851
:1044A8005045D14667E60DF5A46BB1460BF1040BF8
:1044B8000BF12708204629460A22002305F098FF19
:1044C800464620462946002308F1FF3802F1300409
:1044D8000A22347005F08CFF04460D4654EA0500A4
:1044E800E8D113960BF1280B13994E46C1EB0B013B
:1044F8001191FFF76BBB302A00F05E8313930BF129
:10450800280B1398C3EB0B04302311940370FFF7A7
:104518005DBB00BF50AB0008644265EB45052D2329
:1045280054EA05008DF86F350CBF002201220123E3
:10453800FFF715BB1378FFF752B81A981B9903F0C9
:10454800C5F9002800F06182B7F1FF3F00F0E18370
:10455800169CA4F1670EDEF1000343EB0E03472C13
:1045680008BF43F0010313B1002F08BF01271B9BAD
:104578000798002B40F480700790C0F2C583DDF8DF
:104588006C9000221492169BA3F16604D4F1000BE0
:104598004BEB040B462B08BF4BF0010BBBF1000F94
:1045A80040F05783452B02D0652B40F0B48307F1C8
:1045B800010802231A9C0DF5AD61CDF82C900093EB
:1045C8000A94DDE90A2302910DF5AC610D980431D6
:1045D800CDF8048003910DF5AC61049100F02EFD37
:1045E800169AB2F1670318BF0123472A0CBF0023AC
:1045F80003F00103139023B9079B13F0010F00F098
:10460800A683139800EB0804BBF1000F06D00378CB
:10461800302B00F0B783DDF86835E4181A980022CB
:104628000023494605F08AFE002800F03D83234612
:10463800CDF860451699139CA1F167004242C4EB7E
:10464800030342EB00021093472914BF134642F0BC
:104658000103002B00F00B83DDF8683513F1030F1D
:10466800119302DB9F4280F2348316980238169029
:10467800013B169A002BCDF868358DF85825C0F205
:104688008F832B228DF85925092B40F3478346F257
:1046980067640DF590600230C6F2666484FB0321FE
:1046A800DA170546C2EBA10202EB8201A3EB410136
:1046B80013463031092A00F80119EFDC303305F8C8
:1046C800013C0DF590636A1E03339A4280F087839C
:1046D8000DF5AA630A3312F8011B03F8011B1946EA
:1046E800069C9442F7D80DF5AB631098CB1A109935
:1046F80018181D930129119040F33B83119B002446
:10470800199401331193149B002B40F0A582119C3E
:104718009DF86F2524EAE4740A94FFF7A6B8079B6E
:1047280013F0400F00F06A811298002504880430C5
:104738001290FFF78CBA079B13F0400F00F05781D7
:104748001298B0F9004004301290E517FFF7BFBA8D
:10475800079810F0400300F03F81129B0025129C3F
:1047680019880434134612940A1E0C4618BF0122F5
:10477800FFF7F2B9079911F0100F40F0258107985B
:1047880010F0400F00F0888212990E9A0B680431DD
:1047980012911A80FEF7DCBE1299CB1D23F0070395
:1047A80003F1080212921C681A945B681B93FFF7C6
:1047B80032B8A0460D4614460134C9F80080072CCB
:1047C800C9F804603544CDF85045CDF8545500F388
:1047D8001F82DDF86825109CA24254DB079810F070
:1047E800010F50D1139C19982118109CC1EB0B078D
:1047F800A21ABA42B8BF1746002F0DDDDDF85045A2
:10480800ED19196001345F60072CCDF85455CDF8C7
:10481800504500F3D981083327EAE776961B002E26
:1048280042DD102E40F39682DDF850451027DFF860
:10483800B8852246DDF824B04446DDF8348003E02C
:10484800103E102E7FF7E7AD01321C605F60103517
:104858000833072ACDF8502503F10809CDF8545537
:10486800EEDD0DF5A862404659460C3203F0DEF93C
:104878000AF10809534600287EF430AFDDF8545594
:10488800DDF85025DCE7DDF850451C990134179810
:10489800072C0D4459601860CDF85455CDF8504593
:1048A80000F37A8108339DE79946FFF7CEB806F101
:1048B8000809DDF85045DFF83085FFF7A2B80DF597
:1048C800A8620D9809990C3203F0B0F900287EF41B
:1048D80005AFDDF85455D146FFF771BBDDF85045FB
:1048E8004AF68063C0F60003C9F80030013401239A
:1048F800072CC9F804301D44CDF85045CDF854555F
:10490800D8BF09F1080900F3A08036B9109B23B974
:10491800079C14F0010F3FF498A8DDF850451C9847
:1049280001341799072C0544C9F80400C9F8001088
:10493800D8BF09F10809CDF85455CDF8504500F312
:10494800AC807642002E40F3EB80102ED8BFDFF803
:10495800988440F3C780DFF8908423461027DDF859
:1049680024B04446DDF8348003E0103E102E40F3B6
:10497800B78001331035072BC9F80040C9F8047017
:1049880009F10809CDF85035CDF85455EDDD0DF590
:10499800A862404659460C3203F048F9D14600282F
:1049A8007EF49CAEDDF85455DDF85035DDE7119BFB
:1049B800002212940024149223EAE3739DF86F25D1
:1049C8000A931994FEF751BF129A0E9C1368043289
:1049D80012921C60FEF7BCBD1298002502680430D4
:1049E80012901446003A18BF0122FFF7B5B8129981
:1049F8000C6804311291E517FFF769B9129900257F
:104A08000C6804311291FFF722B914904AF64C63EE
:104A18004AF648621698C0F60002C0F60003472816
:104A2800D8BF13461393149B032407990A9421F0C3
:104A380080019DF86F25079111941993FEF715BF12
:104A48002D228DF86F25FEF7F8BE0DF5A8620D989A
:104A580009990C3203F0EAF800287EF43FAEDDF83D
:104A68006865D146DDF85455002E7FF456AF4DE702
:104A78000DF5A8620D9809990C3203F0D7F80028B3
:104A88007EF42CAE0DF59C69DDF8545509F10C093E
:104A9800DDF85045D346FFF750BA0DF5A8620D98DA
:104AA80009990C3203F0C2F800287EF417AEDDF83D
:104AB8006865D146DDF85455DDF8504541E70DF5F8
:104AC800A8620D9809990C3203F0B0F800287EF41A
:104AD80005AEDDF854555346FFF78FBA4B4678E6D6
:104AE800A0461C460134C9F80080072CC9F80460A8
:104AF8003544CDF85045CDF85455D8BF09F10809CB
:104B08000EDD0DF5A8620D9809990C3203F08EF8A8
:104B180000287EF4E3ADDDF85455D146DDF8504564
:104B28000134109B139A072C1D44C9F80430C9F8A6
:104B38000020CDF85045CDF854557EF784AFFFF7E7
:104B48000CBA13980021149103F040F8149B1294A6
:104B5800199320EAE07211900A929DF86F25FEF7EA
:104B680084BE4AF6403806F10803DDF85455C0F60D
:104B78000008DDF85045FEF7CBBE0DF5A8620D988C
:104B880009990C3203F052F800287EF4A7ADDDF83D
:104B98005455D146FFF78CBB0DF5A8620D980999BD
:104BA8000C3203F043F800287EF498ADDDF8682550
:104BB8005346DDF8545515E6139B0BF1280BC3EB50
:104BC8000B031193FFF702B80DF5A8620D98099928
:104BD8000C3203F02BF800287EF480ADDDF8682550
:104BE80053461098DDF85455821A15E6062F28BF4B
:104BF80006274AF6786027EAE771C0F600001A46E9
:104C080011970A911294149319931390FEF72DBEDD
:104C18000DF5A8620D9809990C3203F007F80028E1
:104C28007EF45CAD5346DDF85455D2E50D980999EC
:104C380000F0EAF800287BD1099A9489A3B2FEF71C
:104C48006BBC4AF64038DDF85045C0F60008FEF760
:104C58003BBFB8460323ADE411982D2200218DF8FF
:104C68006F2520EAE07014910A90FEF7FFBD1699AF
:104C7800662940F09A80DDF86835002B119340F3DF
:104C880097801FB9079810F0010F02D05A1CD2194B
:104C980011921993169536E5129C0E9823680434E0
:104CA80012941860FEF754BCDDF860359C427FF61C
:104CB800C1AC302203F8012BA342CDF86035F9D1FD
:104CC800B8E43346DDF850450836DFF81C81FFF7B5
:104CD8001BBA109A934230DB079C14F0010F4FD097
:104CE800581C67251190D4E727EAE77214900A92B6
:104CF80012949DF86F2511971990FEF7B6BD0027FD
:104D080047EAE777FEF76CBC2D2103F100491491BF
:104D180039E406272BE4B84602234BE40DF5AA61D3
:104D2800303330220C318DF85A258DF85B35DAE4B2
:104D38004FF0FF330E93FEF7DABC002B1099D4BF67
:104D4800C3F102020122521867251192A1E7DDF88A
:104D580060356FE403F10809DDF85045DFF8888015
:104D6800FFF75BBB09F10803DDF85045DFF87880F1
:104D780022E5079A12F001037FF4C0AC1993C2E44C
:104D8800672586E71A9800220023494605F0D6FAD7
:104D980000287FF440ACC8F10103CDF868353AE447
:104DA8002D225B428DF859256EE4DDF868355FE405
:104DB8001FB9079911F0010F0ED00237119768E754
:104DC800129807680430002FBFF689A813784FF0AF
:104DD800FF371290FEF703BC0122119259E70DF537
:104DE800AA610A317FE400BF50AB000830B440F23A
:104DF8004014C2F200040D46134601462A462068B4
:104E080030BCFEF741BB00BF70B540F24015C2F29E
:104E1800000506460C46286810B18369002B36D079
:104E28004AF66033C0F600039C4238D04AF6803315
:104E3800C0F600039C4241D04AF6A033C0F60003F6
:104E48009C4204BF2B68DC68A289104693B213F019
:104E5800080F18BF216934D021B313F0010207D01D
:104E680063690022A2605B42A36141B1002070BD6A
:104E780013F0020F08BF6269A2600029F6D1A38966
:104E880013F0800F14BF4FF0FF30002070BD01F009
:104E980051F94AF66033C0F600039C42C6D12B682C
:104EA8005C68D1E703F42072B2F5007FD5D02146C3
:104EB800304601F0EDFBA3892169CEE72B689C6899
:104EC800C2E713F0100F1DD013F0040F08BF2169BB
:104ED80013D0616B49B104F14403994203D03046C1
:104EE80001F064FAA089002363634FF6DB7221693D
:104EF80000EA020200236360216042F00803A381F4
:104F08009BB2A9E74FF0FF3070BD00BF0000000062
:104F18002DE9F04F83B0036981460D6901919D42E7
:104F280000F38980EA1C01F1140400F11408013D22
:104F380092008B1882181F1D59685068013104F0BF
:104F48009FFC064600283CD0002042462346864661
:104F580053F804CB11681FFA8CFB4FEA1C4C1FFA5C
:104F680081FA0BFB060BD6440CFB06F000EB1B404A
:104F78001FFA8BFBCBEB0E0A1FFA80FE000CCEEB60
:104F8800114E9F420EEB2A4E1FFA8AFC4CEA0E4144
:104F98004FEA2E4E42F8041BDAD22A1D09EB82038F
:104FA800596871B998450AD259F822203AB9043B90
:104FB80002E053F8042912B9013D9845F9D3C9F81C
:104FC80010504846019902F069FA00282FDB013693
:104FD80043464FF0000C54F8040B19681FFA80FA86
:104FE800000C8AB2C0EB1141CAEB0202A7429444FA
:104FF80001EB2C421FFA8CFC4CEA02414FEA224C8E
:1050080043F8041BE7D22A1D09EB8203596871B9DA
:1050180098450AD259F822203AB9043B02E053F8DD
:10502800042912B9013D9845F9D3C9F81050304602
:1050380003B0BDE8F08F0020FAE700BF2DE9F04F7C
:105048009FB0456A0446904699462B9E002D00F075
:1050580090832B6853B16A680125194695409D6075
:105068005A6001F0D9FF636A00221A60B9F100059D
:10507800C0F2D3800023336000231A46C7F6F073CA
:10508800C7F6F07205EA0303934200F0AF800022EE
:10509800002340464946CDE90289012605F04EF92C
:1050A80088B916F0FF0F12D12A9801232C990360B2
:1050B8004AF68060C0F6000011B17B4B581E0B60A9
:1050C8001FB0BDE8F08F002616F0FF0FECD0204689
:1050D800DDE902231CA900911DA9019102F0F2FA51
:1050E800C5F30A568246002E00F0AC800398A6F558
:1050F8007E761D9F073E20F07F43002123F4700336
:10510800169143F07E5343F4E00303930023DDE953
:1051180002010022C3F6F87304F0F4FC5CA3D3E99F
:10512800002304F0A3FE5CA3D3E9002304F0ECFC05
:10513800CDE90201304604F033FE59A3D3E9002338
:1051480004F094FE02460B46DDE9020104F0DCFCA3
:10515800CDE9020105F024F9002200230546DDE926
:10516800020105F0F5F840B1284604F019FEDDE922
:10517800022305F0E3F800B9013D162D00F255822F
:105188004AF6D0314246C0F600014B4601EBC50154
:10519800D1E9000105F0FAF8002800F00083013D8C
:1051A80000201590013FBE1B00F1F48200200B96F1
:1051B8000D90002DC0F2E6820B9900221195491935
:1051C8000F920B91289A092A70D8052A40F39086E5
:1051D8000027043A28922898831E032B00F20A8499
:1051E800DFE813F00204EC03CC0305042A9842F22A
:1051F8000F7303604AF69060C0F60000B8F1000F24
:1052080011D02C9900293FF45BAFC278C31C0AB1B6
:1052180000F108032C9A136052E725F0004501239A
:10522800A946336028E74AF684624AF69063C5F3D4
:105238001300C0F60002C0F6000300280CBF104699
:105248001846DEE71D9F1C9BFB1803F586639E1C12
:10525800202EDCBFC6F1200008FA00F007DDC6F1F9
:1052680040001E3B854028FA03F345EA030001226B
:10527800169204F085FDA6F58666033E0B460246A7
:10528800CDE90223039BA3F1F87303933EE700BF24
:1052980061436F63A787D23FB3C8608B288AC63F34
:1052A800FB799F501344D33F81AE000800204FF094
:1052B800FF310746012228900E9110920A912990F9
:1052C800666A002373602046716801F071FE636AA4
:1052D80030601B680C93002F00F0DE80002D4046E4
:1052E8004946CDE90889CDE9020140F32E844AF602
:1052F800D03305F00F02C0F600032E1103EBC203F2
:1053080016F0100F08BF4FF00208D3E90001CDE9ED
:10531800120140F04782BEB14AF69847DDE91223F0
:10532800C0F6000716F0010F1046194607D0D7E956
:10533800002308F1010804F099FD02460B460837DE
:105348007610EFD1CDE91223DDE90801DDE912235A
:1053580004F0B6FECDE908011599002938D00023DC
:10536800DDE908010022C3F6F073012604F0F0FF1E
:10537800002800F001830A9A002AD4BF002606F00C
:1053880001062EB30E9B002B40F3828000230022DF
:10539800C4F22403DDE9080104F068FDCDE9080141
:1053A80008F10100691E129104F0FAFC02460B464E
:1053B800DDE9080104F05AFD00230022C4F21C03B1
:1053C80004F0A2FBDDF838B08046A1F150793CE248
:1053D800404604F0E5FCDDE9082304F047FD00231E
:1053E8000022C4F21C0304F08FFB0A9AA1F1507644
:1053F8008046B146002A40F0258200230022C4F2EC
:105408001403DDE9080104F07DFB42463346CDE98B
:10541800080104F0BBFF002840F00F824246DDE996
:10542800080106F1004304F093FF002830D0DDF8AE
:1054380028B0CDF820B0299B00270C9EDD435946A3
:10544800204601F0E9FD089971B13B1E18BF012300
:105458008F420CBF002303F00103002B40F05E8352
:105468002046089901F0D8FD2046514601F0D4FDA8
:105478000023337001352A9A2C9B1560002B00F00D
:1054880018841E600C981BE6189DDDF85CA0089C2B
:10549800DDE90201804689461C9BDF43FF0F0E2D84
:1054A800CCBF002707F00107002F00F0C1804AF6A3
:1054B800D0332999C0F600030A9A03EBC503CF0F2E
:1054C800D3E90001002ACCBF002707F00107CDE986
:1054D8000201002F40F09E8102460B464046494695
:1054E800CDE9048904F0ECFD04F05AFF0C9E8146D6
:1054F80004F056FCDDE9022304F0B8FC02460B4632
:10550800DDE9040104F0FEFA09F13003CDE90401F4
:1055180006F8013B0A9A012A56D000230022C4F259
:1055280024034FF0010804F0A1FC00220023CDE978
:10553800040104F003FF00B1B84618F0FF0F93D040
:105548000A9937460C98A046079500EB010BCDF851
:1055580028A05D46DDE904AB0DE004F087FC0022DD
:10556800002382468B4604F0E9FE00B1002414F0C3
:10557800FF0F00F00F84DDE902235046594601244D
:1055880004F09EFD04F00CFF814604F009FCDDE9FF
:10559800022309F1300604F069FC02460B46504626
:1055A800594604F0AFFA002307F8016B0022AF4216
:1055B800C4F224033E4682468B46CED1CDE904ABE5
:1055C8004446079DDDF828A0DDE9040102460B46A4
:1055D80004F09AFACDE90401DDE90423DDE90201CA
:1055E80004F0B6FE60B9DDE90201DDE9042304F048
:1055F800A5FE00283FF438AF19F0010F3FF434AF8F
:1056080012950C98334613F8011C5A1E1E46134671
:10561800392940F0E1838342F5D10C983121129B5E
:105628005D1C3023037011701EE701211591B9E547
:105638001099002940F0C780109B0F9F0D9E08937A
:10564800002E0B98D4BF002301230028D4BF0023C9
:1056580003F001034BB103460D99B342A8BF33468B
:10566800F61AC91AC01A0D910B900F9A002A1ADD62
:10567800109B002B00F09483002F10DD08993A4608
:10568800204601F063FE524608902046089901F032
:10569800C9FD51468346204601F0BEFCDA460F9804
:1056A800C21B40F084830121204601F0B1FD11990D
:1056B8000029834605DD59462046119A01F046FE29
:1056C8008346289A012A40F39E81002711990029D0
:1056D80040F0F28201230B9A9B1813F01F0300F08D
:1056E8002282C3F12003042B40F3F683043B0D9878
:1056F800F618D218C0180B920D900D9B002B05DDE3
:10570800514620461A4601F073FE82460B9800283F
:1057180005DD594620460B9A01F06AFE8346159925
:10572800002940F0D38228990A9A0229D4BF00237D
:105738000123002ACCBF002303F00103002B00F053
:105748007C81002A7FF477AE594605220A9B2046C1
:1057580001F07EFC83465046594601F09FFE002822
:105768007FF769AE0C9E31230135002706F8013B0F
:1057780065E6102001F002F860624560856005600A
:10578800C56073E40D9B684200210F905B1B11916B
:105798000D9317E5764200230D960B9309E5002239
:1057A8001592FFE44AF698434046C0F6000349467E
:1057B80006F00F064FF00308D3E9082304F080FC35
:1057C800CDE90801A7E5289A012A40F3F6820A994B
:1057D8000F9A4B1E9A42A8BFC3EB02070A9ABFBF93
:1057E8000F981199C0EB0303C918BEBFC0181191D7
:1057F8000F90002AC0F2F9820D9E0A9B0D9A20464E
:105808000121D2180D920B9AD2180B9201F000FDCB
:10581800089015E70A9B002B40F0D882002300224D
:10582800C4F21403DDE9020104F020FB42464B46B2
:1058380004F0A2FD00287FF4FAADDDF828B0CDF819
:1058480020B08FE7DDF828B01295109B002B00F0F0
:10585800AF814AF6D0330021C0F60003002003EBE5
:10586800CB03C3F6E0710C9E53E9022304F028FC35
:1058780042464B4604F046F980468946DDE9080170
:1058880004F08EFD074604F08BFA02460B46DDE96C
:10589800080104F037F907F13003CDE90801404663
:1058A80006F8013B4946DDE9082304F06FFD0028AE
:1058B80040F0FC810021DDE908230020C3F6F071E7
:1058C80004F020F902460B464046494604F05EFDC6
:1058D80000287FF496AEBBF1010F7FF7D9AD0C9885
:1058E800374618958344CDF85CA05D46DDE908ABE2
:1058F80008940FE000210020C3F6F07104F002F9CB
:1059080042464B4604F024FD002840F06A82AF422C
:105918003FF4BAAD00230022C4F2240340464946AE
:1059280004F0A4FA00230022C4F224038046894626
:105938005046594604F09AFA8B46824604F030FDE8
:10594800044604F02DFA303402460B4650465946B8
:1059580004F0D8F842464B4607F8014B3E468246CB
:105968008B4604F0F5FC52465B460028C2D0DDF8B1
:105978005CA0089C129D77E50026FCE401231093A7
:1059880029990029C2BF8B460E910A9140F3B48130
:10599800666A0022BBF1170F726040F2A1820423ED
:1059A8005B00013203F114015945F9D90A9B726071
:1059B8000E2B8CBF002707F0010784E40023109307
:1059C800299828180E9000F1010BBBF1000FC8BFF1
:1059D800CDF828B0DCDCBBF10E0F8CBF002707F038
:1059E8000107CDF828B06BE400201090C8E7012229
:1059F8001092E5E74FF0FF33002701200E93109037
:105A08000A9329975CE4B8F1000F7FF45EAEC9F3FE
:105A180013034746002B7FF459AEC7F6F07309EA23
:105A280003031F46002B3FF451AE0D9B01270B9833
:105A380001330D9301300B9048E61098002800F0D0
:105A48006181002E05DD20460899324601F0D0FC20
:105A58000890002F40F0ED81089802900A9908F00C
:105A680001020C9E089F71180A920B9108955946DD
:105A78005046FFF74DFA39464FF00109303007908C
:105A8800504601F00BFD5946029A0546204601F0A2
:105A980023FDC3688046002B3AD02046414601F0DA
:105AA800BBFA289B59EA030303D10A98002800F09F
:105AB800F381002DC0F29D812898284303D10A99CB
:105AC800002900F09681B9F1000F00F3D281079AFE
