:020000040800F2
:10000000000002209DB600089D010008AD01000817
:10001000BD010008CD010008DD010008000000005E
:10002000000000000000000000000000ED010008DA
:10003000FD010008000000000D0200088901000811
:100040001D0200082D0200083D0200084D020008B4
:100050005D0200086D0200087D0200088D020008A4
:100060009D020008AD020008BD02000865400008BE
:10007000754000088540000895400008A54000082C
:10008000B5400008C54000083D0300084D030008C6
:100090005D0300086D0300087D0300088D03000860
:1000A0009D030008AD030008BD030008CD03000850
:1000B000DD030008ED030008FD0300080D0400083F
:1000C0001D0400082D0400083D0400084D0400082C
:1000D000993C0008314A0008294A0008214A0008D2
:1000E0009D040008AD040008BD040008CD0400080C
:1000F000DD040008ED040008FD040008D5400008F8
:100100001D0500082D0500083D0500084D050008E7
:10011000194A0008114A00087D0500088D050008ED
:10012000E5400008F54000080541000815410008B9
:1001300025410008ED050008FD0500080D06000832
:100140001D0600082D0600083D060008990100085C
:10015000354100084541000855410008094A00089A
:100160008D0600089D060008AD060008BD060008C3
:10017000CD060008DD060008ED060008FD060008B3
:080180000D0700081D0700082F
:10018800024B1A6801321A60704700BF340B002016
:1001980000F066BD024B002205201A6003F0C7BCC0
:1001A80000000020024B012205201A6003F0BFBCAA
:1001B80000000020024B022205201A6003F0B7BCA1
:1001C80000000020024B032205201A6003F0AFBC98
:1001D80000000020024B042205201A6003F0A7BC8F
:1001E80000000020024B0520186003F0A0BC00BFEF
:1001F80000000020024B062205201A6003F097BC7D
:1002080000000020024B072205201A6003F08FBC73
:1002180000000020024B092205201A6003F087BC69
:1002280000000020024B0A2205201A6003F07FBC60
:1002380000000020024B0B2205201A6003F077BC57
:1002480000000020024B0C2205201A6003F06FBC4E
:1002580000000020024B0D2205201A6003F067BC45
:1002680000000020024B0E2205201A6003F05FBC3C
:1002780000000020024B0F2205201A6003F057BC33
:1002880000000020024B102205201A6003F04FBC2A
:1002980000000020024B112205201A6003F047BC21
:1002A80000000020024B122205201A6003F03FBC18
:1002B80000000020024B132205201A6003F037BC0F
:1002C80000000020024B142205201A6003F02FBC06
:1002D80000000020024B152205201A6003F027BCFD
:1002E80000000020024B162205201A6003F01FBCF4
:1002F80000000020024B172205201A6003F017BCEB
:1003080000000020024B182205201A6003F00FBCE1
:1003180000000020024B192205201A6003F007BCD8
:1003280000000020024B1A2205201A6003F0FFBBD0
:1003380000000020024B1B2205201A6003F0F7BBC7
:1003480000000020024B1C2205201A6003F0EFBBBE
:1003580000000020024B1D2205201A6003F0E7BBB5
:1003680000000020024B1E2205201A6003F0DFBBAC
:1003780000000020024B1F2205201A6003F0D7BBA3
:1003880000000020024B202205201A6003F0CFBB9A
:1003980000000020024B212205201A6003F0C7BB91
:1003A80000000020024B222205201A6003F0BFBB88
:1003B80000000020024B232205201A6003F0B7BB7F
:1003C80000000020024B242205201A6003F0AFBB76
:1003D80000000020024B252205201A6003F0A7BB6D
:1003E80000000020024B262205201A6003F09FBB64
:1003F80000000020024B272205201A6003F097BB5B
:1004080000000020024B282205201A6003F08FBB51
:1004180000000020024B292205201A6003F087BB48
:1004280000000020024B2A2205201A6003F07FBB3F
:1004380000000020024B2B2205201A6003F077BB36
:1004480000000020024B2C2205201A6003F06FBB2D
:1004580000000020024B2D2205201A6003F067BB24
:1004680000000020024B2E2205201A6003F05FBB1B
:1004780000000020024B2F2205201A6003F057BB12
:1004880000000020024B302205201A6003F04FBB09
:1004980000000020024B312205201A6003F047BB00
:1004A80000000020024B322205201A6003F03FBBF7
:1004B80000000020024B332205201A6003F037BBEE
:1004C80000000020024B342205201A6003F02FBBE5
:1004D80000000020024B352205201A6003F027BBDC
:1004E80000000020024B362205201A6003F01FBBD3
:1004F80000000020024B372205201A6003F017BBCA
:1005080000000020024B382205201A6003F00FBBC0
:1005180000000020024B392205201A6003F007BBB7
:1005280000000020024B3A2205201A6003F0FFBAAF
:1005380000000020024B3B2205201A6003F0F7BAA6
:1005480000000020024B3C2205201A6003F0EFBA9D
:1005580000000020024B3D2205201A6003F0E7BA94
:1005680000000020024B3E2205201A6003F0DFBA8B
:1005780000000020024B3F2205201A6003F0D7BA82
:1005880000000020024B402205201A6003F0CFBA79
:1005980000000020024B412205201A6003F0C7BA70
:1005A80000000020024B422205201A6003F0BFBA67
:1005B80000000020024B432205201A6003F0B7BA5E
:1005C80000000020024B442205201A6003F0AFBA55
:1005D80000000020024B452205201A6003F0A7BA4C
:1005E80000000020024B462205201A6003F09FBA43
:1005F80000000020024B472205201A6003F097BA3A
:1006080000000020024B482205201A6003F08FBA30
:1006180000000020024B492205201A6003F087BA27
:1006280000000020024B4A2205201A6003F07FBA1E
:1006380000000020024B4B2205201A6003F077BA15
:1006480000000020024B4D2205201A6003F06FBA0B
:1006580000000020024B4E2205201A6003F067BA02
:1006680000000020024B4F2205201A6003F05FBAF9
:1006780000000020024B502205201A6003F057BAF0
:1006880000000020024B512205201A6003F04FBAE7
:1006980000000020024B522205201A6003F047BADE
:1006A80000000020024B532205201A6003F03FBAD5
:1006B80000000020024B542205201A6003F037BACC
:1006C80000000020024B552205201A6003F02FBAC3
:1006D80000000020024B562205201A6003F027BABA
:1006E80000000020024B572205201A6003F01FBAB1
:1006F80000000020024B582205201A6003F017BAA8
:1007080000000020024B592205201A6003F00FBA9E
:1007180000000020024B5A2205201A6003F007BA95
:10072800000000200C4A0D4B10B51C6853680121CD
:1007380011FA03F020421446094A01D1106003E07F
:1007480003F110008140116001330F2B636002DD5B
:10075800014B0C225A6010BD00000020140C02400E
:10076800180C0240064B01221B6812FA00F11942CC
:10077800044B01D119607047103082401A607047ED
:10078800140C0240180C024070B50646002411E013
:10079800325D0C492A4102F001020620002A14BFEA
:1007A80031222E22013504F043F9082DF0D101340D
:1007B800032C01D00025EBE703490620BDE8704073
:1007C80004F036B938B90008D7B9000830B54A4836
:1007D8004A4C85B003F09AFA03F022F9484B1B689B
:1007E8000021986804F016FD4FF4807230230093BE
:1007F8004FF4E1311346062004F0C0F8414B42495A
:100808001A6842F080721A60404B1A6842F001027E
:100818001A60062004F00CF93D4B3E491A68062080
:10082800B2FBF4F204F004F93B4B3C491A68062089
:10083800B2FBF4F204F0FCF8394B3A491A68062086
:10084800B2FBF4F204F0F4F8374B38491A68062082
:10085800B2FBF4F204F0ECF80C24214601343448DD
:10086800344AA4B203F0FDF8102CF6D1254B324CD3
:100878001A6842F080721A60244B1A6842F001022A
:100888001A6003F09DF92D4B2D491B681C192D4B3F
:100898001A889B78ADF80C2006208DF80E3004F0ED
:1008A800C7F803A8FFF770FF0620274904F0C0F82F
:1008B8000025224B1B681B1B002BFADD04F1A064EA
:1008C80004F5DE340C2004F58074FFF74BFF03F0C9
:1008D800B5F928B103A802A9032203F0B7F9013535
:1008E8001A4B1B491B6806202A4604F0A1F802A8E7
:1008F800FFF74AFFDDE700BFE8B6000840420F00F7
:100908006C020020FCED00E03BB90008001000E09C
:100918003408002066B9000838080020A0B900088B
:100928003C080020DAB900084008002014BA000882
:10093800000C0240FCB6000800BD0105041000E0F0
:100948004EBA000801B7000866BA0008300800204F
:100958007FBA0008A4BB000800000020EC070020B4
:10096800EC070020E81A002000207047002070479C
:10097800012070470020704738B50B4D2C680B2CB0
:100988000DDC03F01DFD50B1084B43F8340003EBB8
:10099800C40300225A602B6801332B6001E04FF03A
:1009A800FF34204638BD00BF08000020380B002067
:1009B8000C282DE9F0410C46154623DC002825DBE0
:1009C800144E06EBC0035B682BB956F83000BDE83F
:1009D800F04103F0C5BE012B10D100F0ACF8B8B15E
:1009E800264605E0304600F0B3F8771C013D3E4648
:1009F80000F0A1F818B1002DF4DC00E00E46301B21
:100A0800BDE8F0814FF0FF30BDE8F0814FF0FF30D6
:100A1800BDE8F081380B0020074B1A680AB9074A6D
:100A28001A6018686B464118994296BF024B4FF0FE
:100A3800FF301960704700BFEC070020E81A00205B
:100A48000346022B70B5084614460ADD074D05EB30
:100A5800C30676682EB955F83300BDE8704003F038
:100A68000DBF214600F066F8204670BD380B002007
:100A7800002070470020704721280FD1084B1A68C2
:100A88000A701A68120A4A705A888A70DA78CA7024
:100A98001A790A715A794A719B798B7100207047CB
:100AA8000C00002070B500230CE0084AC65C1468EE
:100AB800074D2E5501340133B4F5006F146001D190
:100AC800002414608B42F0D1002070BD0008002083
:100AD800B01200200C4BF0B51D6800230EE00B4A45
:100AE800C75C14680A4E37550134802C146001D154
:100AF800803C14601268AA4204D001338B42EED1C4
:100B08000020F0BD0220F0BD1C0C0020300C00209D
:100B18009C0B002007B502AB012103F8010D184614
:100B2800FFF7C0FF0EBD002100E00131435C002B40
:100B3800FBD1B7E7B6E7044B1868044B1B68C01A2B
:100B480018BF0120704700BF300C00201C0C00208B
:100B58000A4B0B491A68096891420BD009498A5C0B
:100B680002701A680132802A1A6005D1803A1A6028
:100B78000120704700207047012070471C0C00209E
:100B8800300C00209C0B0020F0B51F4A1F4C136846
:100B980021689942264608D133E00133802B08BFEB
:100BA8000023994201D111602BE0194CE55C0D2D11
:100BB800254603D8E456174FA740EED41360002308
:100BC800EC181168615CC154116801335C18802C01
:100BD80008BF4B42346859188C4212D06C5C0D2CFB
:100BE800EED80B4C61560B4C8C40E9D50021C15412
:100BF800116859187F29116004D9034A8039116096
:100C080000E000231846F0BD1C0C0020300C00202A
:100C18009C0B002000002480704700BF7047FEE74F
:100C2800FEE7FEE7FEE770477047704700F01EB921
:100C380010B5094CA37A4BB1084B1A6822F006028A
:100C48001A6000F013F8204601F0EEFC4FF4802003
:100C5800BDE8104000F048BC340C002010ED00E066
:100C6800014801F055BF00BF340C0020344B1A680E
:100C780042F001021A6000229A60196821F084711A
:100C880021F4803119602F495960196882B021F424
:100C980080211960DA60019200921A6842F4803269
:100CA8001A60274B1A6802F400320092019A013246
:100CB8000192009A1AB9019AB2F5A06FF1D11B6896
:100CC80013F4003318BF01230093009B012B30D18C
:100CD8001B4B1A6C42F080521A641B4A116841F48B
:100CE800804111609A689A609A6842F400429A605A
:100CF8009A6842F4A0529A60144A5A601A6842F0FC
:100D080080721A600E4B1A6812F0007FFAD0104AEF
:100D180040F2056111609A6822F003029A609A68AD
:100D280042F002029A60064B9B6803F00C03082B02
:100D3800F9D1084B4FF000629A6002B0704700BFCB
:100D4800003802401030002400700040085440076A
:100D5800003C024000ED00E01E4A1F4B916801F084
:100D68000C01042903D0082903D01C4A25E01C4A99
:100D780023E05168506811F4800F00F03F000AD05A
:100D8800526847F6C07102EA0101154A8909B2FBA7
:100D9800F0F24A4309E0516847F6C07201EA0202DC
:100DA8000E499209B1FBF0F042430A49496801F43F
:100DB8004031C90B0231B2FBF1F21A60054A1968D9
:100DC800926802F0F00203EB1212127931FA02F281
:100DD8001A60704700380240280000200024F40000
:100DE80040787D01194B1A684FF47A73B2FBF3F21D
:100DF80030B5174B22F07F42013A5A60154AF0216C
:100E080082F823100024072285B09C6008201A600D
:100E1800EF3900F0BBF94FF4704302930125032327
:100E280002A90D488DF80D308DF80C508DF80E4044
:100E38008DF80F4000F0EAFB084B0948009329465B
:100E4800084A094B02F006FA05B030BD2800002018
:100E580010E000E000ED00E0000C02403C00002043
:100E6800340C002070000020F0000020704770470C
:100E78007047704770477047704770477047000069
:100E880012230B80004870475800002004230B8071
:100E9800004870476A0000200A4608B5024803491E
:100EA80002F0B2FC014808BD88BA0008B01A002058
:100EB8000A4608B50248034902F0A6FC014808BDE5
:100EC80096BA0008B01A002008B50A4608B90448BE
:100ED80000E00448044902F097FC034808BD00BF3D
:100EE800A1BA0008AEBA0008B01A00200A4608B530
:100EF8000248034902F088FC014808BDBBBA000853
:100F0800B01A002008B50A4608B9044800E00448A9
:100F1800044902F079FC034808BD00BFCEBA0008B6
:100F2800EFBA0008B01A00200A4B1968002241F0F5
:100F3800010018609A60196821F0847C06492CF435
:100F4800803018605960186820F480211960DA60D0
:100F5800704700BF0038024010300024024B0022C6
:100F68001A701870704700BF02380240034B1A68A5
:100F780022F0F80141EAC0021A60704700380240C6
:100F8800014B1860704700BF00004742064B002223
:100F980001281A701A7004D0042801D1052018708D
:100FA80070471870704700BF70380240014B1860D6
:100FB800704700BF800E474241EA000040EA821CA9
:100FC800009A5B08591E4CEA0260024B40EA014253
:100FD8005A60704700380240014B1860704700BFE4
:100FE800600047428001034B40EA0171C3F8841056
:100FF800704700BF00380240014B1860704700BFBF
:1010080068004742014B1860704700BF4C004742D8
:10101800044B9A6822F0EC6C40EA0C0040EA0102AA
:101028009A60704700380240044B9A6822F0784C66
:1010380040EA0C0040EA01029A607047003802401A
:10104800034B9A6822F0030140EA01029A60704754
:1010580000380240024B986800F00C00704700BF4F
:1010680000380240034B9A6822F0F00140EA01027E
:101078009A60704700380240034B9A6822F4E051A6
:1010880040EA01029A60704700380240034B9A68B0
:1010980022F4604141EAC0029A6070470038024079
:1010A800204A936803F00C03042B10B41DD0082BBE
:1010B8001ED01D4B03601B491C4A8C68C4F3031CDB
:1010C80012F80C40E34043608C68C4F3822C12F899
:1010D8000C4033FA04F484608968C1F3423C12F886
:1010E8000C20D340C36010BC7047114B0360E2E78B
:1010F8005468516814F4800F546814BF0C4B0A4BA1
:10110800C4F3881201F03F01064CB3FBF1FC0CFB61
:1011180002F16268C2F301435C1C6200B1FBF2F3A6
:101128000360C8E7003802400024F400980000205B
:1011380040787D0100F44073B3F5407F0AD1094B34
:10114800996820F0704221F4F81122F4407C4CEAAE
:1011580001029A60034B00051A6F010D41EA020073
:101168001867704700380240014B1860704700BF8D
:101178003C0E4742014B1860704700BF400E474283
:10118800014B1860704700BF5C01474229B9054B05
:101198001A6B22EA000119637047024B1A6B10435D
:1011A800186370470038024029B9054B5A6B22EA88
:1011B800000159637047024B5A6B104358637047DC
:1011C8000038024029B9054B9A6B22EA000199635D
:1011D8007047024B9A6B104398637047003802407F
:1011E80029B9054B1A6C22EA000119647047024BB1
:1011F8001A6C1043186470470038024029B9054B2F
:101208005A6C22EA000159647047024B5A6C104329
:10121800586470470038024029B9054B1A6922EA18
:10122800000119617047024B1A6910431861704731
:101238000038024029B9054B5A6922EA0001596170
:101248007047024B5A691043586170470038024092
:1012580029B9054B9A6922EA000199617047024B46
:101268009A691043986170470038024029B9054BC4
:101278001A6A22EA000119627047024B1A6A10437F
:10128800186270470038024029B9054B5A6A22EAA9
:10129800000159627047024B5A6A104358627047FE
:1012A8000038024029B9054B1A6D22EA0001196578
:1012B8007047024B1A6D104318657047003802409A
:1012C80029B9054B5A6D22EA000159657047024B4E
:1012D8005A6D1043586570470038024029B9054BCC
:1012E8009A6D22EA000199657047024B9A6D104386
:1012F800986570470038024029B9054B1A6E22EAF2
:10130800000119667047024B1A6E10431866704741
:101318000038024029B9054B5A6E22EA0001596685
:101328007047024B5A6E10435866704700380240A7
:1013380031B9064B93F800C02CEA000119707047C8
:10134800024B1A7810431870704700BF0D380240DE
:101358004309012B0BD0022B094B0CBF1B6F5B6F92
:1013680000F01F0133FA01F000F001007047044B50
:101378001B6800F01F0133FA01F000F0010070470C
:101388000038024000B583B00023019300E048B95B
:101398003120FFF7DDFF019B5A1C01920199B1F53D
:1013A800A06FF4D13120FFF7D3FF003818BF012018
:1013B80003B000BD024B586F40F080725A67704707
:1013C800003802400349CB6818420CBF00200120B6
:1013D800704700BF00380240014B1870704700BFCB
:1013E8000E380240044B054A002018605860986087
:1013F800D8605A61704700BF003C0140FFFF7F0082
:10140800837970B443B3204B01681E68027945792B
:10141800CC4304EA06061E605E6802F1804C0CF5B7
:101428009E3234405C60146844EA0101116002682D
:101438009868D14301EA00009860D868102D01EA45
:101448000001D96016D005F1804505F59E3528685C
:1014580040EA02032B600BE00279016802F1804048
:1014680000F59E3CDCF8003023EA0102CCF80020AD
:1014780070BC7047996841EA02009860D96841EAEF
:101488000200D860F4E700BF003C014000230C22B2
:101498000360037142718371704700BF024B196981
:1014A80040EA01021A617047003C014003494B6958
:1014B80018420CBF00200120704700BF003C0140CB
:1014C800014B5861704700BF003C014005490A685C
:1014D8004B69034004D010420CBF00200120704724
:1014E80018467047003C0140014B5861704700BFE7
:1014F800003C01403C4B984210B524D03B498842FF
:101508002BD03B4A904232D03A4B984239D03A4994
:10151800884240D0394A904247D0394B98424ED001
:101528003849884255D0384A904200D010BD012130
:101538004FF48070FFF770FE4FF480700021BDE813
:101548001040FFF769BE01200146FFF765FE012044
:101558000021BDE81040FFF75FBE02200121FFF720
:101568005BFE02200021BDE81040FFF755BE0420B5
:101578000121FFF751FE04200021BDE81040FFF7CC
:101588004BBE08200121FFF747FE08200021BDE8D7
:101598001040FFF741BE10200121FFF73DFE10204B
:1015A8000021BDE81040FFF737BE20200121FFF7DA
:1015B80033FE20200021BDE81040FFF72DBE40205B
:1015C8000121FFF729FE40200021BDE81040FFF768
:1015D80023BE80200121FFF71FFE80200021BDE8E7
:1015E8001040FFF719BE00BF00000240000402408F
:1015F80000080240000C02400010024000140240A3
:1016080000180240001C02400020024000232DE97F
:10161800F0070A681C4601264FF0030C0BE0013462
:1016280016FA04F505EA02070233AF4235D0013451
:101638000233102C5AD016FA04F505EA0207AF4215
:10164800EDD1D0F8009091F804800CFA03F5ED4341
:1016580005EA090AC0F800A0D0F8009008FA03FAD1
:1016680008F1FF385FFA88F84AEA0909B8F1010F6A
:10167800C0F800903DD9C76891F807803D40C56023
:10168800C76808FA03F53D430134C56016FA04F546
:1016980005EA02070233AF42C9D1D0F8009091F8A9
:1016A80004800CFA03F5ED4305EA090AC0F800A026
:1016B800D0F8009008FA03FA08F1FF385FFA88F8C2
:1016C8004AEA0909B8F1010FC0F8009031D9C76892
:1016D80091F8078005EA0707C760C76808FA03F5A5
:1016E80001343D430233102CC560A4D1BDE8F00796
:1016F8007047D0F808A091F8059091F8068005EA9F
:101708000A0AC0F808A0D0F808A009FA03F949EABB
:101718000A09C0F80890D0F8049029EA070747603A
:10172800476808FA04F81FFA88F848EA0707476084
:10173800A1E7D0F808A091F8059091F8068005EA8D
:101748000A0AC0F808A0D0F808A009FA03F949EA7B
:101758000A09C0F80890D0F8049029EA07074760FA
:10176800476808FA04F81FFA88F848EA0707476044
:10177800ADE700BF00234FF6FF72026003714371AB
:101788008371C371704700BF82B04FF480320192F9
:10179800019B41EA03020192019BC361C161019A65
:1017A800C261C1690191C369019302B0704700BF6A
:1017B800036919420CBF002001207047006980B2FC
:1017C800704700BF436919420CBF002001207047D1
:1017D800406980B2704700BF0183704741837047FA
:1017E8000AB9418370470183704700BF4161704760
:1017F800426981EA02034361704700BFCB0808339E
:1018080001F0070130B4890050F823500F248C40B0
:1018180025EA040440F8234050F8234012FA01F165
:1018280041EA040440F8234030BC704710B5074C27
:101838002068FF2807D00649064A8B6812680649BF
:101848009847FF232360002010BD00BFA800002098
:1018580014000020F0070020A812002043230B806A
:1018680000487047AC00002038B51F4C63685A1C0C
:10187800052B626001D0002038BD94F808C0002311
:10188800BCF1010F6360F6D0E568174AB5F5006F43
:1018980004BFE3601D462369AB4221D028BFC5EBD6
:1018A8000301D0F8EC35B3F8393038BFC5F500611D
:1018B8008B4251610DD2EA18C91AADB2E26061617A
:1018C8000A4A812152190125257201F071F8002078
:1018D80038BD4A1900236361ADB2E2608BB2EFE70D
:1018E80000201072C7E700BFF0070020B0120020E8
:1018F80038B513490B7A012B01D0002038BD4C694B
:10190800D4B1D0F8EC25B2F839309C420DD8CA6869
:101918001319CB6000234B6192B2A3B2094C812109
:10192800A21801F045F8002038BDCA68E41A9D18CD
:10193800CD6092B24C61F1E70C72002038BD00BF57
:10194800F0070020B012002001EB810C38B500EB45
:10195800CC010446084D0948B1F8881302692846A5
:101968009047D4F8EC35204601212A46B3F8403098
:1019780000F0F4FF002038BD681200201400002099
:1019880070B50B7813F060050C46064608D14B7805
:101998000A2B1CD00B2B2DD0062B31D0284670BD1E
:1019A800202D03D001F00EFD022070BDCD88002D42
:1019B80034D013F0800F10D14A781E4B1E491A609C
:1019C8001E4B2A461D6001F091FC002070BD1C4989
:1019D800012201F071FC284670BD1A481649836837
:1019E80060782A46984730461349E28801F064FC3B
:1019F800002070BD8B78CBB9104A1846936170BD32
:101A08004B88180A212803D1CA883A2A28BF3A22C3
:101A180030460D4901F050FC002070BD4878094956
:101A28002A468B6829469847284670BD01F0CAFCAB
:101A3800284670BDA8000020A8120020F00700204A
:101A48000808002014000020BE00002010B58121E5
:101A5800044600F06DFF0121204600F069FF822155
:101A6800204600F065FF024843689847002010BDF3
:101A780014000020D0F8EC2538B504468121022353
:101A8800B2F8392000F034FFD4F8EC550121B5F84C
:101A980040200223204600F02BFF82210822032346
:101AA800204600F025FF094B0949022200251A713A
:101AB8005D7108688047D4F8EC35064AB3F84030C1
:101AC8002046012100F04AFF284638BD5800002072
:101AD800140000206812002030B5054683B00023AA
:101AE8000320019301F021FF2B681B4C1A69019216
:101AF800019A002A14DB032001F017FF2B681969EB
:101B080001910198013C00280ADB032001F00DFF38
:101B18002B681A69013C0192EAD1002003B030BD5C
:101B280001990D4A41F00100019001991961186964
:101B38000190019810F0010F0AD0196901910198DC
:101B4800013A10F0010F03D01969013A0191F0D15F
:101B5800032001F0EAFEE0E7400D030030B4C4784A
:101B680004BB00EB820003339B10D0F8D04019D09F
:101B780051F8042B01205D1E834205F00105226007
:101B880010D02DB151F8042B02208342226009D0D5
:101B98000A46023052F8045B25604D68111D8342E5
:101BA8002560F5D1002030BC704700BF0332921089
:101BB80070B4D0F8D0501CD02C680B46501E43F897
:101BC800044B0124A24200F0010010D028B128687B
:101BD8000224A24243F8040B09D02E6818460234A6
:101BE80040F8046B2E685E60031DA242F5D101EB3C
:101BF8008201084670BC70472DE9F00F00230127C9
:101C080040220129C3708770828000F0A6800029D5
:101C180000F08C80477890F80080C3604FF4006231
:101C28000261002F00F0B0804FF4606A4FF48869B9
:101C38004FF4806B9C4602460CF5106442F8184F2E
:101C480001247B1E0CF53061BC42D16303EA040118
:101C58000CF512631CD251B10246022442F81C3F13
:101C68000CF53261BC42D1630CF5146310D2111D1E
:101C780053600234083203F1200503F50076BC42B4
:101C880003F50873CE634D60D36305F12003EED3EB
:101C9800C0F814B0C0F8CC90B8F1000F40D00CF5E3
:101CA800A0614FEA4815A5F1200402466D180CF50D
:101CB800A463AB4242F8901FC4F340140FD034B170
:101CC800024642F8943F0CF5A863AB4207D003F1F3
:101CD80020045360403394600832AB42F7D10CF5CE
:101CE80080514FEA0838A8F58054024688440CF51C
:101CF8000053434542F8D01FC4F3003410D034B128
:101D0800024642F8D43F03F58053434508D003F513
:101D18008054536003F50053946008324345F6D16C
:101D2800C0F80CA10020BDE8F00F70474FF4A0697F
:101D3800194BA0F806904FF00C080627DFF864A0AE
:101D4800DFF86490DFF864B0144AC17280F800804C
:101D580047709C46C36002616DE74FF0080804278E
:101D68004FF0A043C1724FF4A074022180F80080A4
:101D78004770C4800172DFF838A0DFF83890DFF8C8
:101D880038B0074A9C46E5E74FF4606A4FF4886923
:101D98004FF4806BBC467BE7000004400008044019
:101DA80000080050000E04404004044000040440B1
:101DB800000E0050400400500004005038B5037A6B
:101DC8000025012B044637D050F80C3FD96841F064
:101DD8004002DA60FFF780FE94F808C0617ABCF12F
:101DE800030F14BF4FF480324FF4403242F43013E3
:101DF80009B142F47013E16814208B6301F09FFD70
:101E0800E36894F808C0DA68BCF1030F08BF42F42D
:101E18008032DA60207A03283BD094F803E0BEF1E0
:101E2800010F07D1E3689A68052161F3440242F083
:101E380020009860002038BDC268417A936B65F332
:101E4800104309B143F480139363D1686FF386118B
:101E58006FF3965141F010036FF3C3036FF3C71389
:101E68006FF351436FF3D343D36004F10C00FFF7D2
:101E780033FEE0780128DDD1052060F34405E268EF
:101E880045F02005956094F803E0BEF1010FC9D034
:101E9800D0E7196B012262F39B616FF3D75141F0D0
:101EA80080552D2060F316451D63C82001F047FDBD
:101EB800E36845F400051D63C82001F040FDACE768
:101EC800C368986840F001029A600020704700BF1C
:101ED800C368986820F001029A600020704700BF2C
:101EE80000B583B000230193019A114B42F0200200
:101EF8000192019A61F38A120192019AC1680A61FA
:101F08000A6901920AE00A6901920198013B10F0FE
:101F1800200F07D00A69013B019203D0019810F005
:101F2800200FF0D1032001F000FD002003B000BD18
:101F3800400D030000B583B000230193019A0F4BB5
:101F480042F010010191019AC1680A610A6901927F
:101F58000AE00A6901920198013B10F0100F07D0BE
:101F68000A69013B019203D0019810F0100FF0D1DB
:101F7800032001F0DAFC002003B000BD400D03008F
:101F8800C26808B5D36801296FF35D736FF39E7358
:101F980008D009B943F080433220D36001F0CFFC68
:101FA800002008BD43F000533220D36001F0C7FC85
:101FB800002008BDC368586900F00100704700BFE1
:101FC800C068436913F0010F14BF00200120704757
:101FD800C368586900F00100704700BFC3685A69B8
:101FE80098691040704700BFC3685868704700BFC1
:101FF80003691A6861F301021A607047C368002216
:102008004FF0FF319A615961596059610A499961E4
:1020180090F803C09869944514BF1146102141F403
:10202800872C4CF0081141F4401C20EA0C0040EACF
:102038000C0199611046704700080080F8B5D0F887
:102048000C510269002129600446106861F3CC2014
:1020580010600B46E17A012958D010212046FFF77D
:102068003FFF2046FFF766FF256900224FF0FF304B
:102078002A616A61A861EA616378002B31D004F1B2
:1020880014001746FF2650F8043F1968C1F3076E7D
:102098000EF0800C5FFA8CF1002918BF4FF09041C8
:1020A80019601F619E60637801329342EBD8C3B117
:1020B800002204F150001746FF2650F8043F196823
:1020C800C1F3076E0EF0800C5FFA8CF1002918BF7F
:1020D8004FF0904119601F619E606378013293420E
:1020E800EBD82B6943F480702861E278012A08D183
:1020F8004022032062F38A0040F4803162F35941A0
:1021080029632046FFF77AFF0020F8BD1668E068CB
:10211800C02780254FF4800167F30F0346F00306BC
:10212800166065F31F4365F30F014FF4A072456213
:102138008162C0F8043162F30F036FF31F43C0F8E4
:102148000831C0F80C3188E700698368C3F341039C
:102158005A1E022A04D8034AD11811F8010C7047F4
:102168000320704704B700080369826998681168FA
:10217800C0F34100022808D06FF30A0111605968C2
:1021880041F480725A6000207047032060F30A010E
:102198001160596841F480725A600020704700BF8E
:1021A80070B44B780022012B27D00C7800EB840CFC
:1021B800012515FA04F3DCF8544063F31F42236841
:1021C800C3F3072505F0800C5FFA8CF575B98E68A6
:1021D800CD78B1F806C066F30A0365F393436CF350
:1021E800995343F0805343F4004121600069C16969
:1021F8000A43C261002070BC70470C7800EB84056C
:10220800A34063F30F02AC69D9E700BF30B44A7842
:102218000023012A1C4614D0097800EB810C012503
:1022280015FA01F2DCF8541062F31F4400696FF3E9
:10223800CF330B60C36923EA0404C461002030BCB7
:102248007047097800EB81058A4062F30F04A96999
:10225800ECE700BFF0B44B78012B41D091F800C0F7
:102268004E6900EB8C035B6D1C681A69F6B18F68C8
:10227800F519013DB5FBF7F5AD05AD0D65F3DC428C
:1022880007FB05F565F312021A61C278012A17D017
:10229800CA78012A1ED091F800C000EB8C0144F0E6
:1022A8000444486D04600020F0BC70478D6865F3F5
:1022B8001202012565F3DC421A61C278012AE7D1CE
:1022C8000B780A6900EB830CDCF854305A61CA7841
:1022D800012AE0D14B79002B72D044F00054DAE7A0
:1022E8000D784A6900EB8504A5692E682C69002AD7
:1022F80061D08B68CF7802EB030C0CF1FF3C62F3E2
:102308001204BCFBF3F363F3DC44012F08BF67F34B
:102318005E742C61C578012D5FD0CB78012B52D02B
:1023280062B103690C785D6B012717FA04F42C433A
:102338005C6391F803C0BCF1010F44D00D7800EB49
:10234800850C46F00446DCF818301E60CD78012D67
:10235800A9D1C478CB680978002CA4D194B2E21C26
:1023680000EB81009210D0F8D0409CD053F8041BA9
:10237800561E012A06F001062160284693D02EB188
:1023880053F8041B0220824221608CD01946023087
:1023980051F8045B25605D680B1D8242256082D080
:1023A8001946023051F8045B25605D680B1D8242B6
:1023B8002560EBD177E762F3120463F3DC44A8E706
:1023C80044F0805467E70569AB6813F4807F0CBF5D
:1023D80046F0005646F08056B0E70D780C6900EBE1
:1023E800850CDCF818305C61A3E700BFF0B44B78CB
:1023F800012B82B02FD091F800C04E6900EB8C04FD
:10240800636D1A681D690095FEB18E689DF80050CD
:102418009DF802404E6166F30605012666F3C40482
:102428008DF800508DF80240009C1C61C378012B88
:1024380041D091F800C000EB8C0042F00441426D9D
:102448001160002002B0F0BC70479DF800509DF864
:1024580002408E68DFE782694C6915681669009644
:10246800002C30D08B689C4242D99DF800404B61CB
:1024780063F306048DF800409DF802C0012464F35C
:10248800C40C8DF802C0009B1361C378012B27D0C0
:1024980045F004431360C278002AD2D14A69002A61
:1024A800CFD003690A78596B012010FA02F242EA88
:1024B80001005863C5E70B780C6900EB830CDCF866
:1024C80054305C61B5E79DF800709DF8026064F3D4
:1024D800060763F3C4068DF800708DF80260D2E732
:1024E8000B780C6900EB830CDCF818305C61CFE7E3
:1024F8009DF8003064F306038DF80030BCE700BF98
:102508004B78012B0AD0097800EB810CDCF85430A9
:102518001A6842F400101860002070470B7800EB2E
:10252800830292691368C3F3076C0CF08000C1B290
:1025380009B143F0804343F4001111600020704753
:1025480091F801C00B78C978BCF1010F00EB830C3E
:102558000CBFDCF81820DCF85420881E1368C1B2C0
:102568006FF35553012998BF43F08053136000203F
:10257800704700BF03699A69D96901EA0200000C33
:10258800704700BF00EB810C0269DCF854108B68BF
:1025980050691840704700BF02699169D36901EA20
:1025A800030080B2704700BF82B0012200230021DF
:1025B800009362F3C4011823C0228DF803208DF81C
:1025C80002108DF80030436D00991961C278012A14
:1025D80006D100F5B96159614FF080201A6818607A
:1025E80002B07047D0F8143110B50446DBB1036966
:1025F8009A6812F0010F16D0817A41B1D0F80C21F7
:10260800D0F80C016FF341026FF3000202605968C1
:1026180041F001025A60052001F091F923695868D8
:1026280020F00101596010BD837A6BB1026991688D
:1026380011F0010F08D0D0F80C31D0F80C016FF36D
:1026480041036FF300030360704700BF70B5437820
:102658000122044680F8122163B100F1140200231C
:10266800FF2152F8045FD06BA96081606078013364
:102678009842F6D8236900224FF0FF311A612046AC
:102688005A61DA619961FFF755FC20461021BDE8CF
:10269800704025E44B78012B1AD00B7800EB8300AF
:1026A800426D1168C1F3074000F0200C5FFA8CF30B
:1026B8005BB900F002015FFA81FCBCF1000F0CBFAE
:1026C8004FF440504FF4005070474FF4805070471B
:1026D800097800EB810CDCF818301868C0F3074063
:1026E80000F02002D1B239B900F00200C2B2002ACB
:1026F8000CBF3020202070471020704770B44D78F0
:10270800012D16D091F800C000EB8C06B2F5805F61
:10271800756D2C68264619D0B2F5005F13D0B2F556
:10272800405F18D012B962F3CF3634462C6070BCC3
:1027380070470B7800EB8304102AA5692C6826469D
:1027480018D0202A05D144F00064EFE744F40014BF
:10275800ECE7302AE6D1C4F3074C0CF02003DAB2D8
:1027680022B944F0806040F08024DFE700224A71FB
:1027780070BCE5E670BCC3E62DE9F0410446FFF7FE
:102788003BFA66780127002184F8127184F8131146
:10279800002E00F09A80731E4FF0400EB74203EAF5
:1027A800070284F8197184F81811A4F81E1184F826
:1027B8001B11C4F820E1C4F82411C4F82C113846C0
:1027C80004F1280334D292B10220B04283F819717F
:1027D80083F81871A3F81E7183F81B11C3F820E160
:1027E800C3F82411C3F82C1104F1500320D2451C5E
:1027F80083F81801A3F81E01023083F8197183F8D1
:102808001B11C3F820E1C3F82411C3F82C1183F875
:10281800417183F84051A3F8465183F84311C3F836
:1028280048E1C3F84C11C3F854115033B042DED319
:10283800012000224027711EB04284F8712384F8D9
:102848007023A4F8762384F87323C4F87873C4F843
:102858007C23C4F8842301EA000104F1280334D25C
:1028680091B183F87003A3F876030220B04283F88D
:10287800712383F87323C3F87873C3F87C23C3F8F0
:10288800842304F1500320D2451C83F87003A3F875
:102898007603023083F8712383F87323C3F87873BF
:1028A800C3F87C23C3F8842383F8992383F89853C7
:1028B800A3F89E5383F89B23C3F8A073C3F8A423FB
:1028C800C3F8AC235033B042DED32046FFF700FBF9
:1028D8002046FFF773FA00212046FFF751FB2046F8
:1028E800FFF7ACFB2046BDE8F041FFF7E9BA00BFAF
:1028F80038B501F07F05CCB205EB850100EBC101CD
:1029080014F0800F14BF01F58C7101F55C71EDB204
:10291800E4090D704C708A60CB7004B1CD80022B35
:1029280001D100230B71FFF73BFC002038BD00BF2D
:1029380001F07F0208B5CBB202EB820113F0800FE1
:1029480000EBC10114BF01F58C7101F55C71DB0965
:102958000A704B70FFF75AFC002008BD01F07F0198
:10296800F8B501EB8105EC0005190027CEB285F812
:10297800706385F8717390F803E0C5F88433BEF18D
:10298800010F04F55C7408BFF6B2C5F87C23C5F8DE
:10299800887300EB040108BFC5F880231EB1FFF758
:1029A80059FC0020F8BDFFF721FD0020F8BD00BF4D
:1029B80070B501F07F0505EB8504E100441801F5C9
:1029C8008C768119C4F824210126C4F82821002214
:1029D80084F8196184F81851C4F83021C4F82C31EE
:1029E8001DB1FFF737FC002070BDFFF7FFFC00208A
:1029F80070BD00BFCAB212F0800F10B511D101EB43
:102A0800810E00EBCE0C0CF55C7301F07F01D2094E
:102A1800012419709C705A701946FFF771FD002047
:102A280010BD01F07F0101EB810400EBC40303F545
:102A38008C73ECE7CAB212F0800F10B511D101EB1C
:102A4800810E00EBCE0C0CF55C7301F07F010024C5
:102A5800D20919709C705A701946FFF771FD20460B
:102A680010BD01F07F0101EB810400EBC40303F505
:102A78008C73ECE711F0800F08B503D1FFF75AFA11
:102A8800002008BD01F07F01FFF72AFA002008BDE9
:102A980003690022186861F30A1202431A6070473A
:102AA80003695A6803206FF341025A6000F047BF78
:102AB8000369586840F0020203205A6000F03FBFE3
:102AC80011F0800F07D101EB810100EBC10C0CF56F
:102AD8005C71FFF7DFBD01F07F0303EB830200EBBE
:102AE800C20101F58C71F4E711F0800F07D101EBF9
:102AF800810300EBC30101F55C71FFF7FFBD01F035
:102B08007F0C0CEB8C0300EBC30101F58C71F4E72F
:102B18002DE9F04F83B00646FFF752FA10B903B01B
:102B2800BDE8F08F3046FFF759FA81460028F6D005
:102B3800C0F3074101F00800C0B2002840F0188136
:102B4800C9F3074E0EF0040C5FFA8CF3002B66D124
:102B580009F0020C5FFA8CF313B1F268022151619B
:102B6800C9F3076101F0800C5FFA8CF393B1B07A76
:102B7800002840F004823369A84A5968106821F097
:102B880001015960826930469047F0684FF0004172
:102B980041610120C9F3072101F0080C5FFA8CF3A9
:102BA800002B40F0CB8109F0080C5FFA8CF2002A68
:102BB80040F0BA8109F0100C5FFA8CF3002B40F05A
:102BC8008D81C9F3072101F0100C5FFA8CF3002BFB
:102BD80040F04A81C9F3072101F0200C5FFA8CF319
:102BE800002B40F02881C9F3074202F0100C5FFA6D
:102BF8008CF1002940F01481C9F3074101F0200C41
:102C08005FFA8CF3002B8AD0844A116830460B6A2D
:102C18009847F0684FF40012426101207FE7304680
:102C2800FFF7BAFC8246002800F0A08037463446F9
:102C38004FF0000BCDF80490B0461AF0010F00F0E9
:102C48008A80D8F810305FFA8BF619695A6B08EB4E
:102C5800860C32FA06F5DCF81800ED0105F0FF02E3
:102C6800806842EA010909EA0005EDB215F0010F92
:102C780040F0B78105F004095FFA89F313B1BA6926
:102C88000425956005F00800C1B211B1BB6908259B
:102C98009D6005F0100C5FFA8CF212B1B96910252D
:102CA8008D6005F020095FFA89F010B1BB69202515
:102CB8009D6005F0400C5FFA8CF212B1B9694025AD
:102CC8008D6005F002095FFA89F010B1BB69022531
:102CD8009D6005F08005EDB2002D3CD0D4F82C1194
:102CE800D4F83001BB69D4F82021D3F818900D1A14
:102CF800954234BFAC4694460CF1030C1FFA89F98F
:102D0800B9EB9C0F25D9814223D911B3D4F82411EA
:102D180006E0D4F82C51AA421BD2AD1AD4F82021CF
:102D2800954228BF1546ABB232464046FEF716FF1D
:102D3800D4F83021BB69D4F82411AA18C4F830217A
:102D48009869491980B20335B0EB950FC4F824117E
:102D5800DFD880269E60283404375FEA5A0A02D0FA
:102D68000BF1010B69E7DDF8049046460120EFE618
:102D78003046FFF7FFFB044600284DD0DFF89CB033
:102D88003546B0460027CA4605E00435640808F110
:102D9800280840D0013714F0010FF6D05FFA87F900
:102DA80030464946FFF7EEFBC0B210F0010F13D0D2
:102DB8006B6D01209860F278012A00F04281DBF8FF
:102DC800001030460B684946984796F80390B9F1C9
:102DD800010F00F02981012000F002095FFA89F251
:102DE80012B16B6D0220986000F0040C5FFA8CF150
:102DF80011B16A6D0420906000F0080E5FFA8EF041
:102E08000028C2D0DBF8001030468A6890476B6D06
:102E180008219960B9E7D146012091E648010020D0
:102E28008D4802683046D1698847F3684FF48010AE
:102E380058610120E0E63046FFF796F9F46830461D
:102E4800E468FFF781F9032800F0C18001204021E0
:102E58000523B070B18063F38D24F3684FF40052FA
:102E6800DC6001205A61BEE630694368002423F023
:102E78000102426021463046FFF732F875786DB19D
:102E880006F114022346FF2152F8045FD06BA960B3
:102E9800816096F801E001337345F5D30125336964
:102EA80065F30F040F214FF0FF322F2065F31F4405
:102EB8009A61DC61596118611A686FF30A121A6025
:102EC8003046FFF771FB6449F2680B684FF4805095
:102ED800506119693046884728467BE6F3689D6942
:102EE80025F010049C611C6AC4F34342022A04F0D2
:102EF8000F054ED0062A11D106F5B96130460822D1
:102F080005EB8505FEF752FE06EBC50CC4F30A1463
:102F1800DCF88813F3686018CCF88803986940F0E7
:102F280010029A6101204CE64B4802683046D1688D
:102F38008847F3680820586101203BE64648036843
:102F480030465A6990473169F36889684FF40062DE
:102F58005A61B07A88B111F0010F0ED0D6F80C3151
:102F68003E4A196841F001001860196841F00300F1
:102F78001860136943F006011161012013E6D6F8C1
:102F88000C31D6F80C216FF341036FF30003136083
:102F9800F1E547F6F07204EA02010029BED005EB1C
:102FA800850E06EBCE05C4F30A142246D5F87C1329
:102FB8003046FEF7FBFDD5F87C23D5F88813F36877
:102FC80010196418C5F87C03C5F88843A6E70022E1
:102FD8004FF4007E0920B270A6F804E060F38D2457
:102FE8003BE71D4D586B2968BA69012505FA0BFEA8
:102FF80020EA0E0058634B68956040463146984772
:1030080098F80390A9457FF435AEBBF1000F04D1C1
:1030180098F811C1BCF1040F01D04D462AE640468C
:10302800FFF7C2FA4D4625E627B996F811E1BEF139
:10303800050F01D04846CFE63046FFF7B5FA4846B7
:10304800CAE61A69D8F87813C2F3120CCCEB01035C
:10305800C8F88833B3E600BF4801002000ED00E05F
:10306800D0F8E41510B5044608698047032384F8AE
:103078001231002010BD00BFD0F8E415042208B5B5
:1030880080F81221CB689847002008BD08B5D0F811
:10309800E035DB6903B19847002008BDD0F8E0159A
:1030A80008B50B6A9847002008BD00BFD0F8E015A6
:1030B80008B54B6A9847002008BD00BF002110B52D
:1030C8000B4604464022FFF713FC802140220023D0
:1030D8002046FFF70DFCD4F8E415A078012284F807
:1030E80012214B689847002010BD00BF10B582B070
:1030F8006946044600F03CF99DF8001001F01F03F2
:10310800012B14D0022B0DD03BB1204601F08001D9
:10311800FFF770FC002002B010BD2046694600F0A1
:10312800F1F9F7E72046694600F060F9F2E7204632
:10313800694600F0CDF9EDE738B5044629B990F8AD
:103148001131022B0DD0002038BDD0F8E02553698D
:10315800002BF8D090F812C1BCF1030FF3D19847B7
:10316800F1E7D0F83421D0F820319A4210D9C1784B
:103178000129D0F82411C3EB020208BFC918C0F80E
:10318800342108BFC0F8241192B200F0A5F8DAE79C
:10319800D0F83821B2FBF3F503FB15255DB993424E
:1031A80009D8D0F83C319A4205D22A4600F094F862
:1031B800C4F83C51C7E7D4F8E005C36823B194F8D4
:1031C80012C1BCF1030F03D0204600F0B9F8BAE7EA
:1031D80020469847F8E700BF10B5044629B990F88B
:1031E8001131032B0DD0002010BDD0F8E0259369D4
:1031F800002BF8D090F812C1BCF1030FF3D1984717
:10320800F1E7D0F88C23D0F878339A4212D9C178F4
:103218000129D0F87C13C3EB020204BFC918C0F817
:103228007C13C0F88C239A4228BF1A4692B200F049
:103238006DF8D8E7D0F8E0351B6923B190F812C1D2
:10324800BCF1030F03D0204600F06AF8CBE798479B
:10325800F9E700BF2DE9F041069D044616461F46D2
:10326800884600F0FBFA20464146C4F8E075C4F8E9
:10327800E455C4F8E865FFF77FFAD4F8E405036875
:1032880098472046BDE8F04100F03ABB002070475F
:10329800D0F8E03510B504461A689047D4F8E4052C
:1032A80083689847002010BDD0F8E02508B553681A
:1032B8009847002008BD00BF13460A46022110B5F2
:1032C800C0F83831C0F8343180F811110021FFF707
:1032D8006FFB002010BD00BF10B50C46134600213F
:1032E8002246FFF765FB002010BD00BF13460A46C3
:1032F800032110B5C0F89033C0F88C3380F8111151
:103308000021FFF72BFB002010BD00BF10B50C46B5
:10331800134600212246FFF721FB002010BD00BF05
:1033280038B50021042504460A460B4680F8115199
:10333800FFF73EFB2046FFF737F9002038BD00BFF6
:1033480038B50021052504460A460B4680F8115178
:10335800FFF704FB2046FFF727F9002038BD00BF20
:1033680001EB810200EBC201B1F88803704700BF8E
:1033780090F8C8250A7090F8C9C581F801C090F87E
:10338800CB3590F8CA251B0203EB020CA1F802C04A
:1033980090F8CD3590F8CC251B0203EB020CA1F870
:1033A80004C090F8CF3590F8CE251B0203EB020C31
:1033B8001FFA8CF20123CA80C0F83C2180F8113131
:1033C800704700BF10B591F90030002B044609DBA7
:1033D800C98839B10021FFF70DFB2046BDE8104030
:1033E800FFF7E2B88021FFF705FBF6E738B54B7821
:1033F8000A79012B0C4605460ED003D3032B17D0B0
:10340800002038BD90F81231022B09D0032B3CD094
:10341800FFF7D8FF002038BD90F81231022B1FD1DA
:10342800002AEDD0802AEBD01146FFF7E3FAE7E750
:1034380090F81231022BF3D0032BE9D14B882BB92A
:1034480022B1802A02D01146FFF7D4FAD5F8E01548
:1034580028468A68214690472846FFF761FFCFE74C
:10346800032BD5D14B88002BCAD152B1802A08D062
:103478001146FFF7DFFAD5F8E01528468A68214695
:1034880090472846FFF74CFFBAE712F0800F0ED19D
:1034980002EB820200EBC20393F872338BB90B4A3A
:1034A8001360284609490222FFF706FFA8E702F041
:1034B8007F0E0EEB8E0C00EBCC0090F81A31002B2F
:1034C800EDD0024801210160EBE700BF0C080020A5
:1034D80038B590F81231032B04460D4603D0FFF798
:1034E80071FF002038BD0A79012AF8D8D0F8E02504
:1034F80093689847E8880028F3D12046FFF710FF23
:10350800EFE700BF70B54B7882B00C460546092B33
:1035180013D8DFE803F0182A1240125774128B05EB
:10352800A1789B4E0129317107D890F81231022BEE
:1035380000F03F81032B00F0CD802146FFF742FFCA
:10354800002002B070BD90F81231991E0129F4D8FC
:10355800D0F8140100287ED18D4B0120D860284670
:103568008C490122FFF7A8FEEAE790F81221911E84
:103578000129E2D8B4F802C0BCF1010FE0D1D0F8BB
:10358800E01500228B68C0F8142121469847284688
:10359800FFF7C6FED4E76388012B00F01C81022BDD
:1035A800CED1A38813F0FF0FCAD101691C0A4A685B
:1035B800631E1046042B00F2A480DFE803F0A7B1D5
:1035C800ACB69E00A388002B40D1E288002A3DD1EA
:1035D80090F812E16288BEF1030FAED002F07F04CA
:1035E80080F813412146FFF753FA2846FFF798FE63
:1035F800002C00F0EC80022085F81201A0E7628818
:10360800110A4B1E062B98D801A151F823F000BFD0
:10361800BB3600087D3600086736000843350008C9
:10362800433500084335000843350008E288012A7D
:1036380083D190F81231022B00F0B780032B7FF46E
:103648007CAF00F58871FFF737FE79E728462146F9
:10365800FFF7B8FE74E74E490322CA607FE75FFAB6
:1036680082FCBCF1050F3FF668AFDFE80CF09587E8
:103678007E756C63D0F8E01580788B6A0DF10601D1
:103688009847022242700146C5F8EC05BDF806309D
:10369800002B3FF455AFE288002A3FF451AF9A421D
:1036A80038BF134628461A46ADF80630FFF704FE21
:1036B80046E7D0F8E83580781A680DF1060190479A
:1036C800E288402A014603D095F812010128DDD18D
:1036D8000823E1E7002900F0898090F810110129FA
:1036E80008D0FFF7E1FD3179284685F81011FFF77A
:1036F800CFFD2846FFF714FE22E7052363F30610E3
:1037080002464A602846FFF70BFE19E7012262F3DA
:1037180006100246F5E7032464F306100246F0E7B4
:10372800022363F306100246EBE7042262F3061055
:103738000246E6E7D0F8E81580788A690DF10601B7
:1037480090470146A2E7D0F8E83580785A690DF12C
:1037580006019047014699E7D0F8E81580780B698B
:103768000DF106019847014690E7D0F8E8258078E2
:10377800D3680DF106019847014687E7D0F8E815A8
:1037880080788A680DF10601904701467EE700BF00
:103798000C08002018080020D0F8E83580785A680E
:1037A8000DF106019047014670E71649FFF784FDC1
:1037B800C6E600299ED00121032380F8101180F865
:1037C8001231FFF765FD2846FFF7AAFDB8E601218B
:1037D80085F81211B4E6D0F8E015C0F814318A68FB
:1037E800214690472846FFF79BFDA9E6022280F86C
:1037F800122180F81011FFF757FD2846FFF790FDBA
:103808009EE600BF1408002030B4F8B10378002BFE
:103818001ED00446002314F8015F0133DBB2002DEB
:10382800F9D15C00A31CDCB2138003220C704A702F
:1038380002785AB1022300255C1CE4B2CA540D5523
:1038480010F8012F0233DBB2002AF5D130BC7047E3
:1038580002242346E8E700BF7047704737B50120C8
:103868000146FDF793FC4FF4D85300930223032538
:103878008DF804306946023B20488DF806308DF8F3
:1038880007308DF80550FDF7C1FE08210A221B48B4
:10389800FDF7B4FF09210A221848FDF7AFFF0B21F5
:1038A8000A221648FDF7AAFF0A220C211348FDF741
:1038B800A5FF01244FF480636946104800938DF8F2
:1038C80006408DF807408DF80550FDF79FFE0A2148
:1038D8000A460A48FDF792FF21464FF48040FDF75B
:1038E8008DFC80202146FDF75FFC4FF0805021467B
:1038F800FDF7BCFC2046FDF7F7FD3EBD0000024089
:1039080007B54FF4C06000F01FF843238DF804306A
:10391800383B8DF80530083B8DF8063001A8023B8E
:103928008DF8073000F01AF80EBD782307224343BC
:10393800B3FBF2F3073A01329A42FCD970474FF4CD
:103948007A735843F1E700BF40F0BE61024B41F47F
:103958002020D860704700BF00ED00E0C37870B445
:1039680063B902780121500902F01F0311FA03F22A
:103978002030164941F8202070BC7047144B467817
:10398800DC6885780178E243C2F30222C2F1040CB4
:103998005FFA8CF416FA04F40F2656FA02F2A3F52D
:1039A800406302EA050CE4B24CEA040201EB030CA2
:1039B80012018CF800230078012200F01F0341094E
:1039C80012FA03F0014A42F82100D5E700E100E0CD
:1039D80000ED00E021F0604C2CF07F02024B42EA3F
:1039E80000019960704700BF00ED00E029B9054B60
:1039F8001A6922EA000119617047024B1A691043DB
:103A08001861704700ED00E0044B1A6804280CBFE9
:103A180042F0040222F004021A60704710E000E04D
:103A28000D4B1A6842F008021A600C4B1A6822F013
:103A38007F4242F0AA421A605A6822F470425A60E1
:103A48009A6822F07F4242F02A429A60DA6822F0AD
:103A58007F42DA60704700BF30380240000C0240F5
:103A68007047F0B500F13F4404F57E040126294D66
:103A7800A30A16FA03F32F68DB05DB0D3B432B6023
:103A880011FA06F3032504689D40ED4305EA040492
:103A980004601778046807F003079F40274304462B
:103AA8008E4044F8047B476827EA06064660567845
:103AB800476806F001068E403E434660866805EA80
:103AC800060686609678876806F003069E403E43A1
:103AD8008660C6683540C560D678C56806F00306B6
:103AE80016FA03F32B430729C36002D9083989B2B0
:103AF8002046046A89000F238B4024EA03030362EB
:103B08001279036A02F00F0212FA01F119430162F5
:103B1800F0BD00BF3038024082B0019002E0019B46
:103B2800013B0193019B002BF9DC02B070477FB584
:103B38001D4B1E4A18601E4B196891429CBF1D4DB3
:103B48001D601B6888BF00250A22B3FBF2F20392AE
:103B5800FA22B3FBF2F202922822B3FBF2F30193AA
:103B6800154B1A6842F0080204461A60002808BF7C
:103B78000624FFF755FF75B114E0104E4FF470435B
:103B880033600298FFF7C8FF4FF070433360019825
:103B9800FFF7C2FF0135A542EFD30398FFF7BCFF3B
:103BA8000025F8E77FBD00BF1C0800203F420F003A
:103BB8004008002000127A0030380240180C0240F9
:103BC80038B5174B174C1A68174842F480421A60E8
:103BD8000C212246651DFFF744FF13480D212A4694
:103BE800FFF73FFF10480E2104F10A02FFF739FFE3
:103BF8002A460D480F21FFF734FF0C4B4FF4805233
:103C08001A600B4B40F27F321A600A4B1A6842F076
:103C180050021A60084B1A6842F010021A6038BD48
:103C28004038024008B70008000402401804024067
:103C38000038004024E400E004E100E0024B18688A
:103C480000F48050704700BF1404024070B5044669
:103C58000D461646FFF7F2FF0028FBD0084B4FF041
:103C680080521A60074B084A1D605E6014F8011BF9
:103C780011609C60054B1A6842F040021A6070BDE2
:103C880018040240200800200C3800400438004086
:103C9800154B1B6813F0010F07B520D0134B1449BF
:103CA8001A68086802F8010B1A605A68013A002A73
:103CB8005A600CDC0F4ADB68116821F04001116082
:103CC8000D4A4FF48051116063B198470AE01A69B0
:103CD80001321A619A6812F8010B08609A60024B67
:103CE8001B6801930EBD00BF083800402008002063
:103CF8000C3800400438004018040240012318B171
:103D0800033813FA00F0704718467047F8B50346B1
:103D1800C4891A78418A9D89008A9E68042A34D801
:103D2800DFE802F03403111E28006A4A4FF4803796
:103D38001760684A176817F4003FFAD0176827F029
:103D4800010717601FE0634A4FF4802717604FF49C
:103D5800803717605F4A126812F4003FFAD012E009
:103D68005C4A4FF4803717605A4A126812F4003FD1
:103D7800FAD008E0574A4FF480271760554A12686E
:103D880012F4003FFAD0012202E0FEE7524E002270
:103D9800002841D0002941D0DF897F0803D0042FB3
:103DA80088BF082400E00224B0F5D87F00D9FEE7D8
:103DB800012800D1FEE7402900D9FEE7012900D1FA
:103DC800FEE76F1EBFB20E2F88BF0F251F8A7E43E6
:103DD8005F8AB6FBF7F6414FBE4200D9FEE73F2E99
:103DE80000D8FEE73E4FB6FBF4F63E603D4FBE42BC
:103DF80000D9FEE75E78C005C00D06F00106800117
:103E080040EA865040EA010141EA0444364844EA5F
:103E180005650560012602E0064600E00E463049C9
:103E28000C681E2C4ED93C2C4ED95A2C4ED9782CC5
:103E38004ED9962C8CBF052104212C48056841EAEF
:103E4800050505602948006800F007008842F9D197
:103E5800DD7898781B7926496F0347EA802747EA77
:103E68000317012E0F600AD11A4A116841F08071B8
:103E78001160184A126812F0007FFAD002221C4919
:103E88000E6826F0030642EA06060E6092001849FC
:103E9800096801F00C019142F9D1164A32F8133041
:103EA800B4FBF3F4144B1C60FFF728FF134BB4FB6F
:103EB800F0F018602846FFF721FF114BB4FBF0F033
:103EC8001860F8BD0021B8E70121B6E70221B4E780
:103ED8000321B2E7003802400024F40000CCBF19E7
:103EE80040080020007A030A04380240003C0240DF
:103EF8000838024018B700083408002038080020A5
:103F08003C080020012830B51FD907281DD8BF2933
:103F18001BD9B1F5D87F1AD80E4B0F4C1A6822F06E
:103F280080621A601A680D4A156805EA040414606C
:103F3800146844EA007040EA811111601A6842F07E
:103F480080621A601B68002030BD012030BD01204E
:103F580030BD00BF003802403F80FF8F84380240E8
:103F6800072BF0B563D8A2F10B04062C15D8394AF3
:103F7800157855FA03F616F001065BD1012717FAF2
:103F880003F343EA05051570334B02EBC402506096
:103F980091601A6842F4001246E02F2A10D12D4B86
:103FA8001A7812F0800F48D162F07F021A70D86335
:103FB8001964294B1A6842F400121A600020F0BDF7
:103FC800A2F13804042C13D8224A92F8445055FA26
:103FD80003F616F0010633D1012717FA03F343EA73
:103FE800050582F8445002EBC4029064D16417E0DE
:103FF800A2F14404022C26D8164C94F8445055FAE1
:1040080003F616F0010621D1012717FA03F343EA54
:1040180005053F3A84F8445004EBC204A064E16407
:104028000D4B1A6842F480021A603046F0BD4FF01A
:10403800FF30F0BD6FF00100F0BD6FF00200F0BD81
:104048006FF00300F0BD6FF00600F0BD6FF00400E4
:10405800F0BD00BF4408002030380240024A08B5CD
:1040680090685368984708BD44080020024A08B57C
:104078001069D368984708BD44080020024A08B56B
:1040880090695369984708BD44080020024A08B55A
:10409800106AD369984708BD44080020024A08B549
:1040A800906A536A984708BD44080020024A08B538
:1040B800106BD36A984708BD44080020024A08B527
:1040C800906B536B984708BD44080020024A08B516
:1040D800106CD36B984708BD44080020024A08B505
:1040E800D06C936C984708BD44080020024A08B574
:1040F800506D136D984708BD44080020024A08B562
:10410800D06D936D984708BD44080020024A08B551
:10411800506E136E984708BD44080020024A08B53F
:10412800D06E936E984708BD44080020024A08B52F
:10413800506F136F984708BD44080020024A08B51D
:10414800D06F936F984708BD44080020034A08B50C
:10415800D2F88400D2F88030984708BD440800207F
:104168000346481C1A6B904228BFD86A704703461A
:10417800481C9A69904228BF58697047436A026A86
:10418800D21A002A30B522D0C16807DA04688269D9
:10419800182505FB0141D21ACB6108E004681825EF
:1041A80005FB0141CB6181699B188B4200D34369B0
:1041B8000468C16883621823594314346250026842
:1041C800C16810324B43D15841F00101D15030BD84
:1041D800C3680A4A032B08D9D318016813F8043CAA
:1041E8003D2212FA03F3CB6005E0D35C01683D225F
:1041F80012FA03F38B60836A4362BFE738B700089B
:10420800024B18600720FFF792BC00BFCC080020C3
:1042180007B50190019B214A934230D006D8204A25
:1042280093421ED01F4A934209D121E01E4A93426D
:1042380009D01E4A93420DD01D4A934226D06FF0F2
:104248003C00FFF7DDFF1B4B1A6842F010021A60B2
:10425800002021E0174B1A6842F020021A6005205E
:104268001AE0154B1A6842F400321A60012013E074
:10427800114B1A6842F480221A6002200CE00E4B9F
:104288001A6842F400221A60032005E00A4B1A68F3
:1042980042F480121A6004200EBD00BF004C00409A
:1042A8000044004000480040001001400014014054
:1042B800005000403438024030380240F8B5044617
:1042C800134F08460D46164600F0D2FCA301FB1812
:1042D800186310B90D38FFF793FF304600F0C8FC9B
:1042E800A4013B19986110B90E38FFF789FF3C19F2
:1042F8000020226BA56353196363A3692662991989
:10430800E1612264A362E362E2636362F8BD00BF15
:10431800CC080020013808B505280ED8DFE800F0E1
:1043280003130507090B094808BD094808BD0948D2
:1043380008BD094808BD094808BD6FF04100FFF7EE
:104348005FFF002008BD064808BD00BF00100140FF
:1043580000480040004C004000500040001401405C
:104368000044004070B5161E04460D4602DA0F4898
:10437800FFF746FF0E4B9D4202D00E4B9D4208D1DF
:10438800042E0D4B02DD23603F360BE023603836E8
:1043980008E0072E094B03D123602F23636002E056
:1043A80023600B366660204670BD00BF36FDFFFFF8
:1043B8000010014000140140006402400060024007
:1043C80070B5094D06460024304655F8041F00F024
:1043D800D3FF28B10134082CF6D14FF0FF3070BD5F
:1043E8000248A401001970BD38B70008D0080020A1
:1043F8002DE9F04F8BB00446149F0191072F0292CC
:104408000393DDF854A003D94FF0FF30FFF7F8FE0F
:10441800BAF1070F03D96FF00100FFF7F1FE169903
:1044280031F0F00103D06FF00200FFF7E9FE2046FB
:10443800FFF7EEFE21465246834606A8FFF792FF95
:1044480004A821463A46069E079DFFF78BFF049B6A
:10445800DDF814909E4203D06FF4A670FFF7D0FEEB
:10446800854A86484FEA8B1302EB030841462A46E1
:104478005346FFF775FD10B11E38FFF7C1FE7F48A0
:1044880041464A463B46FFF76BFD10B18238FFF7BD
:10449800B7FE7B4A4FEA8B13D31802215E60DF60B8
:1044A800C3F810A09C605961764B9E4203D0764BAE
:1044B8009E421FD10FE007F00702744B53F82210F9
:1044C800A1421BD003EB82031B6AA34222D06FF0E8
:1044D8000500FFF795FE6D4B07F0070203EB82031B
:1044E8001A6CA2420AD01B6EA3420AD06FF00600D3
:1044F800FFF786FE6FF00700FFF782FE4FF0040912
:1045080001E04FF005095F4B9E4205D05E4B9E428D
:1045180028D116E04FF005095C4B0AF0070203EBBF
:104528008203D3F88020A24224D0D3F8A020A2424C
:1045380023D0D3F8C030A34219D06FF00800FFF79A
:104548005FFE524B0AF0070203EB8203D3F8E02028
:10455800A2420FD0D3F80031A3420ED06FF0090069
:10456800FFF74EFE6FF00A00FFF74AFE05E04FF036
:10457800070804E04FF0040801E04FF00508404A3E
:104588002046C2F8049208A900F068FA18B16FF042
:104598000E00FFF735FE20460899019A00F028FB27
:1045A80058460299039AFFF789FEE368344943F4B1
:1045B800005343F00C03E360636943F0C003636195
:1045C800182303FB07674FEA496903FB0A660434AB
:1045D80049F4A0634FEA4868BC61B4613B6148F4A0
:1045E800823343F040034FEA8B1B336101EB0B032B
:1045F800002D1A6B9B6BFA617B61254B2A46B8BF6D
:10460800EA1C22F0030205EA030302F16042002BD0
:1046180002F5644203DA013B63F0030301331699A0
:10462800DB0011FA03F31168002D41EA030313605C
:104638002B46B8BF05F11F035A11164BD3189A0021
:10464800154B05EA0303002B03DA013B63F01F0354
:104658000133012111FA03F3116841EA03031360DE
:104668003B6943F001033B61336943F01003336155
:1046780000200BB0BDE8F08FD0080020D941000819
:10468800CC08002000600240006402404C01002079
:1046980003000080403800381F0000802DE9F047F3
:1046A800DDF82090DDF824800A9F0E4615461C464A
:1046B800FFF730FE31462A462346CDF82090CDF844
:1046C80024800A97BDE8F04792E60269012A03466A
:1046D80001D1806B09E0022A0DD101688268182097
:1046E80042431431186B8A58801ADA6B801A03D542
:1046F8005B6BC0187047002070470138072803D843
:10470800024B80011818E0E700207047D00800200D
:1047180038B5044600252046FFF7D7FF20B14CF2F4
:104728004F339D4209D904E001354CF251339D4283
:10473800F1D16FF03100FFF7FAF9E16B20460D78FF
:10474800FFF70EFDE063284638BD0138072803D877
:10475800024B80011818DBE700207047D0080020C2
:10476800F8B504460D461746FFF7AFFF064678B181
:10477800BE42A8BF3E46002708E0E36B1B78EB5516
:104788002046E16BFFF7ECFC0137E063B742F4DB4E
:104798003046F8BD0138072803D8034B80011818A4
:1047A800DEE70020704700BFD00800200269022A17
:1047B80010B50FD10168C2681824624310318958B6
:1047C80011F0010F06D1036814339B5813B9BDE8E3
:1047D8001040D3E410BD0369012B09D14368DB689D
:1047E80013F0800F04D14368DA6842F08002DA607F
:1047F800704770B50E46044680B1056A2946FFF732
:10480800B6FC636A98420CD02E7020622046FFF7EF
:10481800E2FF2046FFF7CAFF012070BD4FF0FF30CE
:1048280070BD002070BD0138072803D8024B8001F5
:104838001818DEE700207047D008002070B50D4634
:10484800064668B1002406E03046FFF7D2FF00288C
:10485800C4BF2418013529780029F5D1204670BD38
:104868004FF0FF3070BD0138072803D8024B800194
:104878001818E3E700207047D0080020F8B50C4668
:104888001646074670B1154608E038462178FFF706
:10489800B0FF0028F9D007DB0134013D002DF4DC1E
:1048A800701BF8BD4FF0FF30F8BD0138072803D85A
:1048B800024B80011818E1E700207047D00800205B
:1048C8002DE9F743DDF8288018F00F0F04460E464F
:1048D8001546994603D06FF00200FFF791FC204679
:1048E800FFF796FC234B820199180746012048617F
:1048F8008C6003EB870104339A18C1F8082220461C
:10490800694600F0ABF818B16FF00E00FFF778FCBD
:1049180020460099324600F06BF929464A46384647
:10492800FFF7CCFCE36843F4005343F02C03E36047
:10493800019A22F0030303F1604303F5644302F094
:104948000302D20008FA02F81A6842EA08021A605A
:10495800019A094B5109CB189B00012102F01F0253
:1049680011FA02F2196841EA02021A600020BDE851
:10497800FE8300BFCC080020403800382DE9F04104
:10498800069F0E4615461C46FFF7C4FC31462A46CC
:1049980023460697BDE8F04192E743681B6813F089
:1049A800200F10B5044607D043685A68836B1A7005
:1049B800816BFFF7D5FBA0636368DB6813F0800F9A
:1049C80014D063681B6813F0800F0FD0616A6368A6
:1049D8000A7820465A60FFF7CAFB236A6062984249
:1049E80004D16368DA6822F08002DA6010BD0148F9
:1049F800D3E700BF900A00200048CEE7500A002005
:104A08000048CAE7100A00200048C6E7D00900207D
:104A18000048C2E7900900200048BEE7500900207E
:104A28000048BAE7100900200048B6E7D00800207F
:104A38000EB430B5C2B045AA044652F8041B01A80A
:104A4800419200F0A1FD01A905462046FFF70BFFA2
:104A5800284642B0BDE8304003B070477FB5564A9B
:104A680003461068029010798DF80C0052F8050F73
:104A7800127900908DF80420504A93424FD007D8FD
:104A88004F4A934223D04F4A934240F0918032E0FC
:104A98004D4A934207D04D4A934268D04C4A9342BC
:104AA80040F086804FE04B4B4B4C1B680B604B4BE8
:104AB8001A6842F001021A605A6942F010025A61FB
:104AC80025234B602046072609210A2562E0444B2E
:104AD800414C1B680B60414B1A6842F001021A6096
:104AE8001A6942F400321A6126234B6020460726D1
:104AF800022103254EE03A4B3A4C1B680B60374BBA
:104B08001A6842F002021A601A6942F480221A6195
:104B180027234B60204607260A210B253AE0304B15
:104B28002D4C1B680B602D4B1A6842F001021A606D
:104B38001A6942F400221A6134234B602046082681
:104B48000021012526E0264B274C1B6827480B60CF
:104B5800224B1A6842F006021A601A6942F480125F
:104B68001A6135234B6008260C21022512E0194BE7
:104B78001E4C1B680B60194B1A6842F004021A603D
:104B88005A6942F020025A6147234B6020460826A2
:104B98000621072502AA8DF80C60FEF762FF204661
:104BA80029466A468DF80460FEF75BFF002001E0A5
:104BB8004FF0FF3004B070BD5CB70008004C0040F7
:104BC800004400400048004000100140001401402B
:104BD800005000403C0800200000024030380240ED
:104BE8003808002000040240000C0240000802407F
:104BF80019234B439200B3FBF2F3642110B5B3FBC6
:104C0800F1F42401220901FB12331B013233B3FBF7
:104C1800F1F101F00F0141EA0404A4B2846010BD6F
:104C280070B54BF6A4364BF6A435C0F60006C0F6B0
:104C38000005761BB61006D0002455F8043B013455
:104C48009847A642F9D14BF6A4364BF6A435C0F6E0
:104C58000006C0F60005761BFCF709F9B61006D069
:104C6800002455F8043B01349847A642F9D170BD99
:104C780040F26C230146C2F20003186800F008B83D
:104C880040F26C230146C2F20003186800F0E2BE4D
:104C98002DE9F04F01F10B04162C83B0064631D9EB
:104CA80024F00704E30F8C422CBF194643F001019E
:104CB800002930D1304600F0A9FAB4F5FC7F2FD294
:104CC8004FEAD40C40F26035C2F2000505EBCC0285
:104CD8002F46D368934200F02D825C6803F10808E0
:104CE800DA68304624F0030499681B195C68CA60C6
:104CF80044F0010491605C6000F08AFA404603B019
:104D0800BDE8F08F002310248C422CBF194643F0D5
:104D180001010029CED00C234FF000083360EDE7E5
:104D28005FEA542C04BF4FEAD40C4FEACC0040F0A1
:104D3800868040F26035C2F2000528182F46C36805
:104D4800984206D10DE0002980F27981DB6898420B
:104D580007D05A6822F00302111B0F29F3DD0CF16A
:104D6800FF3C0CF1010CBD4A93689A4208BF786871
:104D780024D0586820F00300011B0F2900F3C081DC
:104D88000029D260926080F29480B0F5007F80F0B4
:104D98007781C0084FF0010ED7F8048007EBC001F7
:104DA80080100EFA00F0D960D1F808E040EA080057
:104DB8007860C3F808E0CEF80C308B604FF0010E35
:104DC8004FEAAC030EFA03FE86457DD810EA0E0FB3
:104DD80008D12CF0030C4FEA4E0E0CF1040C10EA2B
:104DE8000E0FF8D007EBCC0AE146D046D8F80C00F5
:104DF800804507D196E1002B80F2A681C0688045E6
:104E080000F09081416821F003010B1B0F2BF2DDAC
:104E18008046C568011944F0010E58F8087F43F030
:104E28000104C0F804E030464C60FD60AF60D1601A
:104E38009160CA608A60CB5000F0EAF95EE7BCF185
:104E4800040F9EBF4FEA941C0CF1380C4FEACC00BB
:104E58007FF66FAFBCF1140F9CBF0CF15B0C4FEAEF
:104E6800CC007FF666AFBCF1540F9EBF4FEA143CEE
:104E78000CF16E0C4FEACC007FF65BAFBCF5AA7F55
:104E88009EBF4FEAD43C0CF1770C4FEACC007FF67A
:104E980050AF40F254539C4595BF4FEA944C4FF4A1
:104EA8007C700CF17C0C4FF07E0C98BF4FEACC0064
:104EB8003FE71A1803F108083046536843F0010326
:104EC800536000F0A5F919E7D7F80880D8F804303E
:104ED80023F003094C45C4EB090294BF00230123C6
:104EE8000F2AD8BF43F00103002B00F0B98040F629
:104EF800F42AD5F80834C2F2000A3046B3F1FF3F6D
:104F0800DAF8002002F1100BA3441FBF0BF57E6BEB
:104F18000BF11F0B2BF47E6B2BF01F0B5946FBF785
:104F28007BFDB0F1FF3F034600F0188108EB090153
:104F3800814200F21081DAF8042081425A44CAF80A
:104F4800042000F03E81D5F808E440F26035C2F252
:104F58000005BEF1FF3F17BF8218C5F80804C1EB72
:104F68000201CAF8041010F0070517BFC5F10805BB
:104F78004FF48055431905F5805503EB0B02304675
:104F880001931205120DAD1A2946FBF745FD019B49
:104F9800B0F1FF3F00F02C81C11A491941F001011D
:104FA800DAF80420B84540F6F42BBB602A44C2F274
:104FB800000B5960CAF8042017D0B9F10F0F40F25E
:104FC800E180A9F10C03D8F8045023F00703052069
:104FD80008EB03010F2B05F0010543EA0505C8F8A6
:104FE80004504860886000F2FB80DAF82C1040F624
:104FF800F423C2F200038A42DAF8301088BFDA627A
:1050080040F6F4238A42C2F2000340F2A780D7F8A0
:1050180008801A63D8F8043023F003039C42C4EBD9
:10502800030294BF002301230F2AD8BF43F00103D2
:10503800B3B130464FF0000800F0EAF85EE69A187F
:10504800D9689C6803F108085568304645F00103A3
:10505800E1608C60536000F0DBF84FE668030020E5
:1050680008EB040342F0010244F001043046C8F89A
:10507800044008F108085A60BB6000F0C9F83DE632
:10508800410A04299CBF4FEA901E0EF1380E1DD923
:10509800142998BF01F15B0E18D954299CBF4FEA17
:1050A800103E0EF16E0E11D9B1F5AA7F9CBF4FEAE2
:1050B800D03E0EF1770E09D940F2545E714596BF85
:1050C8004FEA904E4FF07E0E0EF17C0E07EBCE08A5
:1050D800D8F80810414503D147E08968884505D0CC
:1050E800D1F804E02EF0030E7045F6D3D1F80CE0A9
:1050F800C3F80CE099607868CB60CEF808305DE6BC
:105108001D1941F00107D56044F00104956030464F
:105118005C6003F10808EA60AA606F60695000F0FB
:1051280077F8EBE509F1010919F0030F2FD008F121
:1051380008085BE603F108025B699A4208BF0CF1B4
:10514800020C3FF410AEC8E580464318C2683046EA
:1051580058F8081FCAE5B8453FF4EDAED7F80880FF
:10516800D8F8043023F0030358E74FF00109D7F8C3
:1051780004804FEAAE008E4609FA00F048EA0000C3
:105188007860B5E7984601225A60002346E7514601
:105198001CF0030F0B460CF1FF3C2CD053F80819F8
:1051A8009942F5D07B684FEA4E0E9E453FF68CAE8D
:1051B800BEF1000F3FF488AE1EEA030F20D0CC46A4
:1051C80010E64FEA015E4FEA1E5EBEF1000F7FF463
:1051D800BAAEBB680BEB090141F00101596004E765
:1051E800304608F1080100F035FCDBF80420FCE645
:1051F80001210025D4E67B6823EA0E037B60D1E712
:105208004FEA4E0E09F10409D6E700BF704700BF08
:10521800704700BF00290CBF022200224FF48063B0
:1052280000F000B82DE9F84340F26C25C2F2000501
:1052380004460E4617462868984610B18369002B25
:105248005AD04BF26C73C0F600039C425CD04BF210
:105258008C73C0F600039C4259D04BF2AC73C0F675
:1052680000039C4204BF2B68DC68022F94BF4FF0F8
:1052780000094FF0010959EAD87918BF4FF0FF30FB
:1052880001D0BDE8F8832868214600F089F9A28991
:1052980040F26C23C4F8049012F0800FC4F8189000
:1052A800C2F2000336D1022F4FF67C7302EA0303E1
:1052B800A38135D0002E41D0012F296801BF43F0CA
:1052C8000103A381C8F10002A2619BB245F29D725D
:1052D80013F00800C0F600028A6226602661C4F84E
:1052E8001480CED013F0030F4FF000000CBF4346DC
:1052F8000346A360BDE8F88300F070FA4BF26C73C4
:10530800C0F600039C42A2D12B685C68ADE72B680D
:105318009C68AAE71868216900F09CFBA289C2E78B
:10532800002004F1470243F002032260A381002316
:105338002261A36001236361BDE8F883B8F1000F1F
:1053480008BF4FF480684046FFF792FC064628B134
:10535800A38943F080039BB2A381ADE74FF480603B
:10536800FFF786FC064618B9A3894FF0FF30D8E747
:105378004FF48068ECE700BF80EA010212F0030FE7
:105388003AD110F0030220F0030021F0030150F895
:1053980004CB08BF51F8043B0DD082F003024FEA5A
:1053A800C2026FF07F4323FA02F251F8043B4CEA41
:1053B800020C43EA020300BFACF101329C4501BF75
:1053C80022EA0C0212F0803F50F804CB51F8043B5B
:1053D800F2D04FEA0C604FEA1C2C012828BFB0EB32
:1053E800036F08BF1B0AF4D003F0FF034FEA1060F5
:1053F800A0EB0300704700BF10F0030F0AD010F8AD
:10540800012B11F8013B012A28BF9A42F4D0A2EBE4
:10541800030070474DF8045D4DF8044D4FF001024C
:1054280042EA022242EA024201F0030C21F003019F
:1054380050F8044B51F8045BBCF1020F26D04BD84E
:1054480024F07F4CBCEB152FA4EB020323EA0403E2
:105458000DD113EAC21308BF51F8045B0AD18CEAD4
:10546800040CBCEB056F0CD150F8044BE8E74FEA8D
:1054780015255CE033F07F4352D10D784FEA146C68
:1054880055E04FEA146C05F0FF0550E04FEA044C74
:10549800A4EB02034FEA1C4C23EA0403BCEB154FB0
:1054A80017D113EAC21308BF51F8045B07D18CEA7D
:1054B800040CBCEB054F08D150F8044BE6E71B047D
:1054C8002ED10D884FEA144C31E04FEA05454FEADA
:1054D800144C4FEA15452AE004F0FF0CBCEB156F9D
:1054E800A4EB020323EA04030DD113EAC21308BF95
:1054F80051F8045B0AD18CEA040CBCEB052F0AD1E5
:1055080050F8044BE8E74FEA156510E014F0FF0F78
:1055180006D051F8045B4FEA142C25F07F4506E0CD
:105528004FF000005DF8044B5DF8045B70470CF029
:10553800FF0205F0FF00012828BF904204BF4FEA90
:105548001C2C2D0AF3D0A2EB00005DF8044B5DF88B
:10555800045B704770B59AB00D4669466FF0004419
:105568004FF402760095ADF80C604FF0FF360495C5
:10557800ADF80E600294059400F032FC009B002206
:105588001A701AB070BD00BF30B440F26C24C2F279
:1055980000040D46134601462A46206830BCD9E768
:1055A8002DE9F0410C460E698046002E4AD018B10C
:1055B8008369002B00F08E804BF26C73C0F60003F9
:1055C8009C4208BFD8F8044010D04BF28C73C0F648
:1055D80000039C4208BFD8F8084007D04BF2AC73D0
:1055E800C0F600039C4208BFD8F80C40A689002EDC
:1055F80028D033B213F0080027D0266916B313F069
:10560800030F2568266008BF6369C6EB050518BF48
:105618000023002DA36002DC9AE0002D74DD3246E1
:105628002B46A76A4046216AB8470028C0EB050503
:105638000644F2DCA3894FF0FF3043F04003A38116
:10564800BDE8F0813046BDE8F081626846F4006349
:10565800A381002A5BDDE66A002EF3D09BB200220C
:1056680013F48057D8F80050C8F8002018BF626DAE
:1056780033D013F0040F05D06168636B521A0BB175
:10568800236CD21A00234046216AB047B0F1FF3F8D
:105698002FD0A3890021226923F4006361601B04D1
:1056A80022601B0CA38113F4805F03D0B0F1FF3F8D
:1056B80031D06065616BC8F80050002931D004F121
:1056C8004403994202D0404600F0C4F900206063C8
:1056D800BDE8F08100F082F86EE73A4601234046C3
:1056E800216AB047B0F1FF3F02461DD0A389E66AA0
:1056F800BFE7D8F800301D2B9CD84FF40172C8F2D0
:1057080000029A40C5D495E70020BDE8F081226CDC
:10571800002AA0DCF9E7D8F80030002BCAD1606570
:10572800C8E70846BDE8F081D8F80030002BDDD086
:10573800A3F11D02514241EB0201162B14BF0B4687
:1057480041F001033BB1C8F800503846BDE8F0818C
:105758000020BDE8F081A38943F04003A381BDE8A0
:10576800F08100BF30B140F26C230146C2F2000361
:10577800186815E74BF2687345F2A951C0F60003A3
:10578800C0F60001186800F05BBA00BF002070473F
:105798000020704748F21D51C0F6000100F026BAFB
:1057A80070B568250E4605FB01F505F10C01FFF7FC
:1057B8006FFA044648B100F10C03002146602A46FE
:1057C80018462160A36000F067FA204670BD00BF4C
:1057D8004BF26873C0F600031868DBE72DE9F04F59
:1057E8000546846983B0002C78D145F29D72012367
:1057F800C0F600028361826245F65559C0F8D84068
:1058080045F67D58C0F8DC4045F6B95AC0F8E04086
:1058180045F6E15B019300F065F8C0F60009C0F6B3
:105828000008C0F6000AC0F6000B6860284600F0C1
:1058380059F8A860284600F055F86F6821460822F4
:10584800E86004203C60B88107F15C007C60BC60C3
:105858007C66FC813C617C61BC6100F01DFAAE682D
:10586800019B2146082209203F62B08106F15C00B5
:10587800F381C7F82490C7F82880C7F82CA0C7F888
:1058880030B034607460B460746634617461B4615B
:1058980000F002FAED681223022036622146E88100
:1058A8000822C6F8249005F15C00AB81C6F8288070
:1058B800C6F82CA0C6F830B02C606C60AC606C6682
:1058C8002C616C61AC6100F0E7F92D62C5F8249099
:1058D800C5F82880C5F82CA0C5F830B003B0BDE8DD
:1058E800F08F00BF4BF26873C0F6000370B5064630
:1058F8001D68AB69002B29D0D8356B68AC68013BB3
:1059080003D51FE06834013B1CD3B4F90C20002AEE
:10591800F8D100254FF0FF33656604F15C00E381A0
:10592800294601232560A3810822A56065602561B9
:105938006561A56100F0B0F96563A563A564E564D8
:10594800204670BD286828B10546D6E72846FFF7E7
:1059580045FFD1E730460421FFF722FF28600028E1
:10596800F2D10C2304463360EAE700BF704700BF5A
:10597800704700BF704700BF704700BF40F26C23FC
:1059880045F29571C2F20003C0F60001186800F0F4
:105998002DB900BF40F26C2345F29971C2F20003A1
:1059A800C0F60001186800F021B900BFF8B540F250
:1059B8006034C2F200040F460546FFF727FCA368CF
:1059C8005E6826F0030606F57E630F33DF1B3F0B88
:1059D800013F3F03B7F5805F07DB00212846FBF74F
:1059E8001BF8A3689B19984204D02846FFF710FCBF
:1059F8000020F8BD79422846FBF70EF8B0F1FF3FCA
:105A080010D040F6F823A168C2F20003F61B28461E
:105A180046F001061A684E60D71B1F60FFF7F8FBB7
:105A28000120F8BD00212846FAF7F6FFA368C21A3C
:105A38000F2ADADD40F2687440F6F821C2F2000459
:105A4800C2F2000142F001025A602368C01A0860DD
:105A5800CBE700BF2DE9F0410D460446002958D098
:105A6800FFF7D4FBA5F1080240F260305668C2F295
:105A7800000026F00103D0F808C0D1188C454F6803
:105A880027F0030765D016F001064F6031D00026D5
:105A9800CD196D6815F0010F06D1DB19002E4BD01A
:105AA8008D68C968E9608D6043F00101D350516089
:105AB800D6B9B3F5007F2ED3590A04296BD89E09AD
:105AC8003836F5004519A968A94203D169E0896803
